:060000000C9446000C9474
:1000060000000C9400000C9400000C9400000C946A
:1000160000000C9400000C9400000C9400000C945A
:1000260000000C9400000C9400000C9400000C944A
:1000360000000C9467000C9400000C9400000C94D3
:1000460000000C9400000C9400000C9400000C942A
:1000560000000C9400000C9400000C9400000C941A
:1000660000000C9400000C9400000C9400000C940A
:1000760000000C9400000C9400000C9400000C94FA
:1000860000000C940000F894EE27ECBBF1E0F5BFFD
:10009600E5BFE0936C00F8E1F1BDE1BD8DE0A2E0C3
:1000A600BB27ED938A95E9F780E090E1A0E0B1E007
:1000B600ED930197E9F78BBFEFEFEDBFE0E1EEBF00
:1000C600C0E0D5E00C947E00EA93FA93EFB7EA938A
:1000D600E7EFF2ECFDBDECBDE5B3EF3F11F4E0E078
:1000E60004C0E5B3E03011F4EFEFE5BBE991EFBFF3
:1000F600F991E9911895E0E0EABBEBBBE7BBE8BBF9
:10010600EFEFE4BBE0E0E5BBE1BBE2BBE2B9E3B99C
:10011600E0936100E0936200E0936400E093650081
:10012600E0BFE3BFE2BFE1BFEFBDE5E0EEBDE0E06B
:10013600EDBDECBDE7BDE6BDEBBDEABDE9BDE8BD85
:10014600E0937900E0937800E5BDE4BDE3BDE0937C
:100156008B00E0938A00E0938900E0938800E093A7
:100166008100E0938000E0938700E0938600E093AF
:100176008500E0938400E0938300E0938200E4E04E
:10018600E7BFE0E0E0937D00E0936A00EABFE9BFE5
:10019600EAB9E0939A00E0E8E8B9E0E0E0BDE6B944
:1001A600EDB9E09374007894E0E0E5BBFFCFFFCFB4
:00000001FF
