:10F624005455020A01323F3232013232324C3F0128
:10F634004832201100000000180000323264020534
:0FF6440032030000000001011800020100020063
:0499C4004109582FCE
:1099C800C11DC1A5C14D029F000002A3000001B83E
:1099D8000001B900015400024E0000014000013AA4
:1099E80004013304C133C14A042C000000000158AB
:1099F80000013800048900000000019E00013600C3
:109A0800023C000002430000024C0000025100002A
:109A1800C12DC13D02AD000002B10000024A0000A4
:109A2800C141C110015500C1B0C13CC142026C0026
:109A3800000273000001300001B702013500015334
:109A480000C13702450000410AA300C145C11CC13D
:109A580016C132027F0000019D00019700C140C17C
:109A680012C12BC148C1430291000002A1000002AB
:109A78009A00000295000002A9000002A500000259
:109A880098000002AB000002A70000420A8D000007
:109A9800420A960000420A910000410A9B00C1193F
:109AA80002810000410A8F00C11F410A8100C10BD9
:109AB800C115C118C10AC117C109C124C108C10E05
:109AC800C13FC122014200410A9E00410AA1000192
:109AD8003900C11BC136C11AC121C13EC1ACC12761
:109AE800410A930001B502014100C10CC10F410AAE
:109AF8009900C1AAC1BAC1B5C114C128C113018353
:109B080000410AB700016E01017601C14C410A9C6F
:109B180000C149C147C13B410AB100C111C139C1A6
:109B280046420A850000C12FC134410A9F00019CAA
:109B380000017700017500410A8900410AB300411C
:109B48000AB500410AB200410AB400410A9A3041FC
:0F9B58000A9D00410A8714C13102480000C1383C
:10E7EA00E4F53CF53DF543F544F54CF54DF551F5A9
:10E7FA0052C22DC23D78ADF608F678B1F608F6F5A4
:10E80A004AF54BF555C224C208C221C219900A9B87
:10E81A00F0C219900A8FF0C21FC24BC244C234D24E
:10E82A002C900A89F0C21B900AB3F0900AB5F090B6
:08E83A000AB2F0900AB4F022CA
:10CEEA009009C2E0FFE4D39F5009EF94035004E491
:10CEFA00F541227404D39F5009EF940750047541F9
:10CF0A0001227408D39F5009EF940B500475410213
:10CF1A0022740CD39F5009EF940F500475410322D9
:10CF2A007410D39F5009EF9413500475410422746E
:10CF3A0014D39F5009EF941B500475410522741CA9
:10CF4A00D39F5009EF94235004754106227434D3B9
:10CF5A009F5009EF943B5004754107227424D39FD4
:10CF6A005009EF942B500475410822742CD39F501A
:10CF7A0009EF9433500475410922743CD39F500839
:09CF8A00EF9443500375410A22A3
:069B6700C14EC14FC150C8
:1053BB00E4F55AE53AC3940C50030259A39009C281
:1053CB00E0FF7407C39F5009EFC3941450030259B5
:1053DB00A33024030259A3E53060030259A3A24E64
:1053EB0030B401B350247D077F5012EF67C22DC23A
:1053FB003D74FFF54CF54DF54CF54DE478ADF608E5
:10540B00F678B1F608F6F54AF54BA2B4924E900F2A
:10541B0040E0A2E49253A2E59254A24F305301B361
:10542B0050028008A250305401B350317D077F5099
:10543B0012EF67C22DC23D74FFF54CF54DF54CF5DF
:10544B004DE478ADF608F678B1F608F6F54AF54B6B
:10545B00900F40E0A2E4924FA2E5925022900F40B1
:10546B00E030E307900F41E030E720E4F54AF54BDD
:10547B0078AE06E618700106C378AEE694FF18E620
:10548B0094FF400D76FF0876FE8006E478ADF608B3
:10549B00F6900F40E030E207900F43E030E720E456
:1054AB00F54AF54B78B206E618700106C378B2E6FA
:1054BB0094FF18E694FF400D76FF0876FE8006E415
:1054CB0078B1F608F678B2E664011846600978AE52
:1054DB00E6640118467050300C07E4FD7F9A12EF1A
:1054EB0067203703303211C237E4F5507535061299
:1054FB0064AA900FD17402F0E53464356009E53588
:10550B006417600330441175350612BA8D900FD1B4
:10551B007402F0E4F535F534E4900F29F012FC1326
:10552B007D077F5012EF6778B1E6FE08E6FFC39464
:10553B0096EE9400500FC378AEE6949618E694005E
:10554B0050030255F6302D030259A3303D03025987
:10555B00A3C378AEE6949618E694004002D22DC30E
:10556B00EF9496EE94004002D23DE4F53CF53DF508
:10557B0043F544F54CF54DF551F5529009C2E0FF5A
:10558B0012461B55A70055A70255A71455A716552C
:10559B00A71C55A71E55A734000059A3E4F54EF5DB
:1055AB004F78B7A607E6FD9009EDF07F2D7E01122F
:1055BB00F1639009C27402F0E4F5417D027F027E33
:1055CB000112F16330B411E53A641A6016E53AB48E
:1055DB001902800F753A1D22E53A641A6005E53A07
:1055EB00B41904753A1B22753A1C22D3E54B941E51
:1055FB00E54A9400400302571FE4F53CF53DF543A3
:10560B00F544900F41E0543FFE900F42E02401FD22
:10561B00E4334EFEEDFBAA06E4F9F8FF7E887D131A
:10562B00FC12EE908E3C8F3D900F43E0540FFE909A
:10563B000F44E0FDEDFBAA06E4F9F87F687E897D57
:10564B0009FC12EE908E438F44C3E509953DFFE5AF
:10565B0008953CFE12FE9AD3EF9405EE648094807D
:10566B005023C3E50B9544FFE50A9543FE12FE9AC2
:10567B00D3EF9405EE64809480500A054BE54B7094
:10568B0035054A8031E4F54AF54B7D077F5012EF23
:10569B0067C228900FD17402F0C22DC23D74FFF582
:1056AB004CF54DF54CF54DE478ADF608F678B1F6C2
:1056BB0008F6F54AF54B853C08853D0985430A8577
:1056CB00440BE53A641A600FE53A64196009E53A50
:1056DB00641C60030259A3E53A641C6005E53AB407
:1056EB001908754E00754F64800AE53AB41A05E443
:1056FB00F54EF54F753A1B9009EDE078B7F6E6FDE0
:10570B009009C2F07F2D7E0112F163C228C213C231
:10571B0008C23422E4F54AF54BC22DC23DC3E53D28
:10572B00954DFFE53C954CFE12FE9AC3EF940AEEA5
:10573B0064809480501CC3E5449552FFE54395511A
:10574B00FE12FE9AC3EF940AEE648094805003021B
:10575B0059A3853C4C853D4D854351854452900F53
:10576B00327401F09009C2E0FFE4D39F5005EF942F
:10577B0003401C7414D39F5005EF942340117434D1
:10578B00D39F40030259A3EF943B40030259A3E478
:10579B00F55A120006E55AC39F40030258DE75F016
:1057AB0010E55A9076E31245E1C3740193953DFFE2
:1057BB00E493953CFE12FE9AD3EF9405EE6480942D
:1057CB008040030258D975F010E55A9076E51245E2
:1057DB00E1C37401939544FFE4939543FE12FE9A43
:1057EB00D3EF9405EE6480948040030258D975F092
:1057FB0010E55A9076ED1245E1D37401939400E4D1
:10580B0093940540030258E675F010E55A9076EF35
:10581B001245E1D37401939400E493940340030283
:10582B0058E67535067D077F5012EF67E4900F3E03
:10583B00F0900F23F0E55A600464017023900F4041
:10584B00E0FF5420F46019EF30E415055A055A9027
:10585B0009EBE024FF92303030067404255AF55AD8
:10586B00855A5575F010E55A9076ED1245E1E493A3
:10587B00FE740193FF786CEEF608EFF675F010E509
:10588B005A9076EF1245E1E493FC7401937873A67A
:10589B000408F675F010E55A9076E71245E1E493AB
:1058AB00FC740193787CA60408F6EF7003EE640594
:1058BB007021C242A2423360047F0180027F0090BC
:1058CB000AEEEFF0FD7F2E7E0012F1638005055A84
:1058DB0002579D120006EF655A70297D077F501203
:1058EB00EF67755003753429753508E4F54EF54FA0
:1058FB00753A169009C27402F0FDFF7E0112F16336
:10590B00E4F5412212F45DE55575F004A42403FF80
:10591B00E435F0FE12FF8512BB5BE55575F004A470
:10592B002402FFE435F0FE12FF85EF787D26FFE4BD
:10593B001836CF2480CF34FFFE7881F608EFF6249B
:10594B00FFFFEE34FFFE12F682753A0D754E0075B1
:10595B004F03C219E4900A81F09009C2E0FF64166C
:10596B006004EFB41E0D9009C27402F0FDFF7E01BE
:10597B0012F1639009D6E0FF5410C4540F24FF9228
:10598B000CA20CE4335401C454F0FEEF540F2EF070
:08599B00FD7F167E0112F1638D
:0159A30022E1
:10FC9F00010002020200030303000004040000003D
:0AFCAF000004030109000607050226
:029B6D00C155E0
:109B8A00A255B39255900F10E0543F78BAF620557B
:109B9A0003029C74900F3CE020E00678B9760880B6
:109BAA002DE53AC39405401D78BAE61313543FF6DF
:109BBA00E690FC9F9390FCAF9378B9F6701078A367
:109BCA00F608F68009E478A3F608F678B9F6900A5A
:109BDA00B4E0FF78B9E6FE6F600CEEF0E478A3F625
:109BEA0008F6C249807DEE607A78A406E61870010C
:109BFA000678A3E6FE08E6FF640A4E700578B9E621
:109C0A00F55478B9E6FD64036004EDB4041FC3EFAC
:109C1A00940AEE9400401678A4E6646918467032F5
:109C2A00F608766478B9E6F554D249802578B9E61B
:109C3A00B4011FC378A4E694F418E694014013E52E
:109C4A003A9405400DE4F608F6755408D233D24C1E
:109C5A00C21CC378A4E694FE18E694FF400576FF7A
:109C6A000876FE900F107482F022E53AC3940540FC
:109C7A001D78BAE61313543FF6E690FC9F9390FCC6
:109C8A00B49378B8F67010789FF608F68009E478ED
:109C9A009FF608F678B8F6900AB2E0FF78B8E6FEC2
:109CAA006F600CEEF0E4789FF608F6C249807AEE0F
:109CBA00607778A006E618700106789FE6FE08E647
:109CCA00FF640A4E700578B8E6F55478B8E6FD6484
:109CDA00056004EDB4061EEF64694E7018C378A0DF
:109CEA00E6940A18E69400400C760008766478B880
:109CFA00E6F554D24978B8E6B4021DE53AC39405AC
:109D0A00401678A0E694F418E69401400BE4F608AD
:109D1A00F6F554D23C78B8F6C378A0E694FE18E675
:0F9D2A0094FF400576FF0876FE900F107481F0CD
:019D39002207
:10FD5300900F0974AAF0900F0774D0F0900F0474F9
:08FD6300FEF0E4F519D2AA221A
:108DC500E4900F18F0900F107483F0E4900F2FF0DB
:108DD500900F2B7481F0900F2C74A3F0900F2D74CD
:108DE500FCF0900F2E74E0F0E4900F30F0900F310E
:108DF500F0900F32F0900F33F0900F34F0900F3564
:108E0500F0900F36F0900F37F0900F38F0900F3943
:108E1500F0900F3AF0900F3BF0900F3EF0900F3F1F
:108E2500F0900F407480F0E4900F42F0900F43F003
:108E3500900F3304F0E4900F2AF0900F3404F0E41F
:108E4500900F3EF0900F23F0F0D29300D2920000E5
:108E5500900F32F0900F29F012FC13900F3574012A
:108E6500F0E4FFFE12FD077F0212FB9C7D0F7C00E4
:108E75007F9812EDC0EF54FDFB7D0F7F9812F5F43E
:108E8500C2B5E4900F21F0900F0974AAF0900F0776
:108E950074D0F0900F0474DEF0D2AA758A77758CC1
:108EA500EC758911D2A9D28CD2A8D288758D377567
:108EB5008921D2ABD28ED2AFE4F559E4FDAF591278
:108EC500FA770559E559C394FF40F07F007E0112FA
:108ED500FF85BF540C7F287E0112FF85EF64186063
:108EE5000812E05E12BC28802EE4F559900958E07E
:108EF500FFE559C39F501CE42559FFE43401FE12D8
:108F0500FF8574C02559F582E43409F583EFF00532
:108F15005980D9C220C22212EC0A7401FFFE12FF49
:108F2500858F59E559B455057554088003E4F55402
:108F350012CEEA12FD53301DFDC225C21DE54F4577
:108F45004E6008E54F154F7002154EE5406002155D
:108F550040E54645456008E546154670021545E578
:108F65003060021530900AB6E0600214F0900AB342
:108F7500E0600214F0900A9DE0600214F0900A8708
:108F8500E0600214F09009E3E0602EE52F24FFF580
:108F95002FE52E34FFF52EE52D34FFF52DE52C3488
:108FA500FFF52CE4FFFEFDFCAB2FAA2EA92DA82C66
:108FB500C31245177003755408900A9CE0600214AB
:108FC500F01253BB129B8A125F8B12A07F1219CE2F
:108FD500303C0312FD831264AA120DB2128B4E129D
:108FE50072B7122EF2900A85E07002A3E0700312A8
:0A8FF500D70212DDFCD225028F3BEB
:10DDFC0030387BC2387F407E0112FF858F5AE55A3E
:10DE0C00C39405500BE55A04FD7F407E0102F1637B
:10DE1C00E4FD7F407E0112F163755C01755B01E5E9
:10DE2C005B2440FFE43401FE12FF858F5AE55A252E
:10DE3C005CFFE433FEC3EF940AEE64809480E55BF0
:10DE4C0050142440FFE43401FEE55A255CFD12F128
:10DE5C0063E4F55C800F2440FFE43401FEE4FD1222
:0EDE6C00F163755C01055BE55BC3940640B194
:01DE7A002285
:0AFF8500AD07AC067FA012EDC0220C
:0AFF8F00EFFD7C007F9812EDC02208
:06F16300AB07AA06A90596
:10F16900AF02EF25E054FE44A0FEEBFFE55825E091
:10F179002400F582E43409F583EEF0A3EFF07480FE
:10F189002558F582E43409F583E9F00558E558D3A3
:07F19900943F4003E4F55828
:01F1A000224C
:10E05E007F407E0112FF85EFD3940650417F417EB3
:10E06E000112FF85EFD3940A50347F427E0112FFD6
:10E07E0085EFD3940A50277F437E0112FF85EFD39D
:10E08E00940A501A7F447E0112FF85EFD3940A50F2
:10E09E000D7F457E0112FF85EFD3940A40267F4007
:10E0AE0012FB1EE4FF12EFDEE4FF12EFDEE4FF12BE
:10E0BE00EFDEE4FF12EFDEE4FF12EFDEE4FF12EF1D
:05E0CE00DE12FEEE224F
:10A07F00781606900A9FE0700CE675F00384E5F001
:10A08F00600302A211E55865386046E4F55AE538D9
:10A09F0025E02400F582E43409F583E0FCA3E0FD1C
:10A0AF00ECFF74802538F582E43409F583E0FB1268
:10A0BF00F5F40538E538D3943F4003E4F538E55817
:10A0CF006538700302A211055AE55AC3940140BEC8
:10A0DF002220200302A20C7817E6FF1313543F75BA
:10A0EF00F010A485F05BF55C755C00535B07E55BD6
:10A0FF00F55C755B00120006EF14F55A120006EFBF
:10A10F0014FF7817E6C39F4008E4F6C220D222F668
:10A11F0022E55C25E0FFE55B33EF44A0FF12FB1E59
:10A12F007817E61313543FC454F0FF12EFDE7F800D
:10A13F0012EFDE7817E675F0109076EB1245E1E43A
:10A14F00740193FF12EFDE7F8012EFDE7817E67552
:10A15F00F0109076E21245E1E493FF12EFDE7817EC
:10A16F00067F8012EFDE7817E675F0109076EB120F
:10A17F0045E1E4740193FF12EFDE7F8012EFDE788A
:10A18F0017E675F0109076E21245E1E493FF12EFB7
:10A19F00DE7817067F8012EFDE7817E675F01090E5
:10A1AF0076EB1245E1E4740193FF12EFDE7F80122C
:10A1BF00EFDE7817E675F0109076E21245E1E49342
:10A1CF00FF12EFDE7817067F8012EFDE7817E67545
:10A1DF00F0109076EB1245E1E4740193FF12EFDE7D
:10A1EF007F8012EFDE7817E675F0109076E2124559
:10A1FF00E1E493FF12EFDE78170602FEEE30220243
:02A20F00C22269
:01A21100222A
:049B6F00C151C152CD
:1019CE00E54F454E600302246EE53A12461B1A2B74
:1019DE00051A6F061A81071AEB081AF7091B250A52
:1019EE001B320B1B8A0C1BB20D1BCD0E21830F223B
:1019FE00271022A31123FF1522DD1622C41722F170
:101A0E0018241C1924421A245F1B236C1C236C1DE2
:101A1E00230A1E23531F2361200000246E900F32D1
:101A2E007401F0C251E4900F2AF0C22DC23D74FF32
:101A3E00F54CF54DF54CF54DE478ADF608F678B16C
:101A4E00F608F6F54AF54BC2B5202003302206758E
:101A5E003A0602246E754E00754F0A753A07022437
:101A6E006E30200302246E30220302246E753A0774
:101A7E0002246812CEEAE541C394024008E4900FB6
:101A8E0029F012FC13E54164016011E54164086020
:101A9E000BE54164096005E541B40A1A7D0F7C002F
:101AAE007F9812EDC0EF54FDFB7D0F7F9812F5F479
:101ABE000075300A80157D0F7C007F9812EDC0EF07
:101ACE004402FB7D0F7F9812F5F400E4900F33F083
:101ADE00D2B5F54E754F0A753A0802246E754E0052
:101AEE00754F02753A0902246E900F337401F07D22
:101AFE0055FFFE12F163754E00754F0512F5C412B7
:101B0E00FECE12DBF97D077F5012EF67E4900F34A3
:101B1E00F0753A0A02246E00754E00754F05753A3F
:101B2E000B02246E7F057E0112FF859009C5EFF032
:101B3E00FCE41241E97B337A3379237840123FCCAF
:101B4E00A804A905AA06AB07E4FFFE7D7F7C43121D
:101B5E003ED712421D900F23EFF0A213B034500D5A
:101B6E0012F70ED234300C0312B9B7C213753510FA
:101B7E00754E00754F05753A0C02246E2052030205
:101B8E00246EC22DC23D74FFF54CF54DF54CF54D4E
:101B9E00E478ADF608F678B1F608F6F54AF54BC2DC
:101BAE005202246EE4900F3EF0900F23F075351024
:101BBE0012CD95754E00754F64753A0E02246E1255
:101BCE00CEEA7F057E0112FF859009C5EFF0E54153
:101BDE0024FE24FD4003021D637003021D80147059
:101BEE0003021D80147003021EF0240760030220FE
:101BFE00659009C5E0FCE41241E97B337A33792321
:101C0E007840123FCCA804A905AA06AB07E4FFFE54
:101C1E007D7F7C43123ED712421D900F23EFF09032
:101C2E0009C7E0FCE41241E97BB87A1E79C5783F1A
:101C3E00123FCCA804A905AA06AB07E4FFFE7D7FE0
:101C4E007C43123ED7E4FBFAF978431241729009B5
:101C5E00C760054003021CEBE0FCE41241E97BB8CF
:101C6E007A1E79C5783F123FCCA804A905AA06AB07
:101C7E0007E4FFFE7D7F7C43123ED712421DAD0767
:101C8E007F6212EF679009C7E0FCE41241E97BB86E
:101C9E007A1E79C5783F123FCCA804A905AA06ABD7
:101CAE0007E4FFFE7D7F7C43123ED712421DAD0737
:101CBE007F6312EF679009C7E0FCE41241E97BB83D
:101CCE007A1E79C5783F123FCCA804A905AA06ABA7
:101CDE0007E4FFFE7D7F7C43123ED7806BE0FCE481
:101CEE001241E97BB87A1E79C5783F123FCCE4FBEE
:101CFE00FA79FE78C2123EDB12421DAD077F6212E8
:101D0E00EF679009C7E0FCE41241E97BB87A1E79CF
:101D1E00C5783F123FCCE4FBFA79FE78C2123EDB67
:101D2E0012421DAD077F6312EF679009C7E0FCE416
:101D3E001241E97BB87A1E79C5783F123FCCE4FB9D
:101D4E00FA79FE78C2123EDB12421DAD077F641295
:101D5E00EF67021EE1E4900F23F07D327F6212EFF7
:101D6E00677D327F6312EF677D327F6412EF670209
:101D7E001EE19009C5E0FCE41241E97B337A337928
:101D8E00237840123FCCA804A905AA06AB07E4FFAE
:101D9E00FE7D7F7C43123ED712421D900F23EFF043
:101DAE009009C7E0FCE41241E97BB87A1E79C57848
:101DBE003F123FCCA804A905AA06AB07E4FFFE7D9F
:101DCE007F7C43123ED7E4FBFAF9784312417290BE
:101DDE0009C760054003021E6CE0FCE41241E97B7A
:101DEE00B87A1E79C5783F123FCCA804A905AA0679
:101DFE00AB07E4FFFE7D7F7C43123ED712421DAD42
:101E0E00077F6212EF679009C7E0FCE41241E97B9D
:101E1E00B87A1E79C5783F123FCCA804A905AA0648
:101E2E00AB07E4FFFE7D7F7C43123ED712421DAD11
:101E3E00077F6312EF679009C7E0FCE41241E97B6C
:101E4E00B87A1E79C5783F123FCCA804A905AA0618
:101E5E00AB07E4FFFE7D7F7C43123ED7806BE0FC38
:101E6E00E41241E97BB87A1E79C5783F123FCCE483
:101E7E00FBFA79FE78C2123EDB12421DAD077F627D
:101E8E0012EF679009C7E0FCE41241E97BB87A1EB5
:101E9E0079C5783F123FCCE4FBFA79FE78C2123E48
:101EAE00DB12421DAD077F6312EF679009C7E0FC9E
:101EBE00E41241E97BB87A1E79C5783F123FCCE433
:101ECE00FBFA79FE78C2123EDB12421DAD077F642B
:101EDE0012EF679009DFE04480FD7F6B12EF67021F
:101EEE0020659009C5E0FCE41241E97B337A337931
:101EFE00237840123FCCA804A905AA06AB07E4FF3D
:101F0E00FE7D7F7C43123ED712421D900F23EFF0D1
:101F1E009009C7E0FCE41241E97BB87A1E79C578D6
:101F2E003F123FCCA804A905AA06AB07E4FFFE7D2D
:101F3E007F7C43123ED7E4FBFAF97843124172904C
:101F4E0009C760054003021FDCE0FCE41241E97B97
:101F5E00B87A1E79C5783F123FCCA804A905AA0607
:101F6E00AB07E4FFFE7D7F7C43123ED712421DADD0
:101F7E00077F6212EF679009C7E0FCE41241E97B2C
:101F8E00B87A1E79C5783F123FCCA804A905AA06D7
:101F9E00AB07E4FFFE7D7F7C43123ED712421DADA0
:101FAE00077F6312EF679009C7E0FCE41241E97BFB
:101FBE00B87A1E79C5783F123FCCA804A905AA06A7
:101FCE00AB07E4FFFE7D7F7C43123ED7806BE0FCC7
:101FDE00E41241E97BB87A1E79C5783F123FCCE412
:101FEE00FBFA79FE78C2123EDB12421DAD077F620C
:101FFE0012EF679009C7E0FCE41241E97BB87A1E44
:10200E0079C5783F123FCCE4FBFA79FE78C2123ED6
:10201E00DB12421DAD077F6312EF679009C7E0FC2C
:10202E00E41241E97BB87A1E79C5783F123FCCE4C1
:10203E00FBFA79FE78C2123EDB12421DAD077F64B9
:10204E0012EF679009DFE04480FD7F6B12EF67E4CB
:10205E00900AB8F07542019009C9E070087B7F7D47
:10206E007F7F72800D9009C9E0B401127B727D7F73
:10207E007F7F12F9717B327D327F320221269009E9
:10208E00CAE0FCE41241E97B337A337923784012BB
:10209E003FCCA804A905AA06AB07E4FFFE7D7F7C12
:1020AE0043123ED712421DC0079009CBE0FCE4124A
:1020BE0041E97B337A3379237840123FCCA804A9C7
:1020CE0005AA06AB07E4FFFE7D7F7C43123ED712C6
:1020DE00421DAD07C0059009CCE0FCE41241E97B3E
:1020EE00337A3379237840123FCCA804A905AA0687
:1020FE00AB07E4FFFE7D7F7C43123ED712421DAB41
:10210E0007D005D00712FB5E9009E0E0FEC37464B1
:10211E009EFDFFC374649EFB12F971E55575F004C4
:10212E00A4FFAEF012FF85900A8CEFF0E55575F026
:10213E0004A42401FFE435F0FE12FF85900A94EF0B
:10214E00F0E55575F004A42402FFE435F0FE12FF0D
:10215E008578B4A607E55575F004A42403FFE4358D
:10216E00F0FE12FF8578B6A607754E00754F057501
:10217E003A0F02246E900F327401F09009C2E0FF04
:10218E006416600EEF641E6009EF64266004EFB4FF
:10219E002E097B017D807F9A12DA6A7550017535A2
:1021AE001312CEEAE54112461B21D30021D801219C
:1021BE00DD0221E20321ED0421FE05220606220E98
:1021CE00070000221A75341E803C75341F80377547
:1021DE0034218003753422754E00754F64802D7541
:1021EE00501175342375350E754E00754F96801C43
:1021FE0075501375342F800E75501375343080065C
:10220E00755013753431754E00754F287D037F5010
:10221E0012EF67753A1002246E12CEEAE5411246AD
:10222E001B225400225401225F02225F03227004FB
:10223E00225F05225F06227007225F08225F0922B5
:10224E00700A0000227B900F357401F0E4FFFE80CF
:10225E000A900F357401F07F007E0212FD077F0297
:10226E008008900F357401F0E4FF12FB9C12E679A2
:10227E00204416E4900F21F074FFF07F1E12FFB77A
:10228E00900F297401F012000E754E00754F0175F6
:10229E003A1102246E204C0302246E3033030224C2
:1022AE006E12FF0CC24CE49009ECF0FD7F2C7E0107
:1022BE0012F16302246E12E679900F327401F0D29D
:1022CE0013C234753A1C754E03754FE802246E1214
:1022DE00E679900F327401F0753A18754E00F54F8D
:1022EE0002246EA251B39251305108E4900F32F095
:1022FE00022457900F327401F0022457900F357458
:10230E0001F0E4FFFE12FD077F0212FB9CE4900F2A
:10231E0029F012FC1312F5C47D077F5012EF67757A
:10232E00500112CEEAE54124FD60080470087534B0
:10233E00218003753422753513753A1F754E00755D
:10234E004F1E02246E12E679753A20E4F54EF54FD3
:10235E0002246EE4900F29F012FC1302246EE49016
:10236E000F29F012FC137D077F5012EF67E4900FD8
:10237E003EF0900F23F07D0FFC7F9812EDC0EF54CE
:10238E00FDFB7D0F7F9812F5F412F5C47D077F508B
:10239E0012EF67755003753508E53AB41C45900980
:1023AE00C2E012461B23E40023E40223E90423E9DE
:1023BE000623E41423E41623E41C23E41E23E92459
:1023CE0023E92623E92C23E92E23E43423E43623C0
:1023DE00E93C000023EC7534268003753427753AEA
:1023EE00158006753A1775342D754E00754F0180A0
:1023FE006F12E679E4900F29F012FC13900F3274ED
:10240E0001F0753A19C234F54E754F2C8052753560
:10241E0006E4900F29F012FC13E4900F3EF0900F9B
:10242E0023F0900F3404F0900F2AF0D213C23475BB
:10243E003A1A8015A251B39251305107E4900F32DF
:10244E00F08006900F327401F0754E00754FC88003
:10245E000FC22DC23DD252753A05754E00754F050D
:10246E00E5406003022527E53324FA603414604505
:10247E0014604E14607014607B24056003022527DF
:10248E00E4900F32F0753510900F29F012FC13E422
:10249E00900F3EF0900F23F0FD04FFFE12F16380CB
:1024AE000EE4900F23F0900F29F012FC13C2B575B5
:1024BE004002053322900F347401F0754005053348
:1024CE0022007D0F7C007F9812EDC0EF54FDFB7D46
:1024DE000F7F9812F5F4900F2A7401F00012E7EABC
:1024EE0012CEEA053322303330754058C23375337D
:1024FE000A02BC28E4F533F540C22DC23D74FFF547
:10250E004CF54DF54CF54DE478ADF608F678B1F690
:09251E0008F6F54AF54B75540866
:012527002291
:06E67900900F3E7401F059
:10E67F00E4F55A9009C5E0FCE41241E97B337A33A3
:10E68F0079237840123FCCA804A905AA06AB07E46A
:10E69F00FFFE7D7F7C43123ED7C004C005C006C07D
:10E6AF0007AC5AE41241E9A804A905AA06AB07D0A2
:10E6BF0007D006D005D004124172500A900F23E5FF
:06E6CF005AF0055A80AD6F
:01E6D5002222
:1076E20006013B02BD0320006F003A0280015E05E5
:1076F20006017B03530340004E00370280015E0502
:1077020006013B02BD0320006F00280280019005A4
:1077120006017B03530340008E002702800190057F
:1077220006013702ED0320005A001E028001900577
:1077320006016003110320007A00200280019005F7
:1077420006013B02BD03820081003202D00190009B
:107752000A017B035203A6008E002802D00190008A
:1077620015013B02580320006A001E028001E0045A
:1077720019015E029B0340007E001A028001E005AF
:1077820006015D02BB0340007B0013028001E0059D
:1077920019017A02D803400081001A028001E00533
:1077A20019017702EE03480091000E028001E00504
:1077B2001301B1035203400062002B028001E0007A
:1077C2000601600232040000A200130320025803E3
:1077D20006017B0258042000B20016032002580062
:1077E2000901BE02BD041000A100130320025800CB
:1077F2000601E102D2041000920018032002580090
:107802000601D502EE042000CA001303200258002C
:107812001902190353041800B10019032002580574
:107822001101E4025B05400100001E040003000692
:107832000A023502BD053000F0001E0400030005F7
:1078420003023F02CB055000EE001B0400030005BB
:107852000D025802EE052000E8001A04000300059C
:107862001F02AF0352056001070022040003000556
:1078720006021A025705F001130020048003600576
:1078820006027502BB0600010E002204800360039B
:1078920006028902D0060801400024048003600524
:1078A2001402A302EE06400157001E04800360008A
:1078B2000603030352061001180026048003600524
:1078C2001401DD02570680011600160500030003AD
:1078D20014025802580708017F0022050003C00362
:1078E2000602BB02BA06C0016C0026050003C000F6
:1078F2000602D102D006C001800028050003C000A4
:107902000602EF02EE06C001400028050003C00097
:1079120013035C035206C00156002D050003C0008C
:1079220014028002580698013F0024050004000159
:107932000602ED02BA06C001370025050004000167
:1079420006030002D0069801370025050004000155
:107952001E032002EE0698015E00240500040001C9
:1079620006015E029A036000A0002A028001E0057F
:107972000601F102E904800120002A034002700599
:107982000602AE02EE05B00110002A04800366056D
:107992000602AE02EE05B00110002A04800366055D
:1079A20006015E02BC03300090001E028001E00569
:1079B2000601B502BC041000C600190320025803D8
:1079C20006024102D00552011800200400030005FE
:1079D2000601BF02570684014A001E050002D005B7
:1079E20006020D02BB069E0154001E050002D005D0
:1079F20006021D02D006A2014E001E050002D0059D
:107A020006023402EE06EE0183001F050002D005D5
:107A120006030102D006C40162002B050004000324
:107A220006017B02BC02FB006C0034028001E0050F
:107A320006024102D0054E01160020040003000593
:107A420006016301B304F000E80030040003000300
:107A520006018A02EE032000900022028001E00368
:107A6200060136025803E800400022035001E005F7
:107A72000601CB03750440008C001A035001E00597
:107A820006016301B304F000E800300400017C0544
:107A9200060282035206B0013A001F050002D00519
:107AA2000601F203640660011C002B0500040005B8
:107AB200020001800190012C014000F0020001202F
:087AC200019000E1014000B455
:030006007F3D2219
:10FA7700EFC39480500FEF25E02400F582E43408AB
:10FA8700F583EDF02275F002EF9007011245E1EDE5
:02FA9700F0225B
:10FA0B00EFC394805010EF25E02400F582E4340816
:10FA1B00F583E0FE800C75F002EF9007011245E1D3
:04FA2B00E0FEAF0644
:01FA2F0022B4
:04F65300C454F0FFAC
:10F657008F20A207929100C29200D292A2069291A5
:10F6670000C29200D292A205929100C29200D29259
:0BF67700A204929100C29200D29222E5
:0DEF5A00E4900F3EF0900F23F07D077F50F4
:10EF67008F6A8D6BC29312FE3F7FC012F657AF6A4E
:10EF770012F657E56A12F653E4FF12F657AF6B1213
:10EF8700F657E56B12F65312FE3FD293D295AD6B4F
:05EF9700AF6A02FA77E9
:10D03B008F67C29312FE3FD29100C29200D292C26E
:10D04B009100C29200D292C29100C29200D292C2BF
:10D05B009100C29200D292AF6712F657E56712F6B3
:10D06B0053C29200A2909207D292C29200A29092C7
:10D07B0006D292C29200A2909205D292C29200A2C4
:10D08B00909204D292C29200A2909207D292C29234
:10D09B0000A2909206D292C29200A2909205D292D6
:10D0AB00C29200A2909204D292C29200A2909203DA
:10D0BB00D292C29200A2909202D292C29200A290FD
:10D0CB009201D292C29200A2909200D29212FE3F93
:05D0DB00D293AF2022FA
:10FDDC00AE077F1012F657AF0612F657EEC454F06A
:04FDEC00FF02F657C5
:10FDF000AE07E4FF12F657AF0612F657EEC454F002
:04FE0000FF02F657B0
:06DA6400E4FB7D047F8E4F
:04DA6A00AC05AA0756
:10DA6E0012FA0BAD07EB603AEC30E703430580EC9E
:10DA7E0030E603430540EC30E503430520EC30E48B
:10DA8E0003430510EC30E303430508EC30E2034397
:10DA9E000504EC30E103430502EC30E03D430501A3
:10DAAE008038EC30E70353057FEC30E6035305BFB7
:10DABE00EC30E5035305DFEC30E4035305EFEC30B7
:10DACE00E3035305F7EC30E2035305FBEC30E103BF
:0FDADE005305FDEC30E0035305FEAF0202EF6786
:06FC69007D0E7C007FA26D
:10FC6F008F678C688D69E568FD12EF67E56704FFA4
:05FC7F00AD6902EF6712
:10E89A009009C2E0FF1259A49009C2E0FF12B649DA
:10E8AA009009C2E0FF12E29A9009C2E0FF12D5D3A2
:10E8BA009009C2E0FF12C5DF9009C2E0FF12DAED4B
:10E8CA009009C2E0FF129EE29009C2E0FF12C74D12
:10E8DA009009C2E0FF12FABB9009C2E0FF12F020D1
:07E8EA007D037F5002EF6780
:10922A00203F030293337B017D087FAA12DA6A7B0F
:10923A00017D207F2512DA6A9009C2E0FF24F260DC
:10924A000824FC600424087000EF12461B927F0871
:10925A00927F0A927F0C927F0E927F10927F1292D7
:10926A00811492811C92812492812C928134928160
:10927A003C000092A580249009D4E05403146009AC
:10928A001460062402701480007DAC7C027FA01258
:10929A00FC6F7D197C017FA612FC6F9009C2E01257
:1092AA00461B92D40892D40A92D40C92D40E92D429
:1092BA001092D41292E81492E81C92E82492E82CB4
:1092CA0092E83492E83C000092F19009EAE01460D6
:1092DA00091460082402700F8004800280007D3621
:1092EA007C007F9E12FC6F9009C2E012461B9320FD
:1092FA000893200A93200C93200E93201093201297
:10930A0093221493221C93222493222C9322349383
:10931A00223C0000933080007D1212FC6B7D127C8F
:10932A00007FA412FC6F0294219009C2E0FF24F28C
:10933A00600824FC600424087000EF12461B937036
:10934A000893700A93700C93700E937010937012B6
:10935A0093721493721C93722493722C93723493A3
:10936A00723C0000939880269009D4E0540314605C
:10937A000914600824027016800280007DAC7C0209
:10938A007FA012FC6F7DFB7C007FA612FC6F900908
:10939A00C2E012461B93C70893C70A93C70C93C728
:1093AA000E93C71093C71293DB1493DB1C93DB2431
:1093BA0093DB2C93DB3493DB3C000093E49009EAC3
:1093CA00E01460091460082402700F80048002808F
:1093DA00007D387C007F9E12FC6F9009C2E0124625
:1093EA001B94130894130A94130C94130E941310D9
:1093FA0094131294151494151C94152494152C94F2
:10940A00153494153C00009421800012FC697D0EED
:10941A007C007FA412FC6FE4FB7D087FAA12DA6A43
:01942A00221F
:10E43200E4900F29F012FC1312EF5AE4F5417535FE
:10E4420006C22DC23D74FFF54CF54DF54CF54DE479
:10E4520078ADF608F678B1F608F6F54AF54B7D0F79
:10E46200FC7F9812EDC0EF4402FB7D0F7F9812F5FE
:10E47200F400900F357401F0E4FFFE12FD077F02F5
:10E4820012FB9C75300A9009C27402F0FDFF7E01F6
:03E4920002F16331
:10F21C00E4900F29F012FC1312EF5A754102753568
:10F22C00069009C2740AF0C208FD7F027E0112F139
:10F23C0063753A07754E00754F0A900F357401F0DF
:0CF24C007F007E0212FD077F0202FB9C87
:10F25800E4900F29F012FC1312EF5A75410375352B
:10F26800069009C2740EF0C208FD7F027E0112F1F9
:10F2780063753A07754E00754F0A900F357401F0A3
:0CF288007F007E0212FD077F0202FB9C4B
:10EF9C00E4900F29F012FC1312EF5A7541047535E9
:10EFAC00067D0F7C007F9812EDC0EF54FDFB7D0FAA
:10EFBC007F9812F5F4009009C27412F0C208900FF9
:10EFCC00357401F0E4FF12FB9C7D127F027E01027E
:02EFDC00F163DF
:10EC9E00E4900F29F012FC1312DA64900A9C742887
:10ECAE00F0754107E4900AB8F07542019009C274FC
:10ECBE0034F0C208FD7F027E0112F163D20E12E81B
:10ECCE009A755001753513900F357401F0E4FF12EB
:09ECDE00FB9C75501375343122C2
:10EA3D00E4900F29F012FC1312DA64900A9C7428EA
:10EA4D00F07541059009C27414F0C208FD7F027E75
:10EA5D000112F163D20E12E89A75500175351390BB
:10EA6D000F357401F07F007E0212FD077F0212FB4D
:0EEA7D009C20440312000E75501375342F2296
:10EA8B00E4900F29F012FC1312DA64900A9C74289C
:10EA9B00F07541069009C2741CF0C208FD7F027E1E
:10EAAB000112F163D20E12E89A755001753513906D
:10EABB000F357401F07F007E0212FD077F0212FBFF
:0EEACB009C20440312000E7550137534302247
:10F798007404D39F5005EF940740167424D39F50E8
:10F7A80005EF9433400B743CD39F5009EF944350BA
:0DF7B800047D8180027D807F7512EF672245
:10E29A00EF12461BE2C300E2C302E2E708E2E70A22
:10E2AA00E2E70CE2E70EE2E710E2E712E2C314E269
:10E2BA00C31CE2C3340000E3007B017D01E4FF12CA
:10E2CA00DA6AE4FB7D107F0112DA6A75F010E5550F
:10E2DA009076F11245E1E4934438FD80147B017D88
:10E2EA0001E4FF12DA6A7B017D107F0112DA6A7D8E
:07E2FA001C7F2512EF6722D3
:10B64900EF12461BB67202B67206B6AA0AB6AA0E5F
:10B65900B6AA12B6E614B6E61CB6E624B6E62CB6C9
:10B66900E634B6E63C0000B72A788D12454E7801DB
:10B67900124528C004C005C006C007787812454E97
:10B68900780412453BD003D002D001D00012446A9D
:10B699008F5DC37440955DF55D5403703A055D8017
:10B6A90036788D12454E7801124528C004C005C070
:10B6B90006C007786F12454E780412453BD003D077
:10B6C90002D001D00012446A8F5DC37440955DF5C4
:10B6D9005D54037002055DAD5D7F2E8041788D124A
:10B6E900454E7801124528C004C005C006C0077838
:10B6F9007812454E780412453BD003D002D001D0D0
:10B709000012446A8F5DC37440955DF55D54037002
:10B7190002055DAD5D7F2E12EF677D3E7F9412EFCE
:01B7290067B8
:01B72A0022FC
:10FABB00EF24FA601024FC600C24FC600824FC602A
:10FACB0004241070047D098002E4FD7F5D12EF6752
:01FADB002208
:10C74D00EF12461BC77602C77606C7A40AC7A40E0A
:10C75D00C7A412C7C814C7C81CC7C824C7C82CC7CC
:10C76D00C834C7C83C0000C802E4FD7F3012EF6733
:10C77D007DE07F9312EF67786CE6FE08E6FF7C00A4
:10C78D007D181242E47D301242F8AC06AD077F975A
:10C79D0012FC6FE4FD80197D0C7F3012EF677DE098
:10C7AD007F9312EF677D567C017F9712FC6F7D831F
:10C7BD007F9912EF67E4FD7FAA80377D0C7F3012E1
:10C7CD00EF67786CE6FE08E6FF7C007D181242E408
:10C7DD007D301242F8AC06AD077F9712FC6F7D00DD
:10C7ED007C027F9112FC6F7DED7F9312EF677D20B0
:06C7FD007F9912EF672294
:10FA54009009D5E0601514600E14600714700C7DD5
:10FA640034800A7D2480067D1480027D047F8E12FA
:03FA7400EF672217
:10F427009009D4E054031460091460112402702574
:10F437008011200F047DF880177DFC8013200F0EAC
:10F44700203F047DF88009303F0B7DF880027DFC6A
:06F457007F9A12EF67220C
:10A21200900ABD7408F0EF24E4601724F860132458
:10A22200F8600F24F8600B24F8600724286003020A
:10A23200A3929009D4E0540314602A14604D2402BE
:10A24200706F900ABDE02400FDE43402FC7FBA1274
:10A25200FC6F900ABDE0200F04248080022420FDC0
:10A26200E434018046900ABDE02490FDE43401FC10
:10A272007FBA12FC6F900ABDE0200F08242CFDE487
:10A282003401800524E1FDE4338020900ABDE024FE
:10A2920040FDE43401FC7FBA12FC6F900ABDE0205D
:10A2A2000F0424F0800224B4FDE433FC7FBE12FCD0
:10A2B2006F9009D4E0540314601D146032240270BC
:10A2C200477D007C027F8212FC6F200F047D80801C
:10A2D200027D207C01802C7D907C017F8212FC6FAC
:10A2E200200F067D2C7C0180047DE17C0080147DA2
:10A2F200407C017F8212FC6F200F047DF080027D82
:10A30200B47C007F8612FC6F12FB3E789CE6FF64F1
:10A31200196004EFB41C057F4612FFB712F427E45C
:10A32200FD7FDC12EF67E4FD7FDD12EF677D9B7F2F
:10A33200DE12EF679009C2E0FF64146009EF641C4B
:10A342006004EFB434047B018002E4FB7D807F9AD9
:10A3520012DA6A789CE6B41D0312FA549009D5E029
:10A3620014600E1460071470157B0180067B018057
:10A372000FE4FB7D207F8E12DA6A7B01800BE4FB07
:10A382007D207F8E12DA6AE4FB7D107F8E12DA6AFC
:01A3920022A8
:08EE07007DFA7C007F067E010C
:10EE0F008C678D68E4FCFDFB7A03F9F81243DFA8E9
:10EE1F0004A905AA06AB07E567C313FEE56813FF50
:10EE2F00E4FCFD1243C4C006C007AE67AF68AB0772
:0DEE3F00AA06E4F9F8D007D00612446A22B2
:109EE200E4F563F564F565F566EF12461B9F200005
:109EF2009FC8029FC8069FF5089FDC0A9FF50C9F2A
:109F0200DC0E9FF5109FDC129FC8149FC81C9FC8CF
:109F1200249FC82C9FC8349FC83C0000A07E7F6F3E
:109F220012D03BEF54077F00FEC007C0067F7012BD
:109F3200D03BEFFDD0E0F55DD0E04DF55E7873E605
:109F4200FC08E6FDAF5EAE5D12EE0F8E638F64AC71
:109F520063AD64E41241E4E4FBFAF97841123FCCC8
:109F6200C004C005C006C007AC5DAD5EE41241E4AA
:109F7200A804A905AA06AB07D007D006D005D004CD
:109F82001240D5E4FBFA79C078C0123EDB7B007A3E
:109F92008079A77844123FCC8F628E618D608C5F8E
:109FA20012421DE47B3C7A05F9F812446A8E658FF1
:109FB200667DFF7C077F3C12FC6FE5642566FDE54C
:109FC20063356502A078303F067D4A7C0680047DB9
:109FD2003C7C057F3C12FC6F8012303F067D687C22
:109FE2000680047D5A7C057F3C12FC6F7D207C0339
:109FF20002A079755D01755E0612EE078E638F64AD
:10A00200AC63AD64E41241E4E4FBFAF97841123F37
:10A01200CCC004C005C006C007AC5DAD5EE4124111
:10A02200E4A804A905AA06AB07D007D006D005D03C
:10A03200041240D5E4FBFA79C078C0123EDB7B0003
:10A042007A8079A77844123FCC8F628E618D608CC2
:10A052005F7DFF7C077F3C12FC6FAF62AE61AD603B
:10A06200AC5F12421DE47B3C7A05F9F812446AE5C2
:0CA07200642FFDE5633EFC7F4512FC6F8F
:01A07E0022BF
:10B1BE00E4F55AF55BF560F561EF12461BB1FC0044
:10B1CE00B1FC02B1FC06B29608B2960AB2960CB267
:10B1DE00960EB29610B29612B1FC14B1FC1CB1FCD4
:10B1EE0024B1FC2CB1FC34B1FC3C0000B2AF7F6F3B
:10B1FE0012D03BEF54077F00FEC007C0067F7012CF
:10B20E00D03BEFFDD0E0F55AD0E04DF55B7873E61C
:10B21E00FC08E6FDAF5BAE5A12EE0F8E608F61AC8E
:10B22E0060AD61E41241E4E4FBFAF97841123FCCDF
:10B23E00C004C005C006C007AC5AAD5BE41241E4C1
:10B24E00A804A905AA06AB07D007D006D005D004DE
:10B25E001240D5E4FBFA79C078C0123EDB7B007A4F
:10B26E008079A77844123FCC8F5F8E5E8D5D8C5CAB
:10B27E0012421DE47B3C7A05F9F812446AC374FF4E
:10B28E009BFD74079AFC800B12EE078E608F617D1A
:10B29E00987C037F4312FC6FAD61AC607F4D12FC56
:01B2AE006F30
:01B2AF00227C
:10D82A00EF12461BD86500D86501D86502D8650392
:10D83A00D86506D89908D8A80AD8990CD8A80ED8B5
:10D84A009910D8A812D86514D8651CD86524D8654B
:10D85A002CD86534D8653C0000D8BA7F6F12D03B0B
:10D86A00EF54077F00FEC007C0067F7012D03BEF5F
:10D87A00FDD0E0F55AD0E04DF55B7D017C007F0ECE
:10D88A0012FC6FE55B24FFFDE55A34FFFC801C7D2A
:10D89A00017C007F0E12FC6F7D057C01800D7D01ED
:10D8AA007C007F0E12FC6F7D147C017F1012FC6FCE
:01D8BA00224B
:0269A200AB0741
:1069A400E4F560F55FF55EF55DF564F563F562F5B4
:1069B40061EF12461B69ED0069ED0169ED0269EDB5
:1069C400066C73086CC90A6C730C6CC90E6C73107A
:1069D4006CC91269ED1469ED1C69ED2469ED2C692B
:1069E400ED3469ED3C00006E70D37874E6940018C1
:1069F400E694035079786CE6FE08E6FFE4FCFD7843
:106A04001012453BE4FB7A05F9F812446A8F608E54
:106A14005F8D5E8C5D7873E6FE08E6FFE4FCFD782E
:106A24001012453BE4FB7A03F9F812446A8F648E32
:106A3400638D628C61900AEEE060047F0180027FC6
:106A440000A242E433AE07304220786CE6FE08E64A
:106A5400FFE4FCFD781012453BE4FB7A04F9F812DC
:106A6400446A8F608E5F8D5E8C5D7D0A803A786C9F
:106A7400E6FE08E6FBAA06E4F9F8FFFEFD7C051233
:106A8400446A8F608E5F8D5E8C5D7873E6FE08E6E7
:106A9400FBAA06E4F9F8FFFEFD7C0312446A8F6446
:106AA4008E638D628C617D1A7F3B12EF67AF60AE9F
:106AB4005FAD5EAC5D7810124528AD077F3512EFEF
:106AC40067AC5FAD607F3612FC6FAF64AE63AD62DE
:106AD400AC617810124528AD077F3812EF67AC63BC
:106AE400AD647F3912FC6F900AEEE060047F018090
:106AF400027F00A242AE0730421B7D047F4112EFA9
:106B040067E4FD7F4212EF67E4FD7F3F12EF677D8C
:106B14008F7F408019E4FD7F3F12EF677D0F7F4038
:106B240012EF677D057F4112EF67E4FD7F4212EFAC
:106B340067E4FD7F4912EF677D077F4A12EF677DA7
:106B4400037F4B12EF67E4FD7F4C12EF67203F7326
:106B54009009D4E0540314602B14604824026003A9
:106B6400026C39E47560A1755FBFF55EF55D200FB9
:106B740009756455756399026C35E47564717563C0
:106B8400CC026C35E47560B6755F95F55EF55D20F5
:106B94000F087564447563C48007E4756470756395
:106BA400FA026C35E47560C5755F77F55EF55D20B6
:106BB4000F087564557563F58007E475645A756349
:106BC400C8806E303F6F9009D4E0540314602614DB
:106BD40060422402705FE47560A1755FBFF55EF5E5
:106BE4005D200F087564AA7563BA8007E47564E3D1
:106BF4007563F8803CE47560B6755F95F55EF55D88
:106C0400200F087564EE7563EE8007E47564B7754C
:106C140063CD801DE47560C5755F77F55EF55D2015
:106C24000F0875646D7563DB8007E47564937563A1
:106C3400A4F562F561AF60AE5FAD5EAC5D78101235
:106C44004528AD077F8812EF67AC5FAD607F89127E
:106C5400FC6FAF64AE63AD62AC617810124528ADD1
:106C6400077F8B12EF67AC63AD647F8C026E6DE4BB
:106C74007560CC755F88F55EF55D75645575635315
:106C8400F562F5617D0A7F3B12EF67AF60AE5FADE1
:106C94005EAC5D7810124528AD077F3512EF67AC06
:106CA4005FAD607F3612FC6FAF64AE63AD62AC6102
:106CB4007810124528AD077F3812EF67AC63AD64D6
:106CC4007F39026E6DE47560CC755F88F55EF55DA5
:106CD4009009EAE0540378B5F6203F70E670127527
:106CE40060B9755FA7F55EF55D7564557563998048
:106CF4007078B5E66401700975648E7563A3026DDE
:106D0400AD78B5E664026003026E2F756455756351
:106D140099F562F561FD7F3F12EF677D0F7F4012A9
:106D2400EF677D057F4112EF67E4FD7F4212EF6755
:106D34007D037F4B12EF67E4FD7F4C12EF67E4FDA8
:106D44007F4912EF677D077F4A026E2C78B5E670A3
:106D54004B7560B9755FA7F55EF55D7564AA7563DB
:106D6400BAF562F561FD7F3F12EF677D857F4012C2
:106D7400EF677D047F4112EF677D147F4212EF6756
:106D8400E4FD7F4912EF677D077F4A12EF677D03B9
:106D94007F4B12EF67E4FD7F4C026E2C78B5E664FE
:106DA40001704075641C7563C7F562F561FD7F3F32
:106DB40012EF677D0F7F4012EF677D057F4112EF71
:106DC40067E4FD7F4212EF67E4FD7F4912EF677DC0
:106DD4001F7F4A12EF677D027F4B12EF677DD07FE2
:106DE4004C804578B5E6640270417564AA7563BA4F
:106DF400F562F561FD7F3F12EF677D0F7F4012EF73
:106E0400677D057F4112EF67E4FD7F4212EF67E47F
:106E1400FD7F4912EF677D077F4A12EF677D037F8D
:106E24004B12EF67E4FD7F4C12EF677D0A7F3B1244
:106E3400EF67AF60AE5FAD5EAC5D7810124528AD14
:106E4400077F3512EF67AC5FAD607F3612FC6FAF22
:106E540064AE63AD62AC617810124528AD077F382B
:0C6E640012EF67AC63AD647F3912FC6F65
:016E700022FF
:10DAED00EF12461BDB2200DB2202DB2206DB3908AC
:10DAFD00DB390ADB390CDB390EDB3910DB3912DB94
:10DB0D004A14DB4A1CDB4A24DB4A2CDB4A34DB4A51
:10DB1D003C0000DB74786CE6FC08E6FD7F0412FC2B
:10DB2D006F7873E6FC08E6FD7F0A80387DAC7C02D9
:10DB3D007FA012FC6F7DF47C017FA68027786CE6B8
:10DB4D00FC08E6FD7F0412FC6F7873E6FC08E6FD29
:10DB5D007F0A12FC6F7DAC7C027FA012FC6F7DF4FE
:08DB6D007C017FA612FC6F226F
:10C24100E4FFFEFDFC788412454EE41241DF7B20C1
:10C251007AC5797B784C1241725005E4F55A801EFB
:10C26100788412454EE41241DF7B607AF5791078CB
:10C271004C1241725005755A018003755A02788437
:10C28100124566C000C001C002C003740C7E00A844
:10C291005A088005C333CE33CED8F9FFE4FCFDD074
:10C2A10003D002D001D0001243DF788412457F7899
:10C2B1008412454EE41241DF7B667A7A795A784BD3
:10C2C1001240D5E4FBFAF978C1123EDB12421DEFB0
:10C2D10004F55BE4FB7D017F2812DA6AE55AC43379
:10C2E1003354C0440AFD7F2C12EF67AD5B7F2D12E2
:0BC2F100EF677B017D017F2802DA6A05
:10C2FC00E4FFFEFDFC788D12454EE41241DF7B20FD
:10C30C007AC5797B784C1241725005E4F55A801E3F
:10C31C00788D12454EE41241DF7B607AF579107806
:10C32C004C1241725005755A018003755A02788D72
:10C33C00124566C000C001C002C003740C7E00A888
:10C34C005A088005C333CE33CED8F9FFE4FCFDD0B8
:10C35C0003D002D001D0001243DF788D12457F78D4
:10C36C008D12454EE41241DF7B667A7A795A784B0E
:10C37C001240D5E4FBFAF978C1123EDB12421D8F54
:10C38C005BE4FB7D037F2712DA6AE55AC43333542E
:10C39C00C0440AFD7F2A12EF67AD5B7F2B12EF675B
:09C3AC007B017D017F2702DA6AA2
:10D5D300EF12461BD5F608D5F60AD5F60CD5F60E8E
:10D5E300D5F610D5F612D60114D6011CD601340097
:10D5F30000D63D303F047D36803A7D388036E55590
:10D6030075F004A4FFAEF012FF8575F010E5559098
:10D6130076E91245E17401932480FDE4933400CD4F
:10D62300C39FCD9400FC7F0212FC6F303F047D3614
:10D6330080027D387C007F9E802AE55575F004A426
:10D64300FFAEF012FF8575F010E5559076E91245AF
:10D65300E17401932480FDE4933400CDC39FCD9402
:08D6630000FC7F0212FC6F22A3
:10C5DF00EF12461BC65306C61408C6140AC6140C1F
:10C5EF00C6140EC61410C61412C61B14C61B1CC6C6
:10C5FF005324C65326C6532CC6532EC61B34C653BC
:10C60F003C0000C67012FC697D0E804FE55575F039
:10C61F0004A42401FFE435F0FE12FF858F5DEFFDCA
:10C62F007C007F0612FC6FE55DFD7C007F0812FC2D
:10C63F006F303F097D1212FC6B7D12800512FC6971
:10C64F007D0E8017E4FDFC7F0612FC6FE4FDFC7F7E
:10C65F000812FC6F7D1312FC6B7D137C007FA4808E
:10C66F0022E55575F004A42401FFE435F0FE12FF16
:10C67F00858F5DEFFD7C007F0612FC6FE55DFD7C15
:06C68F00007F0812FC6FA1
:01C695002282
:10F02000EF12461BF04900F05002F04908F0500A78
:10F03000F0490CF0500EF04910F05012F05014F05E
:10F04000501CF050340000F0607D087F2F02EF6705
:10F050007D147F2F12EF67E4FB7D207FA912DA6A0F
:01F06000228D
:1059A400EF12461B59D9005A05025A05065CCA086B
:1059B4005D5F0A5CCA0C5D5F0E5CCA105D5F125AC3
:1059C40005145A051C5A05245A052C5A05345A053F
:1059D4003C00005F8A7F6F12D03BEF54077F00FECC
:1059E400C007C0067F7012D03BEFFDD0E0F55DD05C
:1059F400E04DF55E7873E6F55F08E6F560FD025C60
:105A0400E77F6F12D03BEF54077F00FEC007C0064C
:105A14007F7012D03BEFFDD0E0F55DD0E04DF55E38
:105A24007873E6F55F08E6F560787CE6FC08E6FD49
:105A3400E41241E4C004C005C006C007AC3CAD3D5F
:105A4400E41241E4D003D002D001D000123FCCE4F0
:105A5400FBFA79C87842123FCC12421D787812457D
:105A64007F78C51245974C755C80786CE6FC08E637
:105A7400FD24FFE43C7E007802C333CE33CED8F954
:105A8400F5628E61AF05AE04E4FCFDC004A905AA6D
:105A940006AB077873E6FE08E6FFE4D0001243DFA6
:105AA400E4FB7A03F9F812446A8E638F64787DE626
:105AB4002480FD18E436FCE41241E4C004C005C0AF
:105AC40006C007786CE6FC08E6FDE41241E4A8048D
:105AD400A905AA06AB07D007D006D005D004123E0C
:105AE400D7C004C005C006C007786DE426FD18E6DB
:105AF4003405FCE41241E4D003D002D001D00012FA
:105B04003FCCC004C005C006C007787DE62480FFF2
:105B140018E63405CF2562FDEF3561FCE41241E45B
:105B2400A804A905AA06AB07D007D006D005D0045F
:105B34001240D5C004C005C006C007787DE62480A5
:105B4400FF18E436FEC3EF786D96FDEE1896FCE47C
:105B54001241E4D003D002D001D000123ED7C004D9
:105B6400C005C006C007AC63AD64E41241E4D003D1
:105B7400D002D001D000123EDB12421D8E638F642E
:105B8400786CE6FE08E62562F562EE3561F561E5BE
:105B94006424FFE435637E007803C333CE33CED868
:105BA400F92564F564EE3563F563E5642562F56211
:105BB400E5633561F56175630075643CE563C313A2
:105BC400FEE564132562FFE5613EAB07FAE4F9F8EC
:105BD400AE61AF62FCFD1243DFC006C007E562257B
:105BE40064FFE5613563AB07FAE4F9F8D007D00642
:105BF40012446A8E618F62AE3CAF3D7C007D6412BC
:105C040042E4AC06AD07E41241E4C004C005C0069A
:105C1400C007AC61AD62E41241E4D003D002D0010C
:105C2400D000123FCCE4FBFAF978401240D57B0057
:105C34007AB1799E7849123EDB78BD12457F7F9A0E
:105C44007E997D997C3F78C5124566123FCC78C118
:105C540012457F78C112454E78BD124566124172D5
:105C64006025402378BD12454E12421D788D1245A1
:105C74007F788D12454EE41241DF7BCD7ACC79AC2E
:105C8400783F1240D580347FB07E957DFF7C4C7880
:105C9400C11245661241724010788D12459707FC77
:105CA400AD8078C512454E801278C112454E12421D
:105CB4001D788D12457F78C512454E12421D788499
:105CC40012457F025F85755D01755E06755F00751F
:105CD40060FA753C00753D9E786F12459700CE338F
:105CE4001CAD60AC5FAF5EAE5D12EE0FAC06AD07EF
:105CF400E41241E47B007A8079A77844123FCCC057
:105D040004C005C006C007AC3CAD3DE41241E4D07C
:105D140003D002D001D000123FCCE4FBFA79CC7856
:105D240042123FCCC004C005C006C007AC5DAD5EE6
:105D3400E41241E4A804A905AA06AB07D007D006DB
:105D4400D005D0041240D512421D788412457F78C4
:105D54008D12459700000000025F85755D01755E38
:105D640006753C00753D9E786F12459700CE331C36
:105D7400755F007560FAAD60AC5FAF5EAE5D12EE4C
:105D84000FAC06AD07E41241E47B007A8079A77872
:105D940044123FCCC004C005C006C007AC3CAD3DB6
:105DA400E41241E4D003D002D001D000123FCCE48D
:105DB400FBFA79C87842123FCCC004C005C006C0C3
:105DC40007AC5DAD5EE41241E4A804A905AA06ABE4
:105DD40007D007D006D005D0041240D578C51245A7
:105DE4007F75610075620C7563007564DEE562247D
:105DF4005AFDE5613408FCE41241E4A804A905AAAB
:105E040006AB077F007EDD7DA67C481240D5A80442
:105E1400A905AA06AB07E4FFFE7D2E7C43123ED7FC
:105E2400C004C005C006C007AC63AD64E41241E41D
:105E3400D003D002D001D000123EDB12421D8E638B
:105E44008F6474AC2562F56274023561F561E564B2
:105E540024FFE435637E007803C333CE33CED8F910
:105E64002564F564EE3563F563E5642562F562E562
:105E7400633561F56175630075643CE563C313FEC6
:105E8400E564132562FFE5613EAB07FAE4F9F8AE79
:105E940061AF62FCFD1243DFC006C007E562256402
:105EA400FFE5613563AB07FAE4F9F8D007D00612D1
:105EB400446A8E618F62AC3CAD3DE41241E4E4FB84
:105EC400FA79C87842123FCCC004C005C006C007A6
:105ED400AC61AD62E41241E4D003D002D001D00041
:105EE400123FCCE4FBFAF978401240D57B007AB13A
:105EF400799E7849123EDB78BD12457F7F9A7E9960
:105F04007D997C3F78C5124566123FCC78C1124515
:105F14007F78C112454E78BD1245661241726025E4
:105F2400402378BD12454E12421D788D12457F786C
:105F34008D12454EE41241DF7BCD7ACC79AC783FAB
:105F44001240D580347FB07E957DFF7C4C78C112A1
:105F540045661241724010788D12459707FCAD805A
:105F640078C512454E801278C112454E12421D78F2
:105F74008D12457F78C512454E12421D7884124514
:065F84007FE4FFFEFDFCBE
:015F8A0022F4
:10CD95009009C2E0FF1259A49009C2E0FF12F7986A
:10CDA5009009C2E0FF12E29A9009C2E0FF12B6496B
:10CDB5009009C2E0FF12DAED9009C2E0FF12D82A0D
:10CDC5009009C2E0FF12D5D39009C2E0FF12C5DF7A
:10CDD5009009C2E0FCE41241E912C2419009C2E0A7
:10CDE500FCE41241E912C2FC9009C2E0FF12A676EA
:10CDF5009009C2E0FF12F0209009C2E0FF12C74D72
:10CE0500789CE6FF64196004EFB41C07E4FD7F9A83
:10CE150012EF679009C2E0FF1269A29009C2E0FF14
:10CE250012B1BE9009C2E0FF129EE29009C2E0FF76
:0BCE350012FABB9009C2E0FF02A2123B
:10B8E300000C010C0C020D0F0E040F021750253C27
:10B8F3002608274A282029072A042B572C4A2D6477
:10B903002861274B2F003100324D33A634343C05D8
:10B913003D3C3F00400F410542004305443C450385
:10B92300462049004A074B034C004D034E204F0469
:10B93300500351C352EB53E154D259005A105B00E8
:10B943005C045E005F0060006100620063006400ED
:10B953006500660067006B846C1C710273007401E0
:10B963007580761879027D167E08B901BD018E00B7
:10B973008F05907893E0950096009A009B009C00B9
:10B983009D00A81CA91CAA00AB80AC00B000B12389
:10B99300B205B300B400B506B603B700D000D101B9
:10B9A300D200D303D400D501D600D702D900DA7070
:04B9B300EB01EC4276
:10F5C400E4F55AE55A25E024E3F582E434B8F583FA
:10F5D400E493FFE55A25E024E4F582E434B8F583A6
:0FF5E400E493FD12EF67055AE55AC3946A40D4C9
:01F5F30022F5
:10DC7C0000FFFFFFFFFFFF00413400100101010115
:10DC8C00160E010108251678E8FB899F5546982445
:10DC9C0010484C254900010101010101010101015C
:10DCAC00010101010101E4250040510026301888D2
:10DCBC00360072DC11000018000000FF00000000AC
:10DCCC0000000000000000000001000000FC0057F4
:10DCDC00542D313731500A2020202020000000FD27
:10DCEC00003C3C3C3C09000A20202020202000B4B1
:0300030002B0C583
:10B0C500C0E0C0F0C083C082C0D075D000C000C051
:10B0D50004C005C006C0077440D39532501BE53245
:10B0E50094445015900AAD1245B0FFFFFFFF753728
:10B0F50000753100C24D02B1A5740AD395325023B3
:10B10500E532940C501D900AAD12455A780112454E
:10B115003B900AAD12458B900AAD12455AEF44019A
:10B12500FF80247405D395325028E53294075022C8
:10B13500900AAD12455A780112453B900AAD124569
:10B145008B900AAD12455AEC900AAD12458B053726
:10B15500804E7437D395325047E532943B50413099
:10B165004D3E741595315021E5319417501B7531BD
:10B1750000900AA2E004F0E094054009D20DD249FE
:10B185007405F0801BC2498017900AAD1245B0FFC7
:10B19500FFFFFF753700753100C20D900AA2E4F07C
:10B1A50075320000D007D006D005D004D000D0D02D
:09B1B500D082D083D0F0D0E0324A
:03000B0002AEB191
:10AEB100C0E0C0F0C083C082C0D075D000C000C067
:10AEC10004C005C006C007D21D758A77758CEC05D4
:10AED10031053FE53F7002053EE531D3941A401933
:10AEE100900AAD1245B0FFFFFFFF753700753100C5
:10AEF100C24D900AA2E4F0C249900F3CE020E0026A
:10AF0100C23CE53AB4111DD3E54994DFE548942EDE
:10AF1100400A754800754900D23880080549E5495D
:10AF21007002054820254AE54F454E6008E54F155A
:10AF31004F7002154EE54060021540E546454560FB
:10AF410008E546154670021545E53060021530AF3B
:10AF51002FAE2EAD2DAC2CEC4D4E4F6014EF24FFD7
:10AF6100F52FEE34FFF52EED34FFF52DEC34FFF522
:10AF71002CE55760021557C3E53F9459E53E94020D
:10AF8100401CC247787EE6FFB401047600800CEFD6
:10AF9100700C900AB1E0700630110375421E900AE0
:10AFA10085E07002A3E0600A900A8574FFF5F01253
:10AFB1004383D007D006D005D004D000D0D0D082B2
:07AFC100D083D0F0D0E03294
:0300130002C00C1C
:10C00C00C0E0C083C082C0D075D000C000C006C0E4
:10C01C0007900F03E030E2175421F0900F01E0304D
:10C02C00E50DAF190519EF90DC7C93900F06F0909D
:10C03C000F03E0FF30E313900F06E0F519AE19057E
:10C04C0019EE90DC7C93900F06F0EF30E410AF19F2
:10C05C000519EF90DC7C93900F06F053197F900F2D
:10C06C0003E030E504789E7600900F03E030E6356F
:10C07C00900F08E0FF789EE62489F8A6077889E6F9
:10C08C0024897016C2AF900F18E4F0900F0B747CDB
:10C09C00F0900F0C7493F0758701789E06E6D3949C
:10C0AC000440027600900F03E4F0900F48F0D007A4
:0DC0BC00D006D000D0D0D082D083D0E032AA
:03001B0002FD9A49
:10FD9A00C0E0C0D00532E532C394FF40037532FF9C
:06FDAA0000D0D0D0E032D1
:02EFDE008F673B
:10EFE000E4F568E56730E703D38001C3929512FF2B
:10EFF000F9D29412FFF9C294E56725E0F567056838
:10F00000E568C3940840DC12FFD3D29412FFF930B4
:0FF01000950712FFD3C294D32212FFD3C294C329
:01F01F0022CE
:10FB1E008F6612FFD3D295D29412FFD3C29512FFE5
:10FB2E00D3C29412FFD3AF6612EFDE500122C3226E
:0FFEEE0012FFD3C295D29412FFD3D29502FFD345
:10F0E300E4F55D78BAE6FF25E0F6D29412FFF9A2C3
:10F0F30095E43378BA46F612FFF9C29412FFF90584
:10F103005DE55DC3940840DBC29512FFF9D294120A
:0FF11300FFD3C29412FFF9D29578BAE6FF7E00BF
:01F1220022CA
:10F1A100E4F56678BDE6FF25E0F6D29412FFF9A2F8
:10F1B10095E43378BD46F612FFF9C29412FFF905C2
:10F1C10066E566C3940840DBD29512FFF9D294122A
:0DF1D100FFD3C29412FEEE78BDE6FF7E0073
:01F1DE00220E
:06F5F4008F5F8D608B614A
:10F5FA00E4F562E562C39405501E056200AF5F122E
:10F60A00FB1E40EFAF6012EFDE40E8AF6112EFDEA3
:09F61A0040E112FEEE00C322D310
:01F6230022C4
:06EDC0008C608D61AB07C1
:10EDC600E4F562F563F564F565E560F564E56425EB
:10EDD600E054FE4BF564E565C3940550220565AF26
:10EDE6006412FB1E40F0AF6112EFDE40E9E56444B9
:10EDF60001FF12FB1E40DF12F1A18E628F6322001B
:01EE060022E9
:10F971008D5D8B5EEF25E0FB7D0B7F9812F5F4E545
:10F981005D25E0FB7D0C7F9812F5F4E55E25E0FB3B
:07F991007D0D7F9802F5F4E3
:10FB5E008D5A8B5BAB077D087F9812F5F4AB5A7DFF
:0FFB6E00097F9812F5F4AB5B7D0A7F9802F5F4DE
:10C8B9009009C9E070097B7F7D7F7F7202C95F9013
:10C8C90009C9E0B401097B727D7F7F7F02C95F904E
:10C8D90009CAE0FCE41241E97B337A3379237840D1
:10C8E900123FCCA804A905AA06AB07E4FFFE7D7F89
:10C8F9007C43123ED712421DC0079009CBE0FCE4ED
:10C909001241E97B337A3379237840123FCCA8046A
:10C91900A905AA06AB07E4FFFE7D7F7C43123ED73B
:10C9290012421DAD07C0059009CCE0FCE41241E9B3
:10C939007B337A3379237840123FCCA804A905AA1E
:10C9490006AB07E4FFFE7D7F7C43123ED712421DF2
:10C95900AB07D005D00712FB5E7B327D327F3212E6
:03C96900F971223F
:10F45D007B2A7D0F7F9812F5F47B107D057F981226
:10F46D00F5F47B107D067F9812F5F47B207D077FE8
:10F47D009812F5F4E4FB7D0E7F9812F5F47B027D76
:06F48D00157F9802F5F462
:10BB5B00EF33333354F8FB7D047F9812F5F475F013
:10BB6B0010E5559076E31245E1E493FE740193FBE7
:10BB7B00AA06E4F9F875F010E5559076E71245E161
:10BB8B00E493FE740193FFE4FCFD1243DFE47BE8D6
:10BB9B007A03F9F812446A78BFEEF608EFF6C3940D
:10BBAB003BEE94015008187600087628806478BF25
:10BBBB00E6FE08E6FFC39490EE9401500818760059
:10BBCB00087630804DC3EF9432EE9402500978BF63
:10BBDB007600087660803BC3EF948AEE940250099E
:10BBEB0078BF76000876688029C3EF94EEEE940256
:10BBFB00500978BF76000876708017C3EF9438EE43
:10BC0B00940478BF500776000876A080057600086C
:0DBC1B0076B078C0E6FB7D037F9802F5F45B
:10A67600EF12461BA6B100A6B101A6B102A6B10310
:10A68600A6B104A6B106A76A08A76A0AA76A0CA714
:10A696006A0EA76A10A76A12A6B114A6B116A6B1C9
:10A6A6001CA6B11EA6B1340000A7B97F6F12D03B1D
:10A6B600EF54077F00FEC007C0067F7012D03BEF45
:10A6C600FDD0E0F55FD0E04DF5607873E6FC08E676
:10A6D600FDE41241E4A804A905AA06AB07E4FFFEBF
:10A6E6007D407C441240D5C004C005C006C007ACFE
:10A6F6005FAD60E41241E4D003D002D001D0001275
:10A706003FCC12421D8E618F62787CE6C313FE0831
:10A71600E61325E0FFEE33AB07FAE4F9F8FFFEFD9A
:10A726007C8012446AA804A905AA06AB07AE61AFED
:10A7360062E4FCFD1243DFC006C007AE5FAF60AB4C
:10A7460007AA06E4F9F8D007D00612446A8F668E87
:10A75600658D648C63780212453B8F668E658D64C9
:10A766008C63801475660075654A7564D5756301DA
:10A77600AF66AE65AD64AC637818124528AD077F49
:10A786003112EF67AF66AE65AD64AC637810124503
:10A7960028AD077F3212EF67AF66AE65AD64AC6376
:10A7A6007808124528AD077F3312EF67AD667F3410
:03A7B60012EF6738
:01A7B900227D
:10F682008E5D8F5EE55DC4F854F0C8E55EC4540F2C
:10F6920048FB7D017F9812F5F4AF5EEFC454F0FB96
:0FF6A2007D027F9812F5F49009C2E0FF02A67670
:102EF200E53764206006200D03023730900AAD12D8
:102F0200455A7818124528900AB9EFF0FB900AAD9D
:102F120012455A7810124528900ABAEFF0900AAD7D
:102F220012455A7808124528900ABBEFF0900AB071
:102F3200E0900ABCF0EB644060028031900ABAE093
:102F4200F460028028900ABCE0FF900ABBE0FE5FBA
:102F520060028019300D1AEE64A86015EE64686094
:102F620010EE6470600BEE64086006C20DE4F53783
:102F720022D24DE4900A87F0EE64286009E53AC354
:102F820094115002803730190A900ABBE06428601D
:102F920002802AE53A64206003301310900ABBE0F5
:102FA200FF64286007EF64186002801130211E90D0
:102FB2000ABBE0FF64C86015EF64286010E4F537CF
:102FC200C20D900AAD1245B00000000022900ABB6B
:102FD200E0FF6480602EEF64406029EF64C06024EB
:102FE200EF6420601FEF64A0601AEF64606015EF69
:102FF20064E06010EF6410600BEF64906006EF60B5
:1030020003B4500B303708C237E4F550753506EF7C
:1030120012461B35D10033000835BF103350183526
:103022009B2033692834F93033A238358940350280
:103032004835D95035085835AD60333C6833147083
:1030420031667835788034B28835C89035E798355E
:10305200A4A03328A8336FB033D3B83592C032D886
:10306200C83079D03375D835B6E03260E834CEF066
:1030720031DBF8000035F59009C2E0FF640A700305
:10308200023516EF640E7003023516EF6412600FFC
:10309200E53A64266009303209202D03303D0302EF
:1030A200351620370330320DC237E4F550C232757F
:1030B200350612BA8D202D03303D37302834E4F521
:1030C20054C22830B415E53A641A6005E53AB419D9
:1030D20004753A1B22753A1D0235F5E53A641A6009
:1030E20005E53AB41906753A1B0235F5753A1C0224
:1030F20035F5789C7617201305A20CB3920C12B901
:10310200B79009D6E054037883F6300C0D12D8BB81
:10311200304424D23212F1DF801D900F357401F059
:10312200E4FFFE12FD077F0212FB9C12000E2044F8
:1031320006900F297401F0A20CE4335401C454F038
:10314200FF9009D6E0540F2FF0FD7F167E0112F199
:10315200632032030234B0C237C232E4F55075350F
:10316200060234B09009C2E0FF640A6009EF640EFF
:103172006004EFB412030235169009D6E05410FF32
:10318200C4540F24FF920C200C030235162037037F
:1031920030320DC237E4F550C23275350612BA8D9F
:1031A200789C761A302A139009D3E0FF54F0FEBEC1
:1031B2002002800F9009D3E080119009D3E0FF54E0
:1031C200F0700DA22AB3922AEF540F2410F0807CE3
:1031D2009009D3E024F0F080739009C2E0FF640A02
:1031E2006009EF640E6004EFB41203023516900911
:1031F200D6E05410FFC4540F24FF920C200C03029B
:10320200351620370330320DC237E4F550C232751D
:10321200350612BA8D789C761B303A159009D3E0A8
:10322200FF540FFEBE020280119009D3E004F08029
:103232001B9009D3E0FF540F700CA23AB3923AEFFD
:1032420054F004F080069009D3E014F012FB3E9093
:1032520009D3E0FD7F137E0112F1630234B09009BD
:10326200C2E0FF640A6009EF640E6004EFB4120367
:103272000235169009D6E05410FFC4540F24FF9271
:103282000C200C0302351620370330320DC237E40E
:10329200F550C23275350612BA8D789C76199009AE
:1032A200D4E05403900AB7F030350EE07003048086
:1032B20011900AB7E014F08017900AB7E0B4020A3E
:1032C2007401F0A235B392358006900AB7E004F09B
:1032D20012ED300234B0A232E433FF787EE6B4015C
:1032E200047E0180027E00EE5F600DE4900F32F0FA
:1032F200C232787EF60233997554010235F5900A8E
:10330200A2E06008C39405500302373075540402EA
:1033120035F5900AA2E06008C394055003023730E5
:103322007554030235F5900AA2E06008C394055073
:10333200030237307554050235F5900AA2E06008A1
:10334200C3940550030237307554060235F5203711
:103352000330320DC237E4F550C23275350612BA67
:103362008D7554020235F57554080235F512DE7B6F
:103372000234FC20470A7894E6184670030237307C
:10338200E553B41703023516C237E4F55075350616
:10339200F554787EF6C247753E02753F590235F5FF
:1033A200204712787EE6C39401400A7894E61846D4
:1033B2007003023730787EE6600DC247E4F6753E50
:1033C20002753F59F55422E4787EF612DD7C023410
:1033D200FCE5416404601DE54164026017E5416457
:1033E200036011786DE6B4000B18E6B40506200CF4
:1033F20003023730303707C237E4F550C232753531
:103402000612BA8DE5416404600CE541640260066F
:10341200E5416403702C9009EAE0540378B5F6D3D1
:1034220094014004E4F6800378B506E4900F3EF080
:10343200900F23F012F6E0900F3E7401F012E67F37
:10344200806C7535101264AAA20CB35028A242B344
:103452009242A242E43360047F0180027F00900A1C
:10346200EEEFF0FD7F2E7E0012F1639009C2E0FFC5
:103472001269A28039A20FB3920F789C761C741C39
:1034820064196004E6B41C07E4FD7F9A12EF671228
:10349200FCB99009C2E0FF1269A29009C2E0FF12D2
:1034A200A2129009D4E0FD7F147E0112F163804ADA
:1034B20012CEEAE5416404600BE54164076005E56C
:1034C20041B40A0675540A0235F5802E9009C2E00D
:1034D200FF640A601DEF640E6018EF6412601390BF
:1034E20009D6E05410FFC4540F24FF920C200C02A2
:1034F200802212E6D6800312F0A2E4F5540235F5DA
:1035020012E3680235F5E54164046005E541B4075C
:1035120003302704E4F55422E4900F29F012FC133F
:10352200E541B404077D077F5012EF67203703306F
:10353200320DC237E4F550C23275350612BA8D909B
:1035420009E4E0FF900ABAF09009E5E09009E4F09E
:10355200A3EFF0E4900AB8F0754201900A88F09067
:103562000A9074FFF012DD7CD246900A857401F055
:10357200A374F4F0807D303708C237E4F550753516
:1035820006789376008059789376000876028063F5
:1035920078937600087603805A789376000876044A
:1035A20080517893760008760580487893760008F3
:1035B2007606803F78937600087607803678937691
:1035C20000087608802D789376000876098024E436
:1035D2007893F608F6801CD247E4787EF67893F664
:1035E200087601800EE53A64116005E53AB42003DD
:1035F20012D40030370302372BE5416404600FE533
:103602004164076009E541640A600302372B900AAE
:10361200BBE0FF64806032EF6440602DEF64C06005
:1036220028EF64206023EF64A0601EEF64606019DD
:10363200EF64E06014EF6410600FEF6490600AEFD3
:1036420060076450600302372B30270302372BC216
:1036520032D22F754207E4F53EF53F7550117534AD
:103662002575350E787E06304761E6FBB4011C787D
:1036720093E6FE08E6FF7C007D641242E47893A69E
:103682000608A607E6900AB1F08022EBB402028097
:1036920006787EE6B403167818E675F00AA4FFAE43
:1036A200F07893E6FC08E62FF6EE3C18F67894E6FE
:1036B2007818F6787EE6C39401406EE4F6753E0211
:1036C200753F59D246C247C211805E787EE6FFB48A
:1036D20001097894E6900AB1F08036EF6402703105
:1036E200900ABBE070157818E6FF700F787E7601BD
:1036F200F53EF53F7893F608A607227818E675F0AE
:103702000AA4FFAEF07893E6FC08E62FF6EE3C182A
:10371200F67894E67818F6787EE6C39402400AE4D6
:0E372200F6753E02753F59D246E4F537C20DEA
:013730002276
:10E99B00900A95E0FFFD7893E6FA08E6FBC39DEA43
:10E9AB009400402D900A98E0FDD3EB9DEA94005023
:10E9BB00209009E4E0A3F0E6C39F9009E4F0FDE4A6
:10E9CB00900AB8F0754201787EF67F247E0102F141
:10E9DB0063C237E4F550753506F554787EF612ECC4
:02E9EB000A22FE
:10BC2800E478BAF6900AC9F0A304F0A3E4F078BA6D
:10BC3800E6FF90F62493FE900AC9E0FD04F074B97B
:10BC48002DF582E4340AF583EEF0EF90F62493FFA5
:10BC5800E624C0F582E43409F583EFF006900AC9BA
:10BC6800E0B4101BE4F0A3E0FEA3E0FF7B017A0A36
:10BC780079B912E958900ACAE475F0101243839012
:10BC88000958E0FF78BAE6C39F40A3900AC9E0606C
:10BC98000FA3E0FEA3E0FF7B017A0A79B912E95805
:10BCA80012AB47C242D230C21CC23EC20CC20FE421
:10BCB800900A99F0D22AD23AD235C214C228C213B5
:10BCC8007883F6900AB7F0786E7601787676017800
:10BCD8009CF67877F67875F6900A89F0900AB3F0B2
:0CBCE800900AB5F0900F32F0D220C2227A
:01BCF400222D
:03000E0002F346B4
:10B9B700300C6BE4900F29F012FC13754105788366
:10B9C700E614600F146014240270169009C27414F0
:10B9D700F0800E9009C2741CF080069009C274347E
:10B9E700F0C2087D147F027E0112F163D20EE54199
:10B9F700B4070575350E800375351375501312E8B6
:10BA07009A900F357401F0E4FFFE12FD077F0212D2
:10BA1700FB9C20446D900F297401F002000EE49006
:10BA27000F29F012FC13C208753506900F35740103
:10BA3700F0E4FFFE12FD077F0212FB9C12000E20AE
:10BA47004406900F297401F09009C2E024E46008CD
:10BA570024E860042420702AE4FB7D047F8E12DA38
:10BA67006A900A9C7428F0E4FB7D807F9A12DA6A58
:10BA77009009C27402F0E4F5417D027F027E011253
:03BA8700F1632246
:10D8BB007883E614602D14605C2402600302D94B5C
:10D8CB00E54124FA601014600D14600F24FC60060F
:10D8DB0024077007800512EA3D8029753504E4F5AD
:10D8EB00548021E54124FB601824FE601424FE6063
:10D8FB000824FD600C2406700B753504E4F5548088
:10D90B000312EA8B900F357401F07F007E0212FD3B
:10D91B00077F028028E54124FB601714601424FC68
:10D92B00600824FE600C2405700B753504E4F55477
:10D93B00800312EC9E900F357401F0E4FF12FB9CF8
:01D94B0022B9
:10ED30009009D4E054F0FF900AB7E054032F9009F3
:10ED4000D4F0FD7F147E0112F163789CE6FF641914
:10ED50006004EFB41C12E4FB7D807F9A12DA6AE44F
:10ED6000FB7D407F9A12DA6A9009C2E0FF1269A225
:08ED70009009C2E0FF02A212AB
:10FCB900A20FE4335410FF900AB7E054034F9009A0
:0AFCC900D4F0FD7F147E0102F16308
:08FFDC009009C2E0FF0269A2D6
:10F6E00030370575350480037535069009EAE05416
:10F6F000F0FF78B5E654032FF0FD7F147E0112F180
:0EF70000639009C2E0FF1269A27F1002FFB7FA
:10FD210030370AC237E4F550753506800712DF6FA8
:09FD3100753501E4F554C23B22D2
:10DF6F00E553B40804E4F554229009C2E0FFE4D36A
:10DF7F009F500CEF940250077550027534012274B4
:10DF8F0004D39F500CEF9406500775500775340C4F
:10DF9F00227408D39F500CEF940B500775500C75DB
:10DFAF00340F22740CD39F500CEF940F5007755001
:10DFBF000F753413227410D39F500CEF9413500726
:10DFCF00755012753407227414D39F500BEF94437E
:09DFDF0050067550157534172227
:10E73300E53AC39405501D754E00754F14753A059F
:10E74300E4F533D24A900F2174FFF0E4900F37F0D1
:10E753007D558031E53AC39405403012FC13E490B3
:10E763000F29F012FC137F0812FFB77540057533AC
:10E7730005E4F53AC24A900F21F0900F3704F0E414
:0CE783009009E3F0FD04FFFE12F1632298
:10B481008F5C8D5D9009C2E0FF640A606FEF640E0E
:10B49100606AEF64126065E5546403702B789CE682
:10B4A100FFE4D39F5008EF9405500312F123789CD9
:10B4B100E6FFC3955D5009EFB55C097875E6700448
:10B4C100789C8063789C0622E5546404600302B58D
:10B4D10065789CE6FFE4D39F5008EF940550031272
:10B4E100F123789CE6FFD3955C4009EFB55C0978C0
:10B4F10075E67004789C8062789C1622E55464039A
:10B50100702D7877E6FFE4D39F5008EF9403500342
:10B5110012F7F27877E6FFC3955D5009EFB55C0B42
:10B521007875E670067877A65C803178770622E533
:10B53100546404702F7877E6FFE4D39F5008EF94AA
:10B5410003500312F7F27877E6FFD3955C4009EFD9
:10B55100B55C0E7875E670097877A65D7875760129
:05B5610022787716229C
:10F29400E554B40318900AA0E014FF9009E4E0C315
:10F2A4009F4003E4F0229009E4E004F022E554B422
:10F2B40004199009E4E0D39400500A900AA0E014E1
:0CF2C4009009E4F0229009E4E014F0222C
:10B566009009E4E075F00584755A00F55B9009C210
:10B57600E0FF640A6063EF640E605EEF6412605978
:10B5860012ED78EF14601614601914601C14603AFA
:10B5960014603D240570407D0C7F0680377D117F49
:10B5A6000D80317D167F12802B200C18789CE66466
:10B5B60017700302B6487875E6600302B6487D1731
:10B5C6007F1780107D1D7F17800A7D217F1E8004D6
:10B5D6007D257F2212B481805012F4C7EF146010CB
:10B5E60014603914603C2403703F7D097F04803663
:10B5F6007875E6B402207877E6FF640A6044EF6463
:10B606000B603FEF640C702112F29412252812B2DF
:10B61600B0E47897F6227D0D7F0B800A7D117F0EB0
:10B6260080047D157F1212B4819009C3E0FF7E006D
:10B636007C007DC81242E48E458F4675350C7875C0
:02B6460076018B
:01B6480022DF
:10E8F100301625E554B4050B7988E7D378AF9640F7
:10E90100138027E5546406703D7988E7C378B09693
:10E911005002802F75351922E554B405117988E725
:10E92100D378AF96500478B0801478881622E554D5
:10E93100B406137988E7C378B096400778AFE678D4
:07E9410088F6227888062207
:10E4950030162BE554B4050E7988E7D378AF96404E
:10E4A50019788876F622E554640670467988E7C3BC
:10E4B50078B09650057888760A2275351922E55484
:10E4C500B405147988E7D378AF96500478B08017EF
:10E4D500788874F626F622E554B406167988E7C3DB
:10E4E50078B096400778AFE67888F6227888740A7F
:03E4F50026F622E6
:1085A800203706304A0302DFE82037030286CB1261
:1085B800ED78EF640470030286CB12ED78EF640364
:1085C80070030286CB7875E67030E554B4051378ED
:1085D8009CE6D3940050057605028834789C1602F0
:1085E8008834E554B40610789CE6C394054005E445
:1085F800F6028834789C060288347875E6FF6401B0
:108608006005EF6402703C789CE664137035E554AD
:10861800B405167888E6D39401400774FB26F60261
:1086280086C5788876010286C5E554B4061379882C
:10863800E7C378B09678885006740526F6807E766B
:1086480097807A7875E6FF64016005EF6402703EF2
:10865800789CE664147037E554B405147888E6D33A
:108668009405400674FB26F6802278887601801CE3
:10867800E554B4061778B0E624FCFF7888E6C39F73
:108688005006740526F680047888767F802F7875E2
:10869800E6FF64016004EFB40210789CE6FFB411B1
:1086A800046412600512E8F18013789CE6FF6411F7
:1086B8006008EF6412600302889C12E8F112252812
:1086C8000288992037030287F412ED78EF6404607A
:1086D800030287F47875E6702DE554B40511789C8B
:1086E800E6D39400500476058019789C168014E52A
:1086F80054B4060F789CE6C394054004E4F680035E
:10870800789C06028834789CE6B41E0612E8F102CA
:10871800FF0C789CE6641F702D12E8F112252812D0
:10872800A50FE4F554F540900A87F0D233D24CC235
:108738001CA24C339009ECF0FD7F2C7E0112F163F2
:1087480075330A02BC28789CE66420707BC3E53D3B
:108758009431E53C94014021D3E53D9445E53C94B2
:10876800015016C3E54494A9E5439402400BD3E5B0
:108778004494D1E5439402402CC3E53D9467E53C1D
:108788009401403ED3E53D948FE53C94015033C3BA
:10879800E544943FE54394034028D3E5449467E5D2
:1087A800439403501DC22DC23D74FFF54CF54DF5A1
:1087B8004CF54DE478ADF608F678B1F608F6F54ACA
:1087C800F54B12252802A50F789CE6642160030268
:1087D800889C786DE6700418E66405700302889C2E
:1087E80012E8F112252812FFDC02889920370302CB
:1087F800889C12ED78EF6403600302889C7875E624
:108808007030E554B40511789CE6D3940050047692
:10881800058019789C168014E554B4060F789CE6F8
:10882800C394054004E4F68003789C0612DCFC023D
:108838004D1A7875E6FF64016005EF640270551201
:10884800E8F1789CE6B4170812252812B9B78037E2
:10885800789CE6B418119009D6E054037883F63072
:108868000C2512D8BB8020789CE6FF64196018EFAD
:10887800641A6013EF641B600EEFB41C0A7888E674
:1088880024FF920F12E0D3789CE664176003122548
:058898002875352022C7
:109D3A00203706304A0302DFE8203703029EE17823
:109D4A0075E67071E54164047028E554B4050C7831
:109D5A0077E6D39400503776038054E5546406704E
:109D6A004E7877E6C394034004E4F6804278770697
:109D7A00803DE554B4051C7877E6FFD3940050047F
:109D8A007603802BEFB40206E47877F680217877A1
:109D9A0016801CE554B406177877E6FFC39403408F
:109DAA0004E4F6800AEF78777004760280010612DE
:109DBA00AD8F024D1A7875E6FF64016004EFB402B4
:109DCA001812F4C7EF701212E8F11225287877E614
:109DDA00B4080312FF28029EDE203703029E78127F
:109DEA00F4C7EF64016003029E7812E8F17877E61F
:109DFA00FFB40A09E53564216003029EE1EFB40B62
:109E0A0021754214E4900F29F012FC1312FC847598
:109E1A006A1E7B07E4FD7F4412FD3A1296247535CB
:109E2A0022227877E6640C70387875E6B4010F124E
:109E3A00FC8412FDB01200161296240297F6787569
:109E4A00E6C394025003029EE112F6B1E433FB909A
:109E5A0009E4E075F00584E5F02405FF7D1402C9E4
:109E6A00717877E6640D706F122528026E71787525
:109E7A00E6FF64016005EF6402704112F4C7EF6403
:109E8A000270397877E6FFB40F06E541640360474C
:109E9A00EFB4110512E495800312E8F1122528782F
:109EAA0077E6B41015E4900F3EF0900F23F012F607
:109EBA00E0900F3E7401F012E67F80187875E6FF95
:109ECA0064016004EFB4020F12F4C7BF030912E879
:089EDA00F11225287535202244
:10DFE800755017753503753B1DE47875F67D207FF0
:10DFF8007312EF67E5536403703275350D7553037B
