:060000000C9446000C9474
:1000060067000C946A000C9400000C9400000C9499
:1000160000000C9400000C9400000C9400000C945A
:1000260000000C9400000C9400000C9400000C944A
:1000360000000C9400000C9400000C9400000C943A
:1000460000000C9400000C9400000C9400000C942A
:1000560000000C9400000C9400000C9400000C941A
:1000660000000C9400000C9400000C9400000C940A
:1000760000000C9400000C9400000C9400000C94FA
:1000860000000C940000F894EE27ECBBF1E0F5BFFD
:10009600E5BFE0936C00F8E1F1BDE1BD8DE0A2E0C3
:1000A600BB27ED938A95E9F780E090E1A0E0B1E007
:1000B600ED930197E9F78BBFEFEFEDBFE0E1EEBF00
:1000C600C0E0D5E00C946F00EA93E0E002C0EA934A
:1000D600EFEFE5BBE9911895E0E0EABBEBBBE7BBC8
:1000E600E8BBEFEFE4BBE0E0E5BBE1BBE2BBE2B9B6
:1000F600E3B9E0936100E0936200E0936400E0936B
:100106006500E0BFE3BFE2BFE1BFEFBDEEBDEDBD01
:10011600ECBDE7BDE6BDEBBDEABDE9BDE8BDE093DC
:100126007900E0937800E5BDE4BDE3BDE0938B0084
:10013600E0938A00E0938900E0938800E0938100D1
:10014600E0938000E0938700E0938600E0938500CB
:10015600E0938400E0938300E0938200E7BFE0939E
:100166007D00EAE0E0936A00E0E0EABFE3E0E9BF91
:10017600E8BFE0E0EAB9E0939A00E0E8E8B9E0E039
:10018600E0BDE6B9EDB9E09374007894FFCFFFCFF8
:00000001FF
