:020000020000FC
:10000000026B731264DEC2B4026A2602591EC2B4C5
:10001000D2B4220257DD0A4272696768746E657352
:1000200073000A4C756D696E6F73697406000A4837
:10003000656C6C69676B656974000B4C756D696EF6
:100040006F7369646164000A4C756D696E6F7369E2
:1000500074050006D8D9DADBDCDD02AAAB02AAAB54
:10006000077C707B6F63806208436F6E747261738C
:10007000740009436F6E74726173746500084B6F8E
:100080006E74726173740009436F6E74726173747D
:10009000650009436F6E74726173746F0006D2DE7F
:1000A000DBD9DDDB02F2AD02ACAD09818265807F78
:1000B0006F63806205506861736500055068617305
:1000C000650005506861736500044661736500054D
:1000D00050686173650004D5E2D3FA048861336126
:1000E00002BAB602BAB605436C6F636B0007486F7D
:1000F000726F6765000454616B74000552656C6F24
:100100006A0005436C6F636B0004DFE0E1DF078783
:100110006163806F806104B4B5F7AB04B4B5EDAB37
:100120000A482E506F736974696F6E000A506F73BE
:100130006974696F6E2D48000A482D506F73697499
:10014000696F6E000A506F736963690E6E2D480007
:100150000B506F73697A696F6E65204F0007B4B5F5
:10016000FBEBE1FCDE0C966F946F892E916F856F2F
:10017000702E04B4B5B6B704B4B5B6B70A562E504F
:100180006F736974696F6E000A506F736974696F79
:100190006E2D56000A562D506F736974696F6E008C
:1001A0000A506F736963690E6E2D56000B506F73A2
:1001B000697A696F6E6520560007B8B9FBEBE1FC00
:1001C000DE0D966F946F892E916F826570802E047C
:1001D000B8B9B6B704B8B9B6B706526563616C6C06
:1001E000000652617070656C00095769656465723C
:1001F000727566000952656C6C616D616461000A1C
:100200005269636869616D61726F0004E7F9E1DB4F
:10021000054383706F6302C3B702C3B709536861B4
:1002200072706E65737300074E65747465740600B2
:10023000075363680272666500074E6974696465F6
:100240007A00094E69746964657A7A610006D6D7C6
:10025000D3D8DCDD085065337B6F63806203CDCE7D
:10026000AB03CDCEAB0C4F534420506F7369746910
:100270006F6E000C506F736974696F6E204F53443A
:10028000000C4F534420506F736963696F6E000C0C
:10029000506F736963690E6E204F5344000D506FA9
:1002A00073697A696F6E65204F534400074F53445A
:1002B000B6B7BEBF0C966F946F89657F7E65208D43
:1002C0004D04B193B6B704DEDFB6B70C4175746F59
:1002D0002053657474696E67000C5206676C616721
:1002E00065206175746F000D4175746F6D2E20452A
:1002F000696E73742E000C436F6E6669672E204121
:1003000075746F000C496D706F73742E2061757475
:100310002E0004BBB2B3B00D4182806F7F61638059
:10032000706F7D7B6104BBB2B3B004BBBCECB00E9C
:100330004F5344205472616E73706172656E000E8B
:100340004175746F2041646A7573742E2E2E0016E9
:100350005206676C616765206175746F6D617469C1
:100360007175652E2E2E00134175746F6D2E204110
:100370006E70617373756E672E2E2E0014416A7550
:10038000737465206175746F6D017469636F2E2ECF
:100390002E00165265676F6C617A696F6E65206119
:1003A00075746F6D61746963610007BBBCBEBF2E5D
:1003B0002E2E08BBB2BEBFA22E2E2E08BBBCBDBFC8
:1003C000A22E2E2E0F4182806F7F616380707D7B15
:1003D000612E2E2E06566F6C756D650006566F6C7D
:1003E000756D65000A4C617574737402726B6500FB
:1003F00007566F6C756D656E0006566F6C756D6592
:100400000004AEAFBEBF0984706F927B6F638062E1
:1004100004AEAFBEBF04AEAFBDBF044D7574650082
:10042000044D756574000E5374756D6D736368616A
:100430006C74756E67000853696C656E63696F0054
:10044000044D7574650004D6D2D3DB049380797BA8
:1004500002F3AE02F4AE0C4F53442054696D652094
:100460004F7574000944066C6169204F5344000BBA
:100470004F53442D4175737A656974000D54696555
:100480006D7020457370204F5344000B54696D65A7
:100490006F7574204F534400084F5344D0D1D3D4C8
:1004A000D50A96706F63806F7D208D4D06B193F8ED
:1004B000CAF9FA06DEDFC9CACBCC0C4F7574206FBF
:1004C000662052616E67650010486F727320646524
:1004D000206C6120706C616765001841757C6572E5
:1004E00068616C6220646572205265696368776533
:1004F000697465000E4675657261206465205261FD
:100500006E676F000D46756F726920706F7274614F
:100510007461000C4F7574206F662052616E6765C0
:1005200000124865856F8C7963807D92957D20707F
:1005300065897E9206D8D9DADB959006D8D9DADBC0
:10054000DCDD0F4E6F205369676E616C20496E7061
:100550007574000D506173206465207369676E6166
:100560006C00124B65696E205369676E616C65693A
:100570006E67616E67000A53696E2073656E026173
:100580006C000F53656C657A696F6E6520496E70FB
:1005900075740004A8A9F0F11048658A6F91796319
:1005A000807E928D7065897E9206D5D6FDFED7FC41
:1005B00006D5D6A8A9D7FC034875650005436F6C1E
:1005C0006F720011202059657320202020202020E8
:1005D000204E6F20200011202059657320202020FC
:1005E000202020204E6F2020000D57686974652060
:1005F00042616C616E6365000C454550524F4D2061
:10060000494E49542E00094348205345415243481E
:1006100020000743482045444954000946494E45B7
:100620002054554E450008545620494E505554000C
:100630000A4261636B204C696768740001200C46B4
:100640006163746F7279204D656E750020202020E3
:10065000202020202020202020202020202020209A
:1006600020202020202020202020000E4C696768B8
:100670007420436F6E7472617374000C4C69676808
:100680007420427269676874000D4C696768742051
:1006900048205374617274000D4C69676874204877
:1006A000205769647468000D4C696768742056208F
:1006B0005374617274000D4C696768742056204849
:1006C00069676874000C4C6967687420456E6162E4
:1006D0006C65000C41737065637420526174696FBE
:1006E000000E436C6F7365642043617074696F6EB4
:1006F000000B4D50414120526174696E67000954EE
:100700005620526174696E670006547265626C65AA
:1007100000044261737300FF0016FF0022FF002EE9
:10072000FF003AFF0047FF0053FF0060FF005AFF41
:10073000005DFF0068FF0072FF007DFF0087FF0083
:1007400092FF009DFF00AAFF00A4FF00A7FF00B4D6
:10075000FF00BBFF00C2FF00C9FF00CFFF00D6FFB4
:1007600000DBFF00E0FF00E3FF00E6FF00EDFF001D
:10077000F5FF00FBFF0102FF0109FF010EFF01165B
:10078000FF011BFF0016FF0022FF002EFF003AFFB3
:100790000047FF0053FF0060FF005AFF005DFF01AC
:1007A00020FF012CFF0138FF0144FF0150FF015DD4
:1007B000FF0165FF0172FF0177FF017CFF0188FFE8
:1007C0000194FF01A0FF01ACFF01B9FF01C1FF01CE
:1007D000CFFF01D4FF0265FF0273FF0281FF028F8A
:1007E000FF029DFF02ACFF02B4FF02C1FF02C6FF81
:1007F0000265FF0273FF0281FF028FFF029DFF026D
:10080000ACFF02B4FF02C1FF02C6FF0456FF04643E
:10081000FF046FFF047CFF048BFF0498FF04A1FF1B
:1008200004ACFF04B3FF05BCFF05BCFF05BCFF051E
:10083000BCFF05BCFF05BCFF05BCFF05BCFF05BC3C
:10084000FF05B7FF05B7FF05B7FF05B7FF05B7FF02
:1008500005B7FF05B7FF05B7FF05B7FF063CFF0665
:100860003CFF063CFF063CFF063CFF063CFF063C07
:10087000FF063CFF063CFF063CFF063CFF063CFF34
:10088000063CFF063CFF063CFF063CFF063CFF061D
:100890003CFF063CFF063CFF063CFF063CFF063CD7
:1008A000FF063CFF063CFF063CFF063CFF063CFF04
:1008B000063CFF063CFF063CFF063CFF063CFF06ED
:1008C0003CFF063CFF063CFF063CFF063CFF063CA7
:1008D000FF063CFF063CFF063CFF063CFF063CFFD4
:1008E000063CFF021CFF0227FF0230FF0239FF0215
:1008F00042FF024DFF0254FF025DFF0261FF063C12
:10090000FF063CFF063CFF063CFF063CFF063CFFA3
:10091000063CFF063CFF063CFF063CFF063CFF068C
:100920003CFF063CFF063CFF063CFF063CFF063C46
:10093000FF063CFF063CFF063CFF063CFF063CFF73
:10094000063CFF063CFF063CFF063CFF063CFF035F
:10095000D4FF03DCFF03E4FF03F0FF03F9FF04010E
:10096000FF0406FF0410FF0415FF032FFF032FFFF2
:10097000032FFF032FFF032FFF032FFF032FFF037F
:100980002FFF032FFF063CFF063CFF063CFF063C03
:10099000FF063CFF063CFF063CFF063CFF063CFF13
:1009A0000630FF0630FF0630FF0630FF0630FF0638
:1009B00030FF0630FF0630000000FF063CFF063C1B
:1009C000FF063CFF063CFF063CFF063CFF063CFFE3
:1009D000063CFF063CFF063CFF063CFF063CFF06CC
:1009E0003CFF063CFF063CFF063CFF063CFF063C86
:1009F000FF063CFF063CFF063CFF063CFF063CFFB3
:100A0000063CFF063CFF063CFF063CFF063CFF069B
:100A10003CFF063CFF063CFF063CFF063CFF063C55
:100A2000FF063CFF063CFF063CFF063CFF063CFF82
:100A3000063CFF063CFF063CFF063CFF063CFF066B
:100A40003CFF063CFF063CFF063CFF063CFF063C25
:100A5000FF063CFF063CFF063CFF063CFF063CFF52
:100A6000063CFF063CFF063CFF063CFF063CFF063B
:100A70003CFF063CFF063CFF063CFF063CFF063CF5
:100A8000FF063CFF063CFF063CFF063CFF063CFF22
:100A9000063CFF066BFF066BFF066BFF066BFF064F
:100AA0006BFF066BFF066BFF066BFF066BFF067B9B
:100AB000FF067BFF067BFF067BFF067BFF067BFFB7
:100AC000067BFF067BFF067BFF0689FF0689FF0684
:100AD00089FF0689FF0689FF0689FF0689FF0689C7
:100AE000FF0689FF0698FF0698FF0698FF0698FF05
:100AF0000698FF0698FF0698FF0698FF0698FF06DF
:100B0000A7FF06A7FF06A7FF06A7FF06A7FF06A7E2
:100B1000FF06A7FF06A7FF06A7FF06B6FF06B6FF5C
:100B200006B6FF06B6FF06B6FF06B6FF06B6FF0618
:100B3000B6FF06B6FF061BFF061BFF061BFF061BC4
:100B4000FF061BFF061BFF061BFF061BFF061BFF06
:100B50000709FF0709FF0709FF0709FF0709FF0743
:100B600009FF0709FF0709FF0709FF0711FF071121
:100B7000FF0711FF0711FF0711FF0711FF0711FF03
:100B80000711FF0711FF063CFF063CFF063CFF066E
:100B90003CFF063CFF063CFF063CFF063CFF063CD4
:100BA000FF041AFF0420FF0426FF0436FF0440FF61
:100BB0000446FF044BFF0450FF0453FF02CBFF0227
:100BC000D9FF02E7FF02F6FF0304FF0312FF03173A
:100BD000FF0325FF032AFF01D9FF01E1FF01E9FF20
:100BE00001F4FF01FFFF020BFF0210FF0216FF02DC
:100BF00019FF05E9FF05E9FF05E9FF05E9FF05E93B
:100C0000FF05E9FF05E9FF05E9FF05E9FF033FFFF0
:100C1000034FFF0367FF037CFF0392FF03AAFF0359
:100C2000C4FF03B2FF03BBFF063CFF063CFF063CCC
:100C3000FF063CFF063CFF063CFF063CFF063CFF70
:100C4000063CFF06C5FF06C5FF06C5FF06C5FF0635
:100C5000C5FF06C5FF06C5FF06C5FF06C5FF06D3CF
:100C6000FF06D3FF06D3FF06D3FF06D3FF06D3FF4D
:100C700006D3FF06D3FF06D3FF063CFF063CFF0664
:100C80003CFF063CFF063CFF063CFF063CFF063CE3
:100C9000FF063CFF063CFF063CFF063CFF063CFF10
:100CA000063CFF063CFF063CFF063CFF063CFF04FB
:100CB000BAFF04C8FF04DAFF04F4FF0504FF04BA16
:100CC000FF04BAFF04BAFF04BAFF0542FF0553FF51
:100CD0000562FF0576FF0582FF0593FF0598FF0576
:100CE000A9FF05B0FF05F8FF05F8FF05F8FF05F8B7
:100CF000FF05F8FF05F8FF05F8FF05F8FF05F8FF09
:100D00000606FF0606FF0606FF0606FF0606FF06A6
:100D100006FF0606FF0606FF0606FF0612FF06127E
:100D2000FF0612FF0612FF0612FF0612FF0612FF51
:100D30000612FF0612FF061BFF061BFF061BFF061F
:100D40001BFF061BFF061BFF061BFF061BFF061BE8
:100D5000FF0626FF0626FF0626FF0626FF0626FFBD
:100D60000626FF0626FF0626FF0626FF06E1FF06EB
:100D7000E1FF06E1FF06E1FF06E1FF06E1FF06E114
:100D8000FF06E1FF06E1FF0606FF0606FF0606FF77
:100D90000606FF0606FF0606FF0606FF0606FF0616
:100DA00006FF0612FF0612FF0612FF0612FF0612CA
:100DB000FF0612FF0612FF0612FF0612FF061BFFB8
:100DC000061BFF061BFF061BFF061BFF061BFF067D
:100DD0001BFF061BFF061BFF0626FF0626FF062637
:100DE000FF0626FF0626FF0626FF0626FF0626FF2D
:100DF0000626FF03D4FF03DCFF03E4FF03F0FF0339
:100E0000F9FF0401FF0406FF0410FF0415FF041A94
:100E1000FF0420FF0426FF0436FF0440FF0446FFC2
:100E2000044BFF0450FF0453FF0709FF0709FF07A6
:100E300009FF0709FF0709FF0709FF0709FF07095E
:100E4000FF0709FF0711FF0711FF0711FF0711FF38
:100E50000711FF0711FF0711FF0711FF07110455C5
:100E6000736572000D5506696E697469616C69730A
:100E70006572000842656E13747A657200075573D7
:100E8000756172696F00065574656E74650004D2F1
:100E9000D3F8D30C966F9462336F8261806594624D
:100EA00005E2E3E4BBB005E2E3E4BBB0053933306F
:100EB00030240005373530302400053635303024F5
:100EC0000005735247422400FF0EACFF0EB3FF0E25
:100ED000BAFF0EC1FF0E5EFF0EACFF0EB3FF0EBADF
:100EE000FF0EC1FF0E64FF0EACFF0EB3FF0EBAFF84
:100EF0000EC1FF0E73FF0EACFF0EB3FF0EBAFF0E56
:100F0000C1FF0E7DFF0EACFF0EB3FF0EBAFF0EC188
:100F1000FF0E86FF0EACFF0EB3FF0EBAFF0EC1FF31
:100F20000E8EFF0EACFF0EB3FF0EBAFF0EC1FF0E0A
:100F300093FF0EACFF0EB3FF0EBAFF0EC1FF0EA063
:100F4000FF0EACFF0EB3FF0EBAFF0EC1FF0EA603DD
:100F50005265640005526F7567650003526F740037
:100F600004526F6A6F0005526F73736F0001920530
:100F70004B7061637F02F0A602E6A60547726565C5
:100F80006E00045665727400044772136E000556B5
:100F90006572646500055665726465000196059387
:100FA0006594657F02EFA602E7A604426C756500B2
:100FB00004426C65750004426C61750004417A75E9
:100FC0006C0003426C7500019306437E7F65856F5C
:100FD00002F1A602E8A6FF0F4FFF0F7BFF0FAAFF4B
:100FE0000F54FF0F82FF0FB0FF0F5BFF0F88FF0F43
:100FF000B6FF0F60FF0F8EFF0FBCFF0F66FF0F9550
:10100000FF0FC2FF0F6DFF0F9CFF0FC7FF0F6FFF9A
:101010000F9EFF0FC9FF0F75FF0FA4FF0FD0FF0F2B
:1010200078FF0FA7FF0FD00455736572000B55743E
:10103000696C69736174657572000842656E13743A
:101040007A657200075573756172696F0006557491
:10105000656E74650004D2D3F8D305E2E3E4BBB057
:1010600005E2E3E4BBB00C966F9462336F4261809B
:10107000659462FF1027FF102DFF103AFF1044FF08
:10108000104DFF1055FF1066FF1060FF105A054508
:101090006E7465720006456E747265650007456979
:1010A0006E676162650005496E74726F0005456E7A
:1010B0007465720002FCED02E2E302E2E3044282A4
:1010C0006F8E0653656C656374000B539798999AFD
:1010D0009B6F6E6E6572065702686C656E000653F4
:1010E000656C65632E000953656C657A696F6E6582
:1010F0000002B19502D0D102B19405427B836F709A
:101100000641646A7573740007416A757374657289
:10111000000A45696E7374656C6C656E0007416A00
:101120007573746172000B5265676F6C617A696FD9
:101130006E650002BEBF02BDBF02BEBF094861634B
:1011400080706F7D6B61FF108EFF10C2FF1100FF7A
:101150001095FF10CAFF1108FF109DFF10D6FF1158
:1011600011FF10A6FF10DEFF111DFF10ADFF10E6EE
:10117000FF1126FF10B4FF10F1FF1133FF10BDFF68
:1011800010FAFF113CFF10BAFF10F7FF1139FF10E2
:10119000B7FF10F4FF11360C506963747572652047
:1011A0004D6F6465000C4D6F646520506963747504
:1011B0007265000C50696375747265204D6F6465CB
:1011C000000D4D6F646F2050656C6963756C610034
:1011D000104D6F64616C6974052050696374757299
:1011E00065000C50696374757265204D6F6465000D
:1011F0000C50696374757265204D6F6465000C5006
:10120000696374757265204D6F6465000C50696385
:1012100074757265204D6F6465000954657874209B
:101220004D6F6465000A4D6F646520546578746580
:1012300000164461727374656C6C756E6720766F0E
:101240006E2054657874656E000A4D6F6465207475
:101250006578746F000D4D6F64616C69740520547E
:10126000657874000954657874204D6F64650009D1
:1012700054657874204D6F64650009546578742056
:101280004D6F6465000954657874204D6F64650086
:101290000745636F6E6F6D79000845636F6E6F6D04
:1012A0006965000B5370617273616D6B65697400E1
:1012B0000865636F6E6F6D6961000745636F6E6FE0
:1012C0006D79000745636F6E6F6D79000745636F39
:1012D0006E6F6D79000745636F6E6F6D790007451E
:1012E000636F6E6F6D7900FF1197FF121AFF1290F6
:1012F000FF11A5FF1225FF1299FF11B3FF1231FF55
:1013000012A3FF11C1FF1249FF12B0FF11D0FF124B
:1013100055FF12BAFF11E2FF1264FF12C3FF120C55
:10132000FF1285FF12DEFF11FEFF127AFF12D5FFBA
:1013300011F0FF126FFF12CC0A4175746F20436FDA
:101340006C6F72000B454570726F6D496E69742E3B
:10135000000456636F6D000B426C61636B204C653B
:1013600076656C00015200014700014200034E6F98
:101370007700034D617800034D696E000941757473
:101380006F2054756E6500000021000001002500EB
:1013900001050029000206002D00031100310004A0
:1013A000160035000516003900060C0D0E0001036D
:1013B0000205061100011100010B0A1100010B0AC0
:1013C00011152B28290F0F0F0F0C0D0E10101010D8
:1013D00010101010100907162C2D320907162C2D8D
:1013E000323C1717171717173121222324252638C7
:1013F00039273A2E003F003FFF13382F004C004C96
:10140000FF137C37005E005EFF134419007D0085EA
:10141000FF135100008A0096FF13571A00A400A77B
:10142000FF13641B00AB00AEFF13671C00B200B5D6
:10143000FF136A1200C300C6FF13641300CA00CD75
:10144000FF13671400D100D4FF136A0C00E200E51B
:10145000FF13640D00E900ECFF13670E00F000F3CA
:10146000FF136A0C01010104FF13640D0108010B55
:10147000FF13670E010F0112FF136A0C01200123F5
:10148000FF13640D0127012AFF13670E012E01319E
:10149000FF136A01013F0142FF136D1D014601491F
:1014A000FF13721E014D0150FF137704015E0161AD
:1014B000FF136D1F01650168FF137220016C016F3E
:1014C000FF1377021878E86480F8E933E833601195
:1014D0000460F0ED33EC337009E8FCE9FDEAFEEB63
:1014E000FF220460DED3EB9FEA9EE99DE8C2E78C11
:1014F000F0C2F795F0400CE8CCF8E9CDF9EACEFA65
:10150000EBCFFB12184385D0F05804700320D5B3FD
:10151000E80470075002B2D502188292D5EC04603C
:10152000F7E4CCC0E0C398F8603B94186008400D25
:10153000D0E0FB02185AE4FBFAC9FC8028E830E44A
:1015400006E4C9FBE4CAFCE830E305E4C9CACBFC05
:10155000E854076010F8C3E913F9EA13FAEB13FB38
:10156000EC13FCD8F130F52FC3E49CFCEF9BFFEEAD
:101570009AFEED99FDD0E0FBEF4E4D4C701222DB50
:101580000302187FEC2CFCEF33FFEE33FEED33FD4E
:10159000ED30E7EB02185AEF2BFFEE3AFEED39FD86
:1015A000D0E0FB50130BBB0003021882ED13FDEEDD
:1015B00013FEEF13FFEC13FC02185AEC4D6011E818
:1015C000497017ED33EC3304600DE4FCFFFEFD229F
:1015D000E933E8330470F8021878121843580460AD
:1015E00009E4CC24815006285009021882284003BF
:1015F00002187FC0E0EB4A7044B98006D0E0FB02DD
:10160000186EEF4E701CBD8008EBFFEAFEE9FD800E
:10161000EBE98DF0A4FEE5F00216A4E9CDF9EAFEAF
:10162000EBFFEF89F0A4FCE5F0CE89F0A42EFFE4F7
:1016300035F0CD89F0A42DFEE435F08067EF4E70D3
:1016400005BD80D780C3EF8BF0A4ACF0EE8BF0A487
:101650002CFCE435F0F8EF8AF0A42CE5F038FCE43B
:1016600033CB8DF0A42CFCE5F03BF8EE8AF0A42CF3
:10167000FCE5F038F8E433CF89F0A42CFCE5F03831
:10168000CF3400CE89F0A42FFFE5F03EFEE433C94D
:101690008DF0A42EFEE5F039CD8AF0A42FFFE5F001
:1016A0003EFEE43DFD33D0E0FB50070BBB000F02D4
:1016B0001882EC2CFCEF33FFEE33FEED33FD021805
:1016C0005A021882EC5D046005E8590470030218A0
:1016D00078121843580460F6EC4860F2EC7004FD90
:1016E000FEFF22C860DB2481C85009C39860025005
:1016F0000602187F9850CAF582E9294B4A7005AB5B
:101700008202186E75F0007C1A7880C3EF9BEE9A07
:10171000ED99400DC3EF9BFFEE9AFEED99FDE84277
:10172000F0DC23ACF0D0E0FFD0E0FED0E0FDAB82F7
:1017300020E7101BEB60BAEC2CFCEF33FFEE33FE1E
:10174000ED33FD02185AE803F830E705C0F075F0F4
:1017500000EF2FFFEE33FEED33FD40B830E7C280DF
:10176000AA74F8CC6480CCC86480C8F58204604355
:10177000C3EB9FF5F0EA9E42F0E99D42F0E89C45FC
:10178000F060305018E5825FFFE582F42B5582FB54
:1017900050210ABA001D09B90019088016E5825BBC
:1017A000FBE582F42F5582FF50090EBE00050DBDEA
:1017B00000010CC3EB9FF5F0EA9E42F0E99D42F078
:1017C000E89C45F06007CC4820E701B3EC2275F0B7
:1017D00020800E75F010800575F0087D007E007F7A
:1017E000003392D530D503121DCFEC334010EF33C8
:1017F000FFEE33FEED33FDEC33FCD5F0ED22E5F0EA
:10180000247EA2D513CC92E7CDCEFF22EDD2E7CD38
:1018100033EC3392D524814006E4FFFEFDFC22FC2C
:10182000E4CFCECDCC24E0501174FF80EDC3CC13B7
:10183000CCCD13CDCE13CECF13CF0470F030D5DE88
:10184000021DCFE9D2E7C933E833F892D5EDD2E7EC
:10185000CD33EC33FC5002B2D522EC30E7100FBF91
:10186000000C0EBE00080DBD00040BEB6014A2D5E9
:10187000EB13FCED92E7FD2274FFFCFDFEFF22E47A
:1018800080F8A2D574FF13FC7D80E480EFF920E797
:101890002824F950037907E4F42402FB18DBFDE661
:1018A00024FB5014E9600DE4F618E604F6B40A08C7
:1018B000E4F6D9F57401F60A22C2D522ED33EC33F1
:1018C00092D5FA602AB4FF33EDC2E77BFF60067A57
:1018D0001879E1E4227A1879EA20D5047A1879E5B2
:1018E000224E614E002B494E46002D494E4600E4E3
:1018F0007A08F608DAFC7B00740722E8C0E0ECC046
:10190000E0EDC0E0EEC0E0EFC0E0EA75F010A4CA80
:10191000ABF075F04DA42BFBE435F0FCEA2410FA93
:10192000EB34C5FBEC34D9FCEDC2E7FF75F056A4EF
:10193000F42411C5F0F434C58FF0A42AE5F03BE49B
:101940003CF620E7141219EFD0E0FFD0E0FED0E023
:10195000FDD0E0FC1216C48014F4041219EFD0E09C
:10196000FFD0E0FED0E0FDD0E0FC1215BBD0E0F8E7
:10197000E6FAEDD2E7CD33EC332482FBE4C3CF3378
:10198000CFCE33CECD33CD33DBF37B0775F00A8476
:101990006004F6081B0AE5F0F6088FF0740AA4FF4D
:1019A000ACF08EF0740AA42CFEACF050010C8DF05B
:1019B000740AA42CFDE435F0F608DBDE7407223F40
:1019C0008000004120000042C80000447A00004628
:1019D0001C400047C35000497424004B1896804CAB
:1019E000BEBC205A0E1BCA6753C21C749DC5AEFBF9
:1019F00060065407601C2323121A1DEB543860093B
:101A0000121A09121A181215BBECF8EDF9EEFAEFDA
:101A1000CB22EB121A1880F1543803241C9019BF02
:101A2000FE93FC0EEE93FD0EEE930ECE93FF22E797
:101A300009F608DFFA8046E709F208DFFA803E88F7
:101A4000828C83E709F0A3DFFA8032E309F608DF2E
:101A5000FA8078E309F208DFFA807088828C83E3E9
:101A600009F0A3DFFA806489828A83E0A3F608DFA5
:101A7000FA805889828A83E0A3F208DFFA804C80DA
:101A8000D280FA80C680D4806980F2803380108052
:101A9000A680EA809A80A880DA80E280CA803389B2
:101AA000828A83ECFAE493A3C8C582C8CCC583CCF0
:101AB000F0A3C8C582C8CCC583CCDFE9DEE7800DC2
:101AC00089828A83E493A3F608DFF9ECFAA9F0EDA2
:101AD000FB2289828A83ECFAE0A3C8C582C8CCC500
:101AE00083CCF0A3C8C582C8CCC583CCDFEADEE8CE
:101AF00080DB89828A83E493A3F208DFF980CC88B3
:101B0000F0ED2402B4040050C2F582EB2402B404C8
:101B10000050B823234582F582EF4E60AEEF60019E
:101B20000EE58223901A7F73BB010689828A83E0C7
:101B3000225002E722BBFE02E32289828A83E493D9
:101B400022BB010CE58229F582E5833AF583E02288
:101B50005006E92582F8E622BBFE06E92582F8E276
:101B600022E58229F582E5833AF583E49322BB01DD
:101B70000689828A83F0225002F722BBFE01F322FB
:101B8000F8BB010DE58229F582E5833AF583E8F09B
:101B9000225006E92582C8F622BBFE05E92582C847
:101BA000F222EFF88DF0A4FFEDC5F0CEA42EFEECEE
:101BB00088F0A42EFE22BC000BBE0029EF8DF0841D
:101BC000FFADF022E4CCF875F008EF2FFFEE33FE06
:101BD000EC33FCEE9DEC984005FCEE9DFE0FD5F03D
:101BE000E9E4CEFD22EDF8F5F0EE8420D21CFEAD46
:101BF000F075F008EF2FFFED33FD4007985006D544
:101C0000F0F222C398FD0FD5F0EA22C5F0F8A3E068
:101C100028F0C5F0F8E582158270021583E038F0EF
:101C200022BB010A89828A83E0F5F0A3E0225006F4
:101C300087F009E71922BBFE07E3F5F009E3192253
:101C400089828A83E493F5F074019322BB0110E545
:101C50008229F582E5833AF583E0F5F0A3E022508E
:101C600009E92582F886F008E622BBFE0AE925820A
:101C7000F8E2F5F008E222E5832AF583E993F5F02E
:101C8000A3E99322F8BB0111E58229F582E5833AA5
:101C9000F583E8F0E5F0A3F0225009E92582C8F6C3
:101CA00008A6F022BBFE0AE92582C8F2E5F008F298
:101CB0002222E88FF0A4CC8BF0A42CFCE98EF0A4B7
:101CC0002CFC8AF0EDA42CFCEA8EF0A4CDA8F08BBD
:101CD000F0A42DCC3825F0FDE98FF0A42CCD35F003
:101CE000FCEB8EF0A4FEA9F0EB8FF0A4CFC5F02E94
:101CF000CD39FEE43CFCEAA42DCE35F0FDE43CFCFD
:101D00002275F008758200EF2FFFEE33FECD33CD44
:101D1000CC33CCC58233C5829BED9AEC99E5829891
:101D2000400CF582EE9BFEED9AFDEC99FC0FD5F090
:101D3000D6E4CEFBE4CDFAE4CCF9A88222B800C107
:101D4000B90059BA002DEC8BF084CFCECDFCE5F074
:101D5000CBF97818EF2FFFEE33FEED33FDEC33FCBB
:101D6000EB33FB10D703994004EB99FB0FD8E5E464
:101D7000F9FA227818EF2FFFEE33FEED33FDEC3346
:101D8000FCC933C910D7059BE99A4007EC9BFCE9D5
:101D90009AF90FD8E0E4C9FAE4CCFB2275F010EF11
:101DA0002FFFEE33FEED33FDCC33CCC833C810D754
:101DB000079BEC9AE899400AED9BFDEC9AFCE899A8
:101DC000F80FD5F0DAE4CDFBE4CCFAE4C8F922C38D
:101DD000E49FFFE49EFEE49DFDE49CFC22EB9FF566
:101DE000F0EA9E42F0E99D42F0EC6480C86480987D
:101DF00045F022EB9FF5F0EA9E42F0E99D42F0E8C3
:101E00009C45F022E8600FECC313FCED13FDEE13CC
:101E1000FEEF13FFD8F122E86010ECA2E713FCED0F
:101E200013FDEE13FEEF13FFD8F022E8600FEFC3AF
:101E300033FFEE33FEED33FDEC33FCD8F122E493B7
:101E4000FCA3E493FDA3E493FEA3E493FF22ECF050
:101E5000A3EDF0A3EEF0A3EFF022A8828583F0D0EB
:101E600083D082121E71121E71121E71121E71E435
:101E700073E493A3C583C5F0C583C8C582C8F0A326
:101E8000C583C5F0C583C8C582C822A42582F58252
:101E9000E5F03583F58322FAE6FB0808E6F925F03C
:101EA000F618E6CA3AF622D083D082F8E49370128C
:101EB000740193700DA3A393F8740193F582888342
:101EC000E4737402936860EFA3A3A380DF125658F3
:101ED000301B28125A6F50237878E614601D146066
:101EE0001A24F2601624F06012249024FD500C2471
:101EF000FE24F950068000E47878F6789AE6600FC0
:101F00007878E6FF64016007EF64026002E4F6900F
:101F1000F593E0FF90F592E0FEB402027F0790F4A3
:101F200050E0FCA3E0FDD39402EC9400EF40059058
:101F30005EC88003905ED09390F487F0ED64014C0E
:101F4000700BEF700890F4877403F08015C390F461
:101F500051E09402125A764009EF700690F48774AB
:101F600005F0201D09BF050690F4877403F090F575
:101F700094E0FFB40104A3E08005EFB40205E4900F
:101F8000F421F0EE60030221297878E6121EA71FE3
:101F9000E602212304205308208B1020C220205366
:101FA000921FB493211E9A211E9B208B9C20C29DC0
:101FB0000000212930020302212930311312544F2D
:101FC000126AEF126AFB90F00574CFF0C2318011F3
:101FD00012544F126AE3126B0790F00574FFF0D2AF
:101FE00031D21202212930020302260D788EE670CA
:101FF00055301103125454126B4390F451E004F025
:10200000700690F450E004F0D390F451E09405127F
:102010005A764004E4F0A3F0125A6F500BD21BC260
:102020001C787B761B08765812539BC219E4FBFD83
:10203000FF1253C890F451E0FD7F057E0212691C27
:1020400012533CD21222788EE6640A600302260DF7
:10205000024F1590F59220020A7401F0E490F59574
:10206000F0801A7402F090F59504F090F440E4F0DA
:10207000A37402F0FF7E00126507125346E490F548
:1020800093F0A3F090F5960402242B20021290F412
:1020900050E07004A3E064056006125459D2122285
:1020A00090F450E07004A3E06405600302260D90F4
:1020B000F47EE0FF64076004EFB4080302545E029C
:1020C000546320023790F450E0FEA3E0FF64054E15
:1020D000602A90F592E0600302260D7885E664039D
:1020E000700302260D30020302260DEF4E6003023C
:1020F000260DD2127F031253A00253A590F450E094
:102100007004A3E06405600302260D90F47EE0FFF6
:1021100064076004EFB4080302546802546D125A55
:102120007DF022125A7D02242B7878E6121EA72514
:102130004401252B02217B08256F0922CF20254948
:102140003024CB402597802597812597822597833A
:102150002597842597852597862597872597882510
:10216000978925948F254490252B91217B922308D4
:102170009A23DE9B22CF9D0000260D90F592E0FF72
:10218000B4021F90F594E0FE700704F090F596807D
:102190000BEE640160030222CC125ACF740AF002E3
:1021A00022CCEF6405702B90F594E0FF700F125B6A
:1021B00005640560030222CC90F4518055EF640160
:1021C00060030222CC125B3F125B224002E4F00269
:1021D00022AD125AE550030222CCEF9404400302D0
:1021E00022CC90F594E0FF7041125B05FEB4021B17
:1021F00090F450E07004A3E06405600C7891E6640C
:102200002A600590F441800AE48018EEB403069039
:10221000F443E0800E90F593E0B4050690F451E0AD
:102220008001E490F595F00222CCEF640160030296
:1022300022B290F592E0B403173002030222CC9050
:10224000F595E0700404F08005E490F595F0805D6C
:10225000125B3F90F593E0B4041D78A4E6FF64049C
:102260006015EFC394064005EF940D400A90F59574
:10227000E0B405037406F0125B224002E4F090F42F
:1022800050E07004A3E06405700E90F593E090F5C3
:1022900096B403028012803190F593E0FF640360EE
:1022A00004EFB4020890F5967404F0801F90F59640
:1022B000801790F594E0B40213A3E004F0E0C39417
:1022C0000740037404F090F5967406F0D212229041
:1022D000F594E0700302250C90F592E0FF64037022
:1022E0000302250CEF6404700302250CEF640570F3
:1022F0000302250CEFB4060302250C90F594E0B41C
:102300000203022516022523125AE54006EFD39454
:10231000054008EF6406600302260D90F594E0FF87
:10232000703790F592E0B4021990F595E07008903E
:10233000F487E090F595F090F595E014F0A374071C
:10234000F02290F593E070037407F090F593E01499
:10235000F090F596740902242B90F593E0FEB405F5
:1023600003022437EE6402704A7891E6642A6043DF
:1023700090F450E07004A3E064056020EFB4010F16
:1023800090F440E07004A3E06403700302246590BD
:10239000F594E06402600302260D801590F594E048
:1023A000FFB401057402F0802EEF64026003022680
:1023B0000D802490F593E0B40412A3E0B4010B78EF
:1023C00091E6B43C05E4FF0224B1800B90F593E064
:1023D0006403700302260D90F5967405F022125ADC
:1023E000E54006EFD394054008EF6406600302263B
:1023F0000D90F594E0FF703790F592E0B402191259
:102400005B3F90F487E0FE90F595E0C39E4002E4C8
:10241000F090F5967406F02290F593E004F0E0C396
:1024200094074002E4F090F5967408F0D2122290DE
:10243000F593E0FEB4050690F596022527EE6402BA
:10244000705B7891E6642A605490F450E07004A3C5
:10245000E06405602BEFB4011790F440E07004A332
:10246000E06403700B7402125A8DF090F59580575A
:1024700090F594E06402600302260D90F596804783
:1024800090F594E0FFB401087402F090F59680375F
:10249000EF6402600302260D90F596802A90F59372
:1024A000E0B40415A3E0B4010B7891E6B43C057FD9
:1024B0000102547290F596800E90F593E0640370DB
:1024C0000302260D90F5967404F02290F592E070C8
:1024D0001E7885E66403601720021490F450E070C3
:1024E00002A3E0700AD2127F031253A01253A590E8
:1024F000F594E0601790F592E0FF6403600EEF64DE
:10250000046009EF64056004EFB4060302539B9076
:10251000F594E0B4020D7401F090F441125AD674AF
:1025200001F022E4125ACF7402F02290F592E0B446
:10253000040F90F5947401F090F5967404F0125B1A
:1025400012D21222D212025F7620020302260D90CE
:10255000F592E06402600302260DC22990F5B112E3
:102560001E5A0000000012665E125477D229222003
:10257000180302260D30010302260D301103022636
:102580000DD201AD207402FFFE12691CD23E12531F
:102590006ED21222026B4390F592E0FF6003B40604
:1025A0001312539B12547C90F5927405F090F41022
:1025B0007401800C90F592E0B4050C90F410E004E6
:1025C000F090F41974F4F07F087E02126999EF30EC
:1025D000E70B90F410E0C39404500280147F087E4F
:1025E00002126999EF20E71490F410E0C3940350AD
:1025F0000B7878E6547FFF1254818008E490F41041
:10260000F012539BD2127F327E001265512290F558
:1026100096E07003022C9EC23D90F592E0FF6401AB
:102620006012EF6403600DEF64056008EF640660FC
:1026300003022AFA90F594E0FF64016008EF640257
:10264000600302274190F593E0B40700400302279E
:1026500041902658F828287302266D0226CB0226C0
:10266000DB02270202271102272002272F124E1F0A
:102670004E701090F595E09013AD124D719013AD22
:10268000022700EF64014E701090F595E09013B4AE
:10269000124D719013B4022700124E1F64024E7047
:1026A0000F90F595E09013B7124D719013B78050CD
:1026B000D3EF9402EE9400500302274190F595E089
:1026C0009013BC124D719013BC803590F595E0903D
:1026D00013C1124D719013C102273C90F450E07069
:1026E00004A3E0640590F595600CE09013C5124DCD
:1026F000719013C5800AE09013EF124D719013EFA3
:10270000803A90F595E09013CC124D719013CC80E7
:102710002B90F595E09013D5124D719013D5801C38
:1027200090F595E09013E2124D719013E2800D90B8
:10273000F595E09013E8124D719013E89390F40C26
:10274000F090F40CE0B40F2690F440E07004A3E0A5
:102750006403701A90F594E0B4021390F593E024AA
:10276000FE700B90F595E09013C5937891F67891F3
:10277000E6FFC3942A50030228BC90F596E0FE645D
:10278000046008EE64056003022AF4EF121EA72716
:10279000D32B27DA2C27AE2D27E23127EF3228382A
:1027A0003828573928733A28A53C00002AF47F01BD
:1027B00012539612539BD23E12437F90F450E07016
:1027C00002A3E06003022AF47F031253A01253A570
:1027D000022AF4B2041268898002B205122C9F0208
:1027E0002AF4B22CA22CE433FD7F307E018043B268
:1027F00036124D084003022AF47F807E0012686C76
:102800008F2B7F807E00122CB87F6E7E0112686C49
:102810008F2A7F6E7E01122CB81253AA7F147E007D
:102820001269AFAD2A7F6E7E01126969AD2B7F8080
:102830007E00126969022AF41253AF7F041253B466
:102840007F327E0012655190F593E0FF90F595E0A0
:10285000FD1253B9022AF4302A04C22A8002D22A75
:10286000A22AE433FF1253BEA22AE433FF1253C359
:10287000022AF47F087E02126999AD076305807F02
:10288000087E0212691C12539BE4FBFDFF1253C821
:102890007F647E0012655190F40DE0FF1253CD125B
:1028A00053D2022AF47FF07E07126999EF24FF9237
:1028B00032A232E433FF1253D7022AF4122CA96059
:1028C0000DEF64046008EF64026003022AD9125419
:1028D000B47891E6121EA7292F00294001294E0243
:1028E000296103297404297605298906299C072969
:1028F000A20A29AF0B29BC0C29BC0D29BC0E29D179
:102900000F29E0102A4E112A9D152A5F162A6417F6
:102910002AAF212AAA222AB4232AB9242ABE252A88
:10292000C3262AC8272AD2282ACD2900002AD51250
:102930004D085006125341022AD51253DC022AD503
:10294000124D0850030229CB1253E1022AD590F40C
:1029500050E07002A3E06003022AD51253E6022A77
:10296000D590F450E07002A3E06003022AD5125320
:10297000EB022AD5806490F450E07002A3E060037B
:10298000022AD51253F0022AD590F450E07002A327
:10299000E06003022AD51253F5022AD51253FA0237
:1029A0002AD5124D08500280221253FF022AD51256
:1029B0004D0850028015125404022AD590F440E0CC
:1029C0007004A3E064036003022AD5125346022A6E
:1029D000D5124E6812650712534612684E022AD568
:1029E00090F442E07004A3E0640570187BFF7A9CC9
:1029F00079CA755D04755EBFFE122CC17BFF7A9C9F
:102A0000790D803890F442E0FEA3E0FF64074E6049
:102A100006EF64084E701F7BFF7A95799E755D0501
:102A2000755E107E00122CC17BFF7A9B796B755D01
:102A300000755EA2800C7BFF7A9A79AE755D007599
:102A40005EBD7DA07F907E00125409022AD5124DF2
:102A500008500612540E022AD5125413022AD51217
:102A60005418807190F594E06401702CA3E090F408
:102A700050124ECBE0FD7F057E0212691C126B43A3
:102A800012539BC214C219E4FBFDFF1253C8126714
:102A9000F01265DDC21C803D12539B8038C20412C7
:102AA0006889122C9F1269C3802B12534B80261207
:102AB00053508021125355801C12535A80171253C1
:102AC0005F8012125364800D125CDE800812541D68
:102AD0008003125422D23D801B90F596E0FF6406DD
:102AE0006004EFB4070E7891E6FF24E97006124AFD
:102AF000CB1254B4303D03124EC090F592E0640204
:102B00006003022C5490F595E075F008A424F3F5C9
:102B100082E43413F583E4937891F6C3942A500346
:102B2000022BA490F596E0640A6003022C54E6247C
:102B3000D1604324F8602124096003022C5490F4EE
:102B400050E07002A3E06003022C5412539B7F04F8
:102B50001253A0125427803612539B7F051253A0A4
:102B6000124F15D23E12437F125337122CC990F5E3
:102B70009514F0E4802090F450E07002A3E060032C
:102B8000022C5412539B7F031253A01253A5122CF4
:102B9000C9E490F595F090F593F0A3F090F59604C4
:102BA000F0022C54122CA96005EF6404706B1254CF
:102BB000B47891E6121EA72BE2002C0F012BE7043C
:102BC0002C0F0C2C0F0D2C0F0E2BEC122BF0132BAB
:102BD000F4142C0A192BFB1A2BFF1B2C031C0000CE
:102BE0002C12125341802B12684E80267F128006D1
:102BF0007F1380027F1412542C80177F1A80067F67
:102C00001B80027F1C1254318008126B5B80031200
:102C10005346D23D124EC0803B90F596E0FF6406CD
:102C20006005EF6407702D7891E624F424FD5002CE
:102C3000801090F595E024F575F00384FF124E287E
:102C4000800C90F440E4F0A37403F0FF7E00126562
:102C50000712534690F592E06404704290F594E0B8
:102C60006401703A30070EC206B20790F42AF0A34E
:102C7000747FF0801730060AD207124E83742EF04C
:102C8000800AC207B206124E837449F012684EAD34
:102C9000207402FFFE12691C124ED212691C22AD72
:102CA000207402FFFE12691C227891E6FF124ACBC3
:102CB00090F596E0FF640522E52A54FEFD1269694D
:102CC000227DA07FD01254092212539B90F592745A
:102CD00002F022507265736574204D6F64653A008E
:102CE000202055736572204D6F64653A00483A00A4
:102CF0004B487A00563A00487A004D61783A0020F5
:102D0000204D757465204F6E20200020204D757475
:102D100065204F6666200020204D6F6E69746F72CB
:102D200020420020204D6F6E69746F722041002098
:102D30002052474220410020205247422042004476
:102D40004E50535953202000422F4C002020416EFA
:102D5000616C6F670020202020204456490020200D
:102D6000205950625072002020532D566964656FBF
:102D700000202020566964656F00202043480043EE
:102D80004154560006416E616C6F67000A416E61E6
:102D90006C6F67697175650005416E616C6F6700E6
:102DA00009416E616C0E676963610009416E616C77
:102DB0006F6769636F0004E9EAE0E30A417F6194A9
:102DC0006F856F82957D0291AD02D2D3074469670A
:102DD0006974616C4C00094E756D06726971756598
:102DE00000074469676974616C0007446967697426
:102DF000616C00084469676974616C650004E4EB08
:102E0000ECE806817E90706F826F7D0292B602D4EC
:102E1000C20559506250720005566964656F00071B
:102E2000532D566964656F0002545600FF2D84FFD0
:102E30002D8CFF2D98FF2DA0FF2DABFF2DB6FF2D64
:102E4000BBFF2DC6FF2DC9FF2DCCFF2DD6FF2DE1D9
:102E5000FF2DEAFF2DF3FF2DFDFF2E02FF2E0BFFAE
:102E60002E0EFF2E11FF2E11FF2E11FF2E11FF2E01
:102E700011FF2E11FF2E11FF2E11FF2E11FF2E1FFD
:102E8000FF2E1FFF2E1FFF2E1FFF2E1FFF2E1FFFC7
:102E90002E1FFF2E1FFF2E1FFF2E18FF2E18FF2E96
:102EA00018FF2E18FF2E18FF2E18FF2E18FF2E18B1
:102EB000FF2E18FF2E28FF2E28FF2E28FF2E28FF7A
:102EC0002E28FF2E28FF2E28FF2E28FF2E28007EDA
:102ED000009D00BC00DB00FA0119024E6F00034E9A
:102EE0006F6E00044E65696E00024E6F2E00024E3A
:102EF0006F00024E6F000348658001E901E9035944
:102F0000657300034F756900024A6100025369004E
:102F1000025369000359657300028A6101EA01EAFC
:102F2000FF2EDAFF2EDEFF2EE3FF2EE9FF2EEEFF4F
:102F30002EF2FF2EF6FF2EFAFF2EFCFF2EFEFF2FA5
:102F400003FF2F08FF2F0CFF2F10FF2F14FF2F1947
:102F5000FF2F1CFF2F1E0109011008456E676C69C9
:102F600073682000084672616E1761697300084437
:102F700065757473636820000845737061026F6C37
:102F80002000084974616C69616E6F0003C5C6C496
:102F900007507963637B7E7D04C7C8A2A304A4A500
:102FA000A2A32F5A2F642F6E2F782F822F8C2F9051
:102FB0002F982F9D007E009D00BC00DB00FA008B47
:102FC00000AA00C900E8393330304B373530304B78
:102FD000363530304B2020202020007E009D00BC64
:102FE00000DB434820534541524348434820454471
:102FF0004954202046494E452054554E45545620AC
:10300000494E50555420007E009D00BC00DB00FE60
:10301000011D013C015B00630469026600630469F1
:103020000063006301D1033F033F0063006302229A
:10303000033F033F20442D5355422020204456494E
:10304000202020595062507220532D566964656FBC
:10305000566964656F20202020205456202041644A
:10306000634F6674204164634761696E3933303061
:103070004B2020373530304B2020363530304B2038
:1030800020436F6E742E2020427269672E2020002C
:103090009C00BB00DA00F9011801370156416E614E
:1030A0006C6F672044564920202020205950425000
:1030B0005220532D566964656F00000006060635E0
:1030C00036362F2E370008080308080808080808B5
:1030D000080E0D090208080508080808080808086D
:1030E000070C0B0008080E0D09020808070C0B005E
:1030F00008080809020808080B0104060A0C0D0E4E
:103100000F101112131819161714151C1D024F6EEB
:1031100000024F6E000345696E00044163742E0087
:10312000024F6E00024F4E0004427B942E01F501C7
:10313000A7034F666600034F666600034175730080
:103140000644657361632E00034F666600034F46B5
:1031500046000542957B942E01F601E0FF3131FFD8
:103160003136FF313BFF3140FF3148FF314DFF31F8
:1031700052FF3158FF315AFF310DFF3111FF311528
:10318000FF311AFF3120FF3124FF3128FF312DFF9D
:10319000312F00AC00B30147014E00EA00F1008D71
:1031A000009400EA00F10341697200054361626C1A
:1031B0006500FF31A6FF31AB00AC00B34164640091
:1031C00044656C00FF31C0FF31BC00FE011D013CB5
:1031D0001E1F202122230131000132000133000192
:1031E000340001350031D631D931DC31DF31E20034
:1031F000AC00AE00B000B200B401310001320001F9
:10320000330001340001350031F931FC31FF320265
:1032100032050011001300150017001903343A336A
:103220000003353A3400FF321CFF32210128012F00
:10323000FFFF210003004C8007FF50147F253292CE
:1032400032327F323250323C32323206000A02FFD2
:103250009F918B7C757568B679705A787962808099
:103260008080808080808080483218003200190081
:1032700032006B8568020F004103200410021D001C
:1032800032032004100213010006800F10020D000B
:103290005B04971210013A51F4013A5257013A5225
:1032A000BC017A5352013A61F4013A6257013A6221
:1032B000BC017A635200F84234009DC257013AC102
:1032C000F4013A4257013AC257015E929A015D8277
:1032D0009A0168C2BC017AC2D80177C2EE01B0C3BC
:1032E00052015FF232017AF25B01E8829C01D0F276
:1032F000BC01E0F2D101D4F2EE0218F35201F182E6
:10330000E901362258015D22BB016822CF017822F3
:10331000EE01AE23530190C1F4019C81F401B4C1CC
:10332000F401E30258021B8295023402BC024122DE
:10333000D1025832EE02AEF352021CF250027EF27B
:10334000BC0288F2D0028AF2D002A3F2EE0303E3B9
:103350005202AE82EE026A829302CD82F80258F2E5
:103360005802BCF2BC02D1F2D002EEF2EE035DF3E1
:1033700051020FF1F4027FF25802C2829802ECF27D
:10338000BA02EAF2BA02FFF2D0031FF2EE038FF3A1
:103390005202EEF258032CF28A036BF2BC03A9F23C
:1033A000EE01BF825701DD225800F8C2340151C23C
:1033B0005801DD325801E982570230B2BC0240B2F6
:1033C000D00259B2EE0296002403200010026200DF
:1033D0002403200010023C002403200010023C00C3
:1033E0002403400010027D002803840310020F0014
:1033F00028038404100223002803840310022B00F6
:103400002803A803100220005403500210020F00EA
:10341000410320041002550024032004100221005F
:10342000240320041002210041032004100228007C
:1034300054036004100227005C03800410021C0087
:103440008003480410021D007403400410021100A0
:103450006C03480410021A004403400410021600D2
:1034600074040006100219004C04200610024C00DF
:10347000A5040006100217006004100610021B00CD
:1034800034041006100216009404200610021C00DA
:103490008304180610022800CC04800710021901CA
:1034A0001F0650051002110172065005100212018C
:1034B0006606680510021301A706680510021601CA
:1034C0005C06800510020A007804C8081002330167
:1034D0001805520810020A010F04600810022100AA
:1034E0008C05400810022400A005300810022100BD
:1034F0007C05300810021C009B05200810021D00EE
:103500009A05200810022500BA0560081002200064
:10351000C005C80910022C00C805C8091002200007
:10352000C006000910022000C00640091002210058
:10353000D906400910022A010106100910022701CC
:103540003005B00A10021F013005E00B1002210106
:103550001305C00B100225011107080C10022401ED
:103560003807080C10022400FA06C00C10022401CF
:103570003807080C10023000B806C00C10021A0000
:10358000D006990D10022700D106980D10022100D7
:10359000B806A00D10022C00B806A00D10022600DF
:1035A000B806C00D10022600D006980D10022700A4
:1035B000D006980D10022D00B806C00D10022E0185
:1035C0000708700E10022F010708700E10022F015D
:1035D0000708700E10022E010708700E1002190164
:1035E0003806800F10021A014006901010021300D6
:1035F0004D039F1110020D004504971210021A018D
:103600003D06D01310021A013007001410021A01EF
:103610003D06D01310021A013007001310021A01E0
:10362000300700131000FFFFFFFFFFFF0060E5D130
:1036300007EC0700001E0F01030F2B216EEAF06458
:103640009857519127214F54A30800A94001010127
:103650000181800101010101010101302A0098511D
:10366000002A4030701300510E1100001E000000AF
:10367000FF00584741544520323030353032350054
:103680000000FC0058474154452058473230534D04
:103690000A000000FD00373E1E5211000A202020C3
:1036A000202020008000FFFFFFFFFFFF0060E5D12A
:1036B00007EC0700001E0F0103812B216EEAF06466
:1036C0009857519127214F54A30800A940010101A7
:1036D0000181800101010101010101302A0098519D
:1036E000002A4030701300510E1100001800000035
:1036F000FF005847415445203230303530323500D4
:103700000000FC0058474154452058473230534D83
:103710000A000000FD00373E1E5211000A20202042
:103720002020200014020202020101010101010116
:103730000000000000FFFF68EF00FF0F60C10055B0
:10374000000000000000C000000000000000A50014
:103750000000000000000303E5642450F8E605645F
:1037600022784D3048027850E475F001121E97021D
:103770001B282041EB7F2ED2418018EF540F24905C
:10378000D43440D4FF30450BEF24BFB41A005003AB
:103790002461FFE565600215650568E5687002054E
:1037A0006730480D784DE475F001121E97EF021B4B
:1037B0006E0267867403D2488003E4C248F5648BC6
:1037C0004D8A4E894FE4F565F567F568E565600754
:1037D0007F2012379380F5F566C242C241C243C2D0
:1037E00044C246C247C249123761FF700D304805D6
:1037F0007F001237A4AF68AE6722B42563C2D5C27A
:1038000045123761FF24D0B40A00501E75F00A201B
:10381000D50DC565A42565F5657002D24480E0D25A
:1038200041C566A42566F56680D524CFB41A00EF9D
:103830005004C2E5D245023A8CD24280C2D24180C5
:10384000BCD24380B8D2D580B6D24680B07F201299
:1038500037932043077401B5650040F1123758FFD4
:103860001237930237CCD249D2478091123758FB96
:10387000123758FA123758F94A4B7006797E7A3B5C
:103880007BFF204333E565602FAF66BF00011F7EDD
:10389000008E82758300121B4160050EEE6F70F181
:1038A000C2D5EBC0E0EAC0E0E9C0E0EE123AE7D0F2
:1038B000E0F9D0E0FAD0E0FB121B28FF60A5EBC0D6
:1038C000E0EAC0E0E9C0E0123793D0E02401F9D08B
:1038D000E03400FAD0E0FBE56660DDD566DA80838F
:1038E000D243809E123ACC60F7E56670010412184C
:1038F0008DA966600DE566600914F566123B71EFEF
:1039000060F3EA30E702F404C3995077EAF42566DD
:103910000430E701E404F566800D123ACC60C1EA98
:103920000566256612188DEA7863F630E701E4250E
:103930006604D5660420460114123AE7E4C0E0129A
:103940003B717863E6601320E70714F612377B803B
:103950002204F6D0E014C0E07F0012377BE56660F9
:10396000071237721566800B304603123772D0E0AB
:103970000237CCD0E00480C5123ACC60A0E56604E2
:1039800012188D7863EAF6E5662046026001042489
:1039900004123AE774FF04C0E0123B7112377BE572
:1039A000662046026003123772D0E0B566E87F45B4
:1039B0001237857863E67F2B30E7047F2DF404C04F
:1039C000E0123793D0E075F00A84C0F012377CD053
:1039D000E012377C0237CC791080027908C247C2E6
:1039E000498008D2D5790A8004790AC2D5E4FAFD63
:1039F000FEFF123758FC7B08204213123758FD7B1C
:103A00001030410A123758FE123758FF7B20EC3332
:103A100082D592D55013C3E43041069FFFE49EFE49
:103A2000E42042039DFDE49CFCE4CBF8C242EC7030
:103A30000CCFCECDCCE824F8F870F38017C3EF3369
:103A4000FFEE33FEED33FDEC33FCEB33FB9940022C
:103A5000FB0FD8E9EB304205F8D0E0C448B242C0D1
:103A6000E00AEC4D4E4F78207B0070C2EAC0E012B5
:103A70003AE9D0F0D0E0204204C4C0E0C4B242C071
:103A8000F012377CD0F0D5F0EB0237CC121EA738FD
:103A90006C5339D758383D4C38394239DB4F39E30C
:103AA0004439E34938524339E955391A463978459A
:103AB00038E4473BA15038412D38452E38682B3823
:103AC00049233866203B8C2A00003860104103757A
:103AD0006606123758FC123758FD123758FE123757
:103AE00058FF785C0218BC790AA2D52044143046ED
:103AF00009B910020404B9080104A2D520470250F4
:103B000001042043689243B565005034C0E07F2033
:103B10003044197F30A24372477246500F123B4027
:103B2000C243C247C246C2497F30800F304603E9D4
:103B3000C0E0123793304603D0E0F9D0E0B565CC51
:103B40003046177F30B9100C1237937F5830450735
:103B50007F788003B908031237933043057F2D0225
:103B600037937F202049F87F2B2047F32292438010
:103B7000CF7F00B407005005245CF8E6FF22286ED2
:103B8000756C6C29002D50434958D2421237583079
:103B900042F8C242786530D504D2417866F60237E1
:103BA000FD1237582403B405004001E4903B85938F
:103BB000123784743A123784D2447565040239D7B7
:103BC00044434C4B203D20307825782030782578B0
:103BD0000A00446973704163746976654865696772
:103BE0006874203D2025640A004469737048467259
:103BF0006571203D2025640A0064737456746F74E7
:103C0000616C203D2025640A0064737448746F74ED
:103C1000616C203D2025640A0048505F5374617236
:103C200074203D2025640A0056505F5374617274FD
:103C3000203D2025640A0046756E634275665B7000
:103C400053484152504E4553535D203D2025640A50
:103C50000046756E634275665B7042524947485430
:103C60004E4553535D206F662041534943203D200C
:103C700025780A00506F77657220446F776E204F69
:103C80004B0A0057616B6555700A0046756E6342BA
:103C900075665B704C49474854434F4E54524153EC
:103CA000545D203D2025780A004C696768742048DF
:103CB000505F5374617274203D2025640A004C6982
:103CC0006768742048205769647468203D20256423
:103CD0000A004C696768742056505F5374617274AF
:103CE000203D2025640A004C6967687420562048EE
:103CF00069676874203D2025640A00028002D002B2
:103D00008002D0028003500320034004000480049A
:103D100080048005000500064004FA050002F40452
:103D20000005500556015E015E0190019001E00121
:103D3000E002580270030003600366038403C004BA
:103D40000004B002CE0300023E043603000300006C
:103D5000632200888F00071380020000000000002B
:103D60000000000000000000000000000000000152
:103D7000000100E003140501000000000000000144
:103D80000001000004140500000000000000000114
:103D9000000200800280020000000000000000001D
:103DA0000000000000000000000000000000000013
:103DB0000000000000000000000000000000000003
:103DC00000000000000000000000000000000001F2
:103DD000000100000200020250000000000000018B
:103DE0000002040C051405000000000000000000A3
:103DF000010203040506070E0D0C0B0A0908000258
:103E0000000800200023002500260027002E002F98
:103E10000030003100320033003400350036003706
:103E20000060006400650066015601570158016A90
:103E3000016E0186018D01F10604810000801120D0
:103E4000000000E0018800800200000000C3403153
:103E5000000600002A015B00D8015C0004015D003F
:103E6000030162001C01630000016400B0016500F1
:103E700004016F001C01700000017100B0017200AC
:103E800004015E0080015F00060160001001660011
:103E9000200167000001680040016900060173000D
:103EA00020017400000175004001760006007000DA
:103EB00008007200000196001401970082002100A2
:103EC0000C0022008300120000018E0003018F000D
:103ED0000001A3002D01A4002D01A5002D01A600C5
:103EE0002D01A7000801A8002401A9003C01AA0097
:103EF0000001AB002F01AC001F01D8000A0199009E
:103F0000016432140004C4B40002625A0001312D6D
:103F10000000000000001A001400000004000A0065
:103F20001A001400000004000A0000000000000055
:103F30000300050055000F0053000E005701DC0080
:103F400059008B005B02A7015B04D8015E0680016B
:103F50005D0003016000100162001C016600200189
:103F60006404B001680640016F001C017104B001D7
:103F7000750640017A001C017C04B0017E0020011E
:103F800080064000550012005300120057023F0007
:103F900059009D005B02A3015B04D8015E0680010D
:103FA0005D0003016000100162001C016600200139
:103FB0006404B001680640016F001C017104B00187
:103FC000750640017A001C017C04B0017E002001CE
:103FD00080064078A7E6B42A004003024361903F80
:103FE000E5F82828730240630240770240C202408D
:103FF000A00241840240D00240F202412902436102
:1040000002413202413B02414D02410002410E0297
:10401000411C02419602418A02415F0241EA02428A
:104020000302421C0241C60241A20243610241AEA8
:104030000241BA0242350242660242970242C80277
:1040400042D40242E00242EB0242F6024301024342
:104050000C02431F0243320243490243610241D230
:104060000241DE124D0890F423E0FD50057F11025D
:10407000414B7F1802414B124E1FEE600302436119
:10408000EF24FD500724FD500D02436190F425E01C
:10409000FD7F1002414B90F425E0FD7F1702414B5C
:1040A000124DE22404124E3C052BE52BAE2A700281
:1040B000052A14FF90F428E0FD12691C90F42902EF
:1040C000416F124DE22407124E3C90F42702416FDB
:1040D000124DE22402124E3C052BE52BAE2A700253
:1040E000052A14FF90F42CE0FD12691C90F42D02B7
:1040F000416F124DE22401124E3C90F42F02416FA9
:10410000124DD12426124EB890F43B02416F124D4D
:10411000D12427124EB890F43D02416F124DD124A4
:1041200028124EB890F43F804690F431E0FD7F1E97
:10413000804D90F435E0FD7F1D8044124D0890F4D1
:1041400037E0FD50047F1380027F198032124D0842
:1041500090F439E0FD50047F1480027F1A80201211
:104160004D085014124DE22400124E3C90F445E0EC
:10417000FDAF2BAE2A02435E90F445E0FD7F1B7E2F
:104180000202435E124ED202435E90F443E0FD7F92
:10419000037E0202435E90F441E0FD7F047E020252
:1041A000435E90F44FE0FD7F1C7E0202435E90F47C
:1041B00053E0FD7F157E0202435E90F455E0FD7FE3
:1041C0000F7E0202435E90F44DE0FD7F0E7E020200
:1041D000435E90F473E0FD7F477E0202435E90F4FD
:1041E00075E0FD7F467E0202435E90F450E070026F
:1041F000A3E0600302436190F447E0FD7F237E0269
:1042000002435E90F450E07002A3E0600302436159
:1042100090F449E0FD7F247E0202435E90F450E07A
:104220007002A3E0600302436190F44BE0FD7F2540
:104230007E0202435E90F450E07002A3E0700C90A6
:10424000F457E0FD7F207E0202435E90F450E07060
:1042500004A3E06402600302436190F457E0FD7F31
:10426000427E0202435E90F450E07002A3E0700CC4
:1042700090F459E0FD7F217E0202435E90F450E00D
:104280007004A3E06402600302436190F459E0FD0E
:104290007F437E0202435E90F450E07002A3E07020
:1042A0000C90F45BE0FD7F227E0202435E90F450AE
:1042B000E07004A3E06402600302436190F45BE0F9
:1042C000FD7F447E0202435E90F45DE0FD7F0A7E46
:1042D0000202435E90F45FE0FD7F0B7E0202435ECC
:1042E00090F461E0FD7F0C7E02807390F463E0FD4A
:1042F0007F0D7E02806890F465E0FD7F387E02804D
:104300005D90F467E0FD7F397E02805290F4687F13
:104310003B12437790F469E0FD7F3A7E02803F9044
:10432000F46A7F3D12437790F46BE0FD7F3C7E02A0
:10433000802C90F46CE0FD7F3F7E0212691C90F4AB
:104340006DE0FD7F3E7E02801590F46EE0FD7F41C2
:104350007E0212691C90F46FE0FD7F407E021269BC
:104360001C7BFF7A69793678A7E6755000F5511203
:1043700037BA78A776FF22E0FD7E0212691C22126E
:104380004E1F4E6006EF64024E7078787AE6FFC3E7
:10439000944C5031EF124EE3E4F52EE4252D124DEE
:1043A000ACFD12691C052DE52D7002052C052EE5CE
:1043B0002EC3940640E5052DE52D7002052C124D07
:1043C000AAFD12691C303E0F9032417F111245DC6C
:1043D000903240E41245D212488312609C1253EB93
:1043E0001253E67885E6640360061253F01253F523
:1043F00090F4797F3212461190F41D7F36124611E7
:1044000012540E90F450E07004A3E06401705390D5
:1044100032401245D2903241E493FD7F111245BFE4
:104420007F107E02126999124E717F117E0212690D
:1044300099124E7A7F047E02126999E4124E2B1271
:104440005341124E68126507125346787AE6124EAF
:10445000E3124DAAFD12691C124DB2FF124E331227
:10446000540ED390F451E09402124D0F50030244C5
:10447000F99032477F171245DC9032487F18124579
:10448000E590324A7F1A1245E59032497F1912456C
:10449000EE90324B7F1B1245EE7F187E0212699917
:1044A000124E7A7F177E02126999124E717F197E21
:1044B0000212699990F436E4F0A3EFF07F1B7E02BC
:1044C000126999124E337F1A7E0212699990F4385C
:1044D000E4F0A3EFF01253DC1253E11253FF125435
:1044E0001312540490F43BE0FD90F43DE0FB90F493
:1044F0003FE0F5387F321254367F351246097F2F60
:104500007E0212691C7F361246097F307E021269D4
:104510001C7F377E02126999AD077F311245BF902B
:10452000324D7F1D1245F790324E7F1E1245F79097
:10453000324C7F1C1246009032427F12124600908D
:10454000323EE493FD7F0E7E0212691C7F047E02E0
:1045500012699990F440124EED12699990F4341258
:104560004EF712699990F430124F0112699990F444
:104570004E124F0B126999124E83EFF07F0E7E029E
:10458000126999124E9E126999124EAB1269999056
:10459000F474E4F0A3EFF0124E6812650712534171
:1045A0001253461254181253FA12684E1269C3C2BB
:1045B00004126889D205AD207402FFFE02691C7ED8
:1045C0000212691C903234E493FD7F047E0212696A
:1045D0001C2293FD7F107E0212691C22E493FD7E53
:1045E0000212691C22E493FD7E0212691C22E493EC
:1045F000FD7E0212691C22E493FD7E0212691C22D8
:10460000E493FD7E0212691C227E02126999AD07B5
:1046100022E0FCA3E0FD7E001267CF22C0D075D05F
:1046200000C2AF1262B8C229126B431269EA90F05D
:104630000A7455F0E4F523F5227878F6789476013B
:10464000D21B7455789BF608F678A5F608F678A77D
:1046500076FF787FF6E490F59BF0C214C23490F4B4
:1046600081F012646278A3760AC22DC2217BFF7AA0
:104670006779021237BA126B37126B2BD231126A7A
:10468000CB126AE3126B07126A777F467E021269C9
:104690009990F474E4F0A3EFF07F477E02126999D9
:1046A00090F472E4F0A3EFF07F0F7E02126999900C
:1046B000F454E4F0A3EFF07D0112487B90F455E050
:1046C000FB7D027F8812698290F47412681E7D035C
:1046D0007F8812698290F47212681E7D057F8812AD
:1046E00069827D0612487BE4FB7D077F8812698220
:1046F0001256581266D07F007E0112686CEFC454C7
:104700000F90F58DF07F067E0212699990F5A7EF64
:10471000F07402FFFE1269998F20C2017F057E02AC
:1047200012699990F450E4F0A3EFF0200003125FB7
:104730007690F450E0FEA3E0FF64014E70067885A9
:1047400076038010EF64024E70067885760480044C
:10475000E47885F67878E6B4080BD202AD207402CE
:10476000FFFE12691C30022090F440E4F0A37402B2
:10477000F0E4A3F0A3F07D027F047E0212691C7BAB
:10478000FF7A6779121237BA126A8F124883126B56
:104790001312532D1253327BFF7A6779201237BAE6
:1047A00012684E125337787B761A0876F430010778
:1047B000E490F450F0A3F0301D0BC31268114005D3
:1047C00012533C801A201D11126810400CE4F0A313
:1047D000F0FD7F057E0212691C12534112534612EE
:1047E0006B5B7F0E7E0212699990F44CE4F0A3EFAC
:1047F000F0C2041269C312534B1253501253551294
:10480000535A12535F1253647FF07E07126999EF77
:1048100024FF9232125369300105D23E12536E309A
:104820001D31126810402C30253A125373C23330B8
:104830003332201B2FD390F50CE0941490F50BE04D
:1048400094004020303303125378E490F50BF0A32A
:10485000F08011201803126A8F12537D125382C206
:104860003D125387121ECD12260E12538CD23D12CA
:104870005B4678A3760A12539180A4E4FB7F8812EA
:104880006982227F117E02126999124E7A7F107E10
:1048900002126999124E717F137E0212699990F487
:1048A00036E4F0A3EFF07F147E0212699990F43899
:1048B000124EF712699990F430124EED12699990E8
:1048C000F434E4F0A3EFF07F037E0212699990F4D0
:1048D00042E4F0A3EFF07F157E0212699990F45242
:1048E000124F011269997E0090F44EEEF0A3EFF0A2
:1048F000D39405EE94004007E490F44EF0A3F07FCB
:10490000047E02126999124E28C39404EE9400406A
:1049100007E490F440F0A3F0124DD12426F530EED8
:104920003402F52F0530E530AE2F7002052F14FF4D
:1049300012699990F43AE4F0A3EFF00530E530AE57
:104940002F7002052F14FF12699990F43CE4F0A334
:10495000EFF0AF30AE2F12699990F43E124F0B1268
:104960006999124E83EFF07F0F7E0212699990F4DD
:1049700054E4F0A3EFF07F0E7E02126999124E9E6E
:10498000126999124EAB12699990F474E4F0A3EF96
:10499000F07F0A7E0212699990F45CE4F0A3EFF0D4
:1049A0007F0B7E0212699990F45EE4F0A3EFF07F32
:1049B0000C7E0212699990F460E4F0A3EFF07F0D91
:1049C0007E0212699990F462E4F0A3EFF07F387EE2
:1049D0000212699990F464E4F0A3EFF07F397E024B
:1049E00012699990F466E4F0A3EFF07F3B7E021227
:1049F000699990F468124DEC90F468F07F3A7E0269
:104A000012699990F468124E617F3D7E0212699995
:104A100090F46A124DEC90F46AF07F3C7E021269C9
:104A20009990F46A124E617F3F7E0212699990F468
:104A30006C124DEC90F46CF07F3E7E0212699990FE
:104A4000F46C124E617F417E0212699990F46E12ED
:104A50004DEC90F46EF07F407E0212699990F46EF6
:104A6000124E617FFF7E02126999E4FCFDFE124D39
:104A70001FC000C001C002C0037FFE7E0212699900
:104A8000D003D002D001D000124D16C000C001C02A
:104A900002C0037FFD7E02126999D003D002D001CB
:104AA000D000124D16C000C001C002C0037FFC7EC2
:104AB00002126999D003D002D001D000EB4FFFEA77
:104AC000FEE9FDE8FC90F5B1021E4E124E59EFB41E
:104AD0002A004003024D07904ADEF8282873024B53
:104AE0005C024B5F024B6A024B71024B94024BA873
:104AF000024C1B024C60024D07024C66024C7302D2
:104B00004C76024C79024C79024C79024C7B024C77
:104B100082024C89024CC0024CC0024CC0024CB70D
:104B2000024C9E024CA5024B94024CB9024CC202AC
:104B30004CC2024CC2024CC9024CD0024CD7024CAF
:104B4000DE024CEA024CE8024CF0024CF0024CF05F
:104B5000024CF0024CF0024CFC024CFC024CEA907D
:104B6000F45C124E8A90F45E8033124DF7743FF07D
:104B70002290F5AEE0FCA3E0FD2432FEE43C90F48C
:104B800082F0A3CEF0ED24CEFEEC34FF90F47CF066
:104B9000A3CEF02290F460124E8A90F462E0FFA35C
:104BA000E090F47CCF024C5B787AE6C3944C401CD6
:104BB000124E9704F090F41DE0FEA3E0FF124E07A2
:104BC000CF24FECF34FF90F482024C5B124DFEFEE8
:104BD000EF7802CEC313CE13D8F9FF90F41BE0FC9C
:104BE000A3E0FDD39FEC9E400EED9FFFEC9E90F462
:104BF0007CF0A3EFF08005124E9704F0124DFEFEFC
:104C0000EF7802CEC313CE13D8F9FF90F41CE02F37
:104C1000FF90F41BE03E90F482804090F42EE0FE82
:104C2000A3E0FFC39402EE94005010EF24FFFFEEC8
:104C300034FF90F47CF0A3EFF08006124E977402DC
:104C4000F090F479E0FEA3E0FFC37897E69FFF18A9
:104C5000E69ECF2414CF340090F482F0A3EFF0222C
:104C600090F482E4802C124E977405F0124DF77484
:104C70003CF022024CEA024CEA8047124DF77403E2
:104C8000F022124DF77408F022124D0890F482E4DD
:104C90005006F0A37404F022F0A37407F022124D22
:104CA000F77405F02290F482E4301D06F0A3740638
:104CB000F022F0A304F0228031124DF774288023F3
:104CC0008000124DF774FFF022124DF774648013C8
:104CD000124DF77432800C124DF7747F8005124D1F
:104CE000F77432F0124E5922800090F482E480066C
:104CF000124E5990F482F0A37464F022124E59902F
:104D0000F482F0A3740EF022C390F451E094039067
:104D1000F450E0940022EB4FFFEAFEE9FDE8FC903E
:104D2000F5B1121E4E90F5B1E0FCA3E0FDA3E0FE4C
:104D3000A3E0FF7808121E2B90F5B1121E4E90F5DD
:104D4000B1E0F8A3E0F9A3E0FAA3E0FB227891E652
:104D500025E02422F582E434F4F5832290F482E005
:104D6000F530A3E0F53190F47CE0F52EA3E0F52FCB
:104D700022937891F690F421E02274C92DF5827483
:104D8000333CF583E493FF90F428E4F0A3EFF0E0E4
:104D90007F00FE90F428F0A3EFF074CA2DF5827422
:104DA000333CF583E493FBEBFF222400FFE52C3436
:104DB00005FE74C5252DF5827433352CF583E493F7
:104DC00022F890F5B1E0FCA3E0FDA3E0FEA3E0FF34
:104DD0002290F440E0FEA3E0FF7C007D03121BA2C2
:104DE000EF22787AE675F008A4AEF022E4F0A3EFA3
:104DF000F0E0F8E4F0E82290F482E4F0A32290F4EA
:104E00001DE0FEA3E0FFC390F5AFE09FFF90F5AE7D
:104E1000E09E22E4F0A3EFF00536E536AE352290B1
:104E2000F450E0FEA3E0FF227E00EE90F440F0A3F9
:104E3000EFF02290F444E4F0A3EFF022F52BEE34EF
:104E400005F52A2290F426E4F0A3EFF022906949B8
:104E5000E52C93FF90F596E022E490F47CF0A3F02B
:104E600022E0F0A3E04FF02290F440E0FEA3E0FF48
:104E70002290F424E4F0A3EFF02290F422E4F0A3D3
:104E8000EFF02290F42AE4F0A322E0FFA3E090F4F4
:104E900082CFF0A3EFF02290F47CE4F0A32290F410
:104EA0004CE4F0A3EFF07F477E022290F472E4F02E
:104EB000A3EFF07F467E0222F52BEE3402F52A2284
:104EC0007891E678A7F6787D760A22FFE4F0A3EFE2
:104ED000F02290F42BE0FD7F127E0222FFE0FCA383
:104EE000E0FD2275F008A485F02CF52D22E4F0A356
:104EF000EFF07F1D7E0222E4F0A3EFF07F1E7E0222
:104F000022E4F0A3EFF07F1C7E0222E4F0A3EFF096
:104F10007F127E02227BFF7A6A790E1237BA126AFA
:104F2000837F497E021250D9F52CF52D7425252D4D
:104F3000F5827436352CF583E4931250E070020547
:104F40002CC39480E52C940040E2E4F52CF52DE58B
:104F50002D2480FFE4352CFE74A5252DF5827436B2
:104F60001250A87002052CC39480E52C940040DFF9
:104F7000752C02752D80C3E52D94A0E52C9402506C
:104F8000077DFF1250C680EE752C01752D00C3E51C
:104F90002C940250077D321250C680F2E4F52CF5B5
:104FA0002D1264CF3402FE7430252DF58274321236
:104FB00050A87002052CC39445E52C940040E2E40F
:104FC000F52CF52D1264CF3403FE7495252DF58252
:104FD00074321250B77002052CC39430E52C940142
:104FE00040E2C3E52D9468E52C9401500E1264CF85
:104FF00034031250ED7002052C80E7E4F52CF52DFA
:105000001264CF3405FE74C5252DF5827433125019
:10501000B77002052CC39460E52C940240E2C3E50E
:105020002D94D0E52C9402500E1264CF340512500A
:10503000ED7002052C80E7E4FD7FF07E0712691C0D
:105040007D017FF17E0712691C7FF27E071250D925
:10505000FD7FF37E0712691C752C07752DF4E41291
:1050600050E07002052CC394FCE52C940740EF7DC2
:10507000017F007E0212691CE4FD7F017E0212693D
:105080001C7D077F467E0212691C7D077F477E02DA
:1050900012691C7D327F0E7E0212691CE4FD7F0FB7
:1050A0007E0212691C026A8F352CF583E493FD128F
:1050B000691C052DE52D22352CF583E493FD12693D
:1050C0001C052DE52D22AF2DAE2C12661F74102568
:1050D0002DF52DE4352CF52C22E4FD12691CE4227B
:1050E000FDAF2DAE2C12691C052DE52D22FE7DFF96
:1050F00012661F052DE52D224175746F20506F73C8
:105100006974696F6E206661696C0A004175746F1D
:1051100020506F736974696F6E204F4B0A004175A0
:10512000746F54756E65206661696C0A0041757410
:105130006F54756E65204F4B0A004175746F506F48
:10514000736974696F6E0A0056506F7369746F6E7D
:10515000206F766572204D61780048506F736974D6
:105160006F6E206F766572204D61780056505F53E8
:1051700074617274203D2025640A0048505F5374A6
:10518000617274203D2025640A004175746F506F70
:10519000736974696F6E206661696C0A0041757489
:1051A0006F436C6F636B0A004E6F6E2046756C6CBC
:1051B0002053637265656E004E6F6E652066756C78
:1051C0006C2073637265656E0A004175746F436C81
:1051D0006F636B206661696C2E0A00436C6F636BB2
:1051E000206F766572204D6178004175746F436C55
:1051F0006F636B427950686173650D0A0041757485
:105200006F2050686173652046696E652054756E25
:10521000650A005068617365202564203D2025786B
:105220002025780A005068617365206F6B203D204F
:1052300025640A004175746F506861736542794353
:105240006C6F636B0A004175746F506861736542DF
:1052500079436C6F636B20485F4163742025642041
:105260003D2025640A004175746F50686173654282
:1052700079436C6F636B205068617365203D202516
:10528000640A005068617365526573756C742025FB
:1052900078203D2025782025782025780A004F6643
:1052A00066736574202578203D2025782025780AAE
:1052B000005068617365526573756C7420257820A1
:1052C0003D2025782025780A004761696E202578E1
:1052D000203D2025782025780A00E5905403C4035A
:1052E000C0E07469C0E0C082C083026900E59054E8
:1052F00003C403C0E07469C0E0C082C083026908CF
:10530000E5905403C403C0E07469C0E0C082C08368
:10531000026910E5905403C403C0E07469C0E0C0A2
:1053200082C083026918EFC4039069007390A7D10B
:1053300041ED90C59C610090A67941ED909D2E4174
:10534000ED90BC6441ED90BD7241ED90BD0F41ED1B
:1053500090BBC641ED90B8F141ED90B94641ED905A
:10536000B70C41ED90B77041ED909D02611390DE56
:105370003161009098046113909BC7611390A2D291
:1053800041ED90BAC741ED90AF8D41ED90B34E61C4
:105390000090BDAA41ED90D677610090E44E610087
:1053A00090CE0A610090AC1241ED90B62B41ED9089
:1053B00089D8611390E430610090B7866100909EB7
:1053C0001C611390DE97610090BB0B41ED9097112B
:1053D000611390BCC041ED90CB0F610090A2E661DB
:1053E0001390A2F6611390BD9E41ED909F1141ED87
:1053F00090BD5641ED90BA8241ED90DA5D6100902A
:10540000A304611390A2D3611390DB64610090B890
:105410003641ED90A334611390BB4B41ED90BDB587
:1054200041ED90BDBE41ED9094D341ED90BC9441CF
:10543000ED90B99B41ED908DA741ED90A3106113C4
:1054400090CD1E610090D179610090B7D441ED906C
:10545000E1FD610090BB8A41ED90DF5961009098B9
:10546000DB6113909A5F611390999E6113909B1377
:10547000611390E2B7610090D485610090E27E6193
:105480000090C877610090BD3341ED909E89611313
:10549000909C6F611390D243610090A0746113904F
:1054A0009D92611390BDC741ED90ACF841ED90BD68
:1054B000DF41ED007891E6FFC3942A4017EF64388E
:1054C0006012EF6439600DEF64276008EF643A60A2
:1054D00003025657C23EEF24F9602924FE603A24A5
:1054E000FA602114601E24F9601024F06036242232
:1054F0007043124D5C752C028041D23E124D5C759A
:105500002C06803790F47CE0F530A3E0F53190F480
:1055100082124D69E4F52C8022124D5CE4F52C7565
:105520002D05801AC23E753000753164E4F52EF504
:105530002FF52C8006124D5CE4F52C752D01303EC4
:10554000030255DE124E4D6F703F7891E6F9124D11
:1055500050E0FEA3E090F482124EDCC3EF9DEE9C7F
:10556000501DAB2D7A00EF2BFFEA3EFEC3ED9FEC02
:105570009E400CE9124D50EA8BF0121C0B800A126F
:105580004D4DE530F0A3E531F090694A124E506F71
:105590006003025657124D4DE0FEA3E090F47C12DA
:1055A0004EDCD3EF9DEE9C402AAD2D7C00EF9DEEAE
:1055B0009C4020124D4FC083C082C3A3E09DFF05D5
:1055C00082D5820215831582E09CD082D083F0A31D
:1055D000EFF022124D4DE52EF0A3E52FF022124EF2
:1055E0004DFEB5071E90F41FE0FDD390F483E09DBF
:1055F00090F482E0940090F41F4005E004F08003F2
:10560000E531F0E52C90694A93B5061E90F41FE051
:10561000FDC390F47DE09D90F47CE0940090F41F35
:105620005005E014F08003E52FF090F596E0B50703
:10563000267891E6FF124D50E0FCA3E0FD90F48245
:10564000E0FAA3E0FBD3ED9BEC9A400BEF124D5038
:10565000E530F0A3E531F02212600FA9077892E659
:10566000FF696050C212D21AEFB40219E9701678BD
:105670008EE6C3940A500E7892A60178787602E4FA
:10568000788EF68023B9020B7892A601E47878F63A
:105690000257157892A6017878A601E4788EF63044
:1056A0002106125B12025715125AB77888A606080F
:1056B000A607806190F489E0FF90F40FE0FE6F6030
:1056C00014202811C212D228EFF0E4788EF6789FC9
:1056D000F608760522202803025770125B2E60031D
:1056E0000257DCC228EE248024F3504124FD601FC1
:1056F0000424FC502424FE24FB501E24FE601A14B3
:10570000601714601424FE603B1460380257DC20DC
:105710001203125ADD125B1A22201203125ADD12F2
:105720005B1A187600087605302116803D2012039A
:10573000125ADD125B1A18760008760230210280B8
:10574000290257D2201208125ADD788E068004787A
:105750008E7601788EE6C394035009789F76000810
:1057600076148003125B38302104125B12228062AF
:10577000125B2E7067E924F8603E24F8604A24F03A
:105780006046248660261460232499704F788EE644
:10579000C3940A50157878A601789F760008761E83
:1057A000788E201204760A80010680262012047862
:1057B00078A601125B38801A2012047878A6017846
:1057C0009F7600087614800A2012047878A60112C9
:1057D0005B38125AB77888A60608A60722C0E0C030
:1057E000F0C083C082C0D075D00890F020E020E4E3
:1057F0000302591390F021E030E02A30141390F0A6
:1058000002E0FB90F007E0420B530BFE90F002EB3E
:10581000F0D2107894E6C3940A50010690F02174F7
:1058200001F002591390F021E020E103025913E046
:105830004402F090F40AE0FA702490F400F0A3F02F
:1058400090F40A04F090F5B5121E5A000000009082
:10585000F48AE4F090F022E04422F0025913EA6462
:10586000017016125AEE943CEE940090F40A400235
:1058700080437402125AF7802090F40AE0FF640219
:10588000702190F400E0FCA3E0D39428EC94009005
:10589000F40A4002801F7403F090F400E4F0A3F0D7
:1058A000025913EF6403706B125AEE941EEE9400CB
:1058B000400990F40AE4125AF78058125A95FF787A
:1058C00001121E2B90F5B5121E4E125AEE9414EED4
:1058D0009400400D125A954401FFEC90F5B5121E4C
:1058E0004E90F48AE004F090F400E4F0A3F090F419
:1058F0008AE0FAB41F12D23C125A95FF90F59D121D
:105900001E4E90F5A9742DF0EAD3941E400590F434
:105910000AE4F0D0D0D082D083D0F0D0E032C0E022
:10592000C0F0C083C082C0D075D01090F400E06495
:105930000F7003A3E0F4600E90F401E004F0700631
:1059400090F400E004F0787E06E6C3940A50030267
:105950005A4C7600788BE660011678A906E6C39467
:105960000A5003025A4C90F00A7455F07600788C75
:10597000E6600116788DE6600116788A06E6C39423
:10598000644041760030293C7F007E2A7D757C157D
:1059900090F5B1E0F8A3E0F9A3E0FAA3E0FB121D53
:1059A000F390F5B15017125A982401FFE43EFEE43B
:1059B0003DFDE43CFC90F5B1121E4E8007121E5ACC
:1059C00000000000789E125AC6400708E6161870BC
:1059D00001167889125AC6400708E6161870011693
:1059E00078A3E6D39400400116D3787C125AC740BE
:1059F0000708E61618700116D378A0125AC7400798
:105A000008E616187001167893E6D3940040011644
:105A1000787DE6D394004001167877E6D394004071
:105A200001167895E6D394004001167882E6D39467
:105A30000040011690F5A9E0D394004003E014F073
:105A400090F419E0D394004003E014F0D0D0D08259
:105A5000D083D0F0D0E03290F003E0FF90F008E087
:105A600042072290F002E0FF90F007E0420722C3D5
:105A700090F451E0940390F450E094002290F59259
:105A80007406F0A37401F0E490F595F00490F59499
:105A9000F090F5962290F5B5E0FCA3E0FDA3E0FEC2
:105AA000A3E02290F004E0FF90F009E0420722908A
:105AB000F00DE0547FC32290F4347D64E0FEA3E057
:105AC000FF7C00021BA2D3E6940018E6940022900B
:105AD000F594F090F421E090F595F0A32290F40F66
