:0A0000000C947C000C94AF000C94EB
:10000A00B5000C9400000C9400000C9400000C94B1
:10001A0000000C9400000C9400000C9400000C9456
:10002A0000000C9400000C9400000C9400000C9446
:10003A002A010C9400000C9400000C9400000C940B
:10004A00BA000C9400000C94E5000C945A010C942C
:10005A0000000C9400000C9400000C9400000C9416
:10006A0000000C9400000C9400000C9400000C9406
:10007A0000000C9400000C9400000C9400000C94F6
:10008A0000001027E80364000A00010000100001C4
:10009A001000010000007F3F1F8FC7E3F1F8FCFE4C
:1000AA00FCF8F1E3C78F1F3FFF005A463228282881
:1000BA002832465A46322828282832463F065B4FBD
:1000CA00666D7D077F6F00000000000000000100E0
:1000DA0002009E0013000005A00012001305B400E0
:1000EA000A002605C60007000500D0000000F894A3
:1000FA00EE27ECBBF1E0F5BFE5BFE0936C00F8E159
:10010A00F1BDE1BD8DE0A2E0BB27ED938A95E9F749
:10011A0080E090E1A0E0B1E0ED930197E9F7E8ED26
:10012A00F0E085919591009761F0A591B5910590C0
:10013A001590BF01F00105900D920197E1F7FB01BF
:10014A00F0CF8BBFEFEFEDBFE0E1EEBFC0E0D5E04F
:10015A000C947901EA93EFB74424EFBFE99118951B
:10016A00EA93E1E04E2EE99118950E94C7021A938C
:10017A000A931BB10CB1E12FEC71E9F4E0913B0554
:10018A00EF5FE0933B050E94CD02ED5CFA4F0083DE
:10019A00A0913B05A83019F4E0E0E0933B05A0915B
:1001AA003D05AF5FA0933D05A83029F4E0E0E09358
:1001BA003D05689420F800933205099119916FC0A2
:1001CA000E94C702E0914805E030A9F0E150E093AF
:1001DA004805E0914705EF5FE09347050E94CD028D
:1001EA00E25CFA4FE081ECB9A0914705A83019F416
:1001FA00E0E0E093470553C0AA93A0914805A830D0
:10020A00E1F3F894E0914805E03011F45D9918C0E3
:10021A00E0914605EF5FE09346050E94CD02E25C5D
:10022A00FA4FA881A083A0914605A83019F4E0E00E
:10023A00E0934605E0914805EF5FE093480502C068
:10024A00E881ECB97894219608950E94C702E6B332
:10025A00ED7FAE2FE0916300E270EA2BDE2EE1B172
:10026A00E07FCE2EE0E3F8EFFDBDECBDF50131965F
:10027A005F01E83EA3E0FA0794F0F30131963F01EB
:10028A003197EA5DFA4FE081E095EBBBEAE0F0E0F6
:10029A00E615F70511F466247724AA24BB24E9910C
:1002AA00EFBFF991E991A99118951A930A9304B1AC
:1002BA0015B10093300510933105099119911895DC
:1002CA00E7B1E07EE7B9E1E0E7B9369A08951A9313
:1002DA0010913005AEE1B0E00E94D3028090300563
:1002EA009090310519910895E0E0EBBBEFEFEABB7E
:1002FA00E0E0E8BBE7BBE5BBEFEFE4BBE0E0E2BB75
:10030A00E1BBE3B9E2B9E0936200E0936100E093F4
:10031A006500E0936400E0BFE3BFE2BFE1BFEFBD69
:10032A00E2E0EEBDE4E0E7BFE0E0EDBDECBDE7BD35
:10033A00E6BDEBBDEABDE9BDE8BDE0937900E09317
:10034A007800E5BDE4BDE3BDE0938B00E0938A004D
:10035A00E0938900E0938800E0938100E0938000B5
:10036A00E0938700E0938600E0938500E0938400A1
:10037A00E0938300E0938200EAE0E0936A00E0E021
:10038A00EABFE3E0E9BFE8BFE4E0E7BFE0E0E0930B
:10039A007D00EBB9E8EDEAB9E6E0E0939500E0E02C
:1003AA00E0939000E7E6E9B9E0E0E0939A00E0E83C
:1003BA00E8B9E0E0E0BDE7B9EFE8E6B9E0E0EDB9B9
:1003CA00E09374007894E0E0E5BBA8EEB3E00E9405
:1003DA00D302EFEFE5BBA8EEB3E00E94D3024424B8
:1003EA006FDF75DF4420C9F40E94D002ED5EFA4F38
:1003FA00A081A13080F00E94D002E050FB4FE08142
:10040A00E5BB0E94D002ED5EFA4FA081B0E00E94E7
:10041A00D302539401C0552407C0E2E0E41519F44D
:10042A00A82DEADE01C0D5BAE0913205F0E0E0334A
:10043A00A0E0FA0759F4E0E0EEBDE0912605E09568
:10044A00EBBBEFEFE5BBE1E04E2E9AC0E133A0E053
:10045A00FA0759F4E0E0EEBDE0912705E095EBBB21
:10046A00EEEFE5BBE1E04E2E8BC0E233A0E0FA07E7
:10047A0059F4E0E0EEBDE0912805E095EBBBEDEF25
:10048A00E5BBE1E04E2E7CC0E333A0E0FA0759F465
:10049A00E0E0EEBDE0912905E095EBBBECEFE5BBB2
:1004AA00E1E04E2E6DC0E433A0E0FA0759F4E0E033
:1004BA00EEBDE0912A05E095EBBBEBEFE5BBE1E091
:1004CA004E2E5EC0E533A0E0FA0759F4E0E0EEBD37
:1004DA00E0912B05E095EBBBEAEFE5BBE1E04E2EA0
:1004EA004FC0E633A0E0FA0759F4E0E0EEBDE09130
:1004FA002C05E095EBBBE9EFE5BBE1E04E2E40C0F1
:10050A00E733A0E0FA0759F4E0E0EEBDE0912D05EB
:10051A00E095EBBBE8EFE5BBE1E04E2E31C0E833F6
:10052A00A0E0FA0759F4E0E0EEBDE0912E05E0956F
:10053A00EBBBE7EFE5BBE1E04E2E22C0E933A0E0DA
:10054A00FA0759F4E0E0EEBDE0912F05E095EBBB28
:10055A00E6EFE5BBE1E04E2E13C0E136A0E0FA0774
:10056A0031F4E2E0EEBD85BAE1E04E2E09C0E23692
:10057A00A0E0FA0719F4E2E04E2E02C0E2E0EEBD76
:10058A002FCFFFCFAA93EA93FA93EFB7EA9308958E
:10059A00E150F0E00895E52DF0E00895109639F065
:1005AA0080EA9FE00197F1F7A8951197C9F7089596
:00000001FF
