:060000000C9479000C9441
:10000600AC000C94B2000C9400000C9400000C940C
:1000160000000C9400000C9400000C9400000C945A
:1000260000000C9400000C9400000C9400000C944A
:1000360000000C94FA000C9400000C9400000C9440
:1000460000000C94B7000C9400000C94D6000C949D
:1000560019010C9400000C9400000C9400000C9400
:1000660000000C9400000C9400000C9400000C940A
:1000760000000C9400000C9400000C9400000C94FA
:1000860000000C9400001027E80364000A00010039
:10009600001000011000010000007F3F1F8FC7E322
:1000A600F1F8FCFEFCF8F1E3C78F1F3FFF005A464C
:1000B600322828282832465A463228282828324606
:1000C6003F065B4F666D7D077F6F000001000200F3
:1000D6009E0013000005A00012001305B4000A00DC
:1000E6002605C60001000500D0000000F894EE27A2
:1000F600ECBBF1E0F5BFE5BFE0936C00F8E1F1BDC4
:10010600E1BD8DE0A2E0BB27ED938A95E9F780E09B
:1001160090E1A0E0B1E0ED930197E9F7E2EDF0E0C0
:1001260085919591009761F0A591B59105901590EF
:10013600BF01F00105900D920197E1F7FB01F0CFA9
:100146008BBFEFEFEDBFE0E1EEBFC0E0D5E00C9472
:100156003801EA93EFB74424EFBFE9911895EA9383
:10016600E1E04E2EE9911895EA93FA93EFB7EA93F8
:100176001A930A931BB10CB1E12FEC7189F4EB2DA4
:10018600B394F0E0EE5CFA4F0083E8E0EB1509F477
:10019600BB24D394E8E0ED1519F4DD24689420F827
:1001A600099119913EC0AA93EA93FA93EFB7EA939D
:1001B600E0914305E030A9F0E150E0934305E0917A
:1001C6004205EF5FE0934205E150F0E0E65CFA4F4E
:1001D600E081ECB9A0914205A83019F4E0E0E09383
:1001E6004205E991EFBFF991E991A9911895EA9332
:1001F600FA93EFB7EA934420A1F4E7EFF2ECFDBDE2
:10020600ECBDF30131963F013197EA5DFA4FE0818B
:10021600E095EBBBEAE0F0E0E615F70511F466249D
:100226007724E991EFBFF991E99118951A930A930A
:1002360004B115B100933005109331050991199158
:100246001895E7B1E07EE7B9E0E0E7B9369A089598
:100256001A9310913005AEE1B0E00E9449028090F9
:1002660030059090310519910895E0E0EBBBEFEF72
:10027600EABBE0E0E8BBE7BBE5BBEFEFE4BBE0E0F1
:10028600E2BBE1BBE3B9E2B9E0936200E09361004F
:10029600E0936500E0936400E0BFE3BFE2BFE1BF27
:1002A600EFBDE5E0EEBDE0E0EDBDECBDE7BDE6BDD2
:1002B600EBBDEABDE9BDE8BDE0937900E0937800C7
:1002C600E5BDE4BDE3BDE0938B00E0938A00E093D7
:1002D6008900E0938800E0938100E0938000E0933A
:1002E6008700E0938600E0938500E0938400E09326
:1002F6008300E0938200EAE0E0936A00E0E0EABF70
:10030600E3E0E9BFE8BFE4E0E7BFE0E0E0937D00BB
:10031600EBB9E8EDEAB9E6E0E0939500E0E0E093BA
:100326009000E7E6E9B9E0E0E0939A00E0E8E8B992
:10033600E0E0E0BDE7B9EFE8E6B9E0E0EDB9E0936B
:1003460074007894E0E8EBBBA8EEB3E00E944902A3
:10035600EFEFEBBBA8EEB3E00E944902442471DF45
:1003660077DF0E944602ED5EFA4FA081A13080F051
:100376000E944602E050FB4FE081E5BB0E94460228
:10038600ED5EFA4FA081B0E00E944902539401C08D
:100396005524E1E0E41511F00C94440200240814FD
:1003A600090428F4EFE1F0E08E169F0608F003C07A
:1003B600E091260564C0E0E2F0E0E815F90528F4CE
:1003C600EFE3F0E08E169F0608F003C0E0912705E4
:1003D60056C0E0E4F0E0E815F90528F4EFE5F0E0B2
:1003E6008E169F0608F003C0E091280548C0E0E697
:1003F600F0E0E815F90528F4EFE7F0E08E169F0621
:1004060008F003C0E09129053AC0E0E8F0E0E815FD
:10041600F90528F4EFE9F0E08E169F0608F003C010
:10042600E0912A052CC0E0EAF0E0E815F90528F489
:10043600EFEBF0E08E169F0608F003C0E0912B0567
:100446001EC0E0ECF0E0E815F90528F4EFEDF0E069
:100456008E169F0608F003C0E0912C0510C0E0EE52
:10046600F0E0E815F90528F4EFEFF0E08E169F06A8
:1004760008F003C0E0912D0502C0E0912E05E0953D
:10048600EBBB6DCFFFCFE52DF0E00895109639F068
:1004960080EA9FE00197F1F7A8951197C9F70895AB
:00000001FF
