:0A0000000C944F000C9400000C94C7
:10000A0000000C9400000C9400000C9400000C9466
:10001A0000000C9400000C9400000C9400000C9456
:10002A0000000C9400000C9400000C9400000C9446
:10003A0000000C9400000C9400000C9400000C9436
:10004A0000000C9400000C9400000C9400000C9426
:10005A0000000C9400000C9400000C9400000C9416
:10006A0000000C9400000C9400000C9400000C9406
:10007A0000000C9400000C9400000C9400000C94F6
:10008A0000001027E80364000A00010000100001C4
:10009A0010000100F894EE27ECBBF1E0F5BFE5BFD4
:1000AA00E0936C00F8E1F1BDE1BD8DE0A2E0BB2771
:1000BA00ED938A95E9F780E090E1A0E0B1E0ED9355
:1000CA000197E9F78BBFEFEFEDBFE0E1EEBFC0E0CC
:1000DA00D5E00C947B00AA935D9BFECFE881ECB936
:1000EA00219608955F9BFECFECB1089510E05AD097
:1000FA00EABBE0E0EBBBE7BBE8BBEFEFE4BBE0E069
:10010A00E5BBE1BBE2BBE2B9E3B9E0936100E0938E
:10011A006200E0936400E0936500E0BFE3BFE2BFE2
:10012A00E1BFEFBDEEBDEDBDECBDE7BDE6BDEBBD8C
:10013A00EABDE9BDE8BDE0937900E0937800E5BD4A
:10014A00E4BDE3BDE0938B00E0938A00E09389006D
:10015A00E0938800E0938100E0938000E0938700B9
:10016A00E0938600E0938500E0938400E0938300A7
:10017A00E0938200E7BFE0937D00E0936A00EABF64
:10018A00E9BF10D0E0939A00E0E8E8B9E0E0E0BD0A
:10019A00E6B9EDB9E0937400A5DF1E2FA12F9BDF0E
:1001AA00FBCFFFCFE0E0EBB9E8E1EAB9E6E0E093A4
:1001BA009500E0E0E0939000E7E6E9B9E0E0089511
:00000001FF
