:0C0000000C946C000C9400000C940000A8
:10000C000C9400000C9400000C9400000C94000064
:10001C000C9400000C9400000C9400000C94000054
:10002C000C9400000C9400000C9400000C949F00A5
:10003C000C9400000C9400000C9400000C94000034
:10004C000C9400000C9400000C9400000C94000024
:10005C000C9400000C9400000C9400000C94000014
:10006C000C9400000C9400000C9400000C94000004
:10007C000C9400000C9400000C9400000C940000F4
:10008C007F3F1F8FC7E3F1F8FCFEFCF8F1E3C78F4D
:10009C001F3FFF005A46322828282832465A46323B
:1000AC002828282832463F065B4F666D7D077F6FF8
:1000BC000000130000058C0012001305A0000A00BC
:1000CC002605B20001000500BC000000F894EE27E4
:1000DC00ECBBF1E0F5BFE5BFE0936C00F8E1F1BDDE
:1000EC00E1BD8DE0A2E0BB27ED938A95E9F780E0B6
:1000FC0090E1A0E0B1E0ED930197E9F7EEEBF0E0D1
:10010C0085919591009761F0A591B5910590159009
:10011C00BF01F00105900D920197E1F7FB01F0CFC3
:10012C008BBFEFEFEDBFE0E1EEBFC0E0D5E00C948C
:10013C00BC00EA93FA93EFB7EA93E7EFF2ECFDBD5C
:10014C00ECBDF30131963F013197EA5DFA4FE08146
:10015C00E095EBBBEAE0F0E0E615F70511F4662458
:10016C007724E991EFBFF991E9911895EFEFEABB8C
:10017C00E0E0EBBBE7BBE8BBEFEFE4BBE0E0E5BBEB
:10018C00E1BBE2BBE2B9E3B9E0936100E09362004A
:10019C00E0936400E0936500E0BFE3BFE2BFE1BF22
:1001AC00EFBDE5E0EEBDE0E0EDBDECBDE7BDE6BDCD
:1001BC00EBBDEABDE9BDE8BDE0937900E0937800C2
:1001CC00E5BDE4BDE3BDE0938B00E0938A00E093D2
:1001DC008900E0938800E0938100E0938000E09335
:1001EC008700E0938600E0938500E0938400E09321
:1001FC008300E0938200E4E0E7BFE0E0E0937D0061
:10020C00E0936A00EABFE9BFEAB9E0939A00E0E83C
:10021C00E8B9E0E0E0BDE6B9EDB9E093740078949C
:10022C00E0E8EBBBA8EEB3E00E943C01EFEFEBBBC8
:10023C00A8EEB3E00E943C0116D0ED5EFA4FA0810F
:10024C00A13070F010D0E050FB4FE081E5BB0BD03B
:10025C00ED5EFA4FA081B0E00E943C01539401C0C6
:10026C005524EACFFFCFE52DF0E00895109639F034
:10027C0080EA9FE00197F1F7A8951197C9F70895C7
:00000001FF
