:020000020000FC
:10000000027C4E027A38D21C02756702790F7401A5
:10001000026138027B5E0102040810204080000269
:10002000010322027DD9E901A000000000000000C8
:1000300000000000000000000000000000000000C0
:100040000000000000000320000220000220000247
:1000500020000220000220000220000220000230C6
:1000600000FF0F0000000000000000000000000082
:1000700000000000000000000000F0FFFF0F000083
:100080000EE0000EE0000EE0000EE0000EE0000EBC
:10009000E0000EE000F0FFFF0F00C00FFCC00FFCFF
:1000A000C00FFCC00FFCC00FFCC00FFCC00FFC0059
:1000B000F0FFFF0F00F88FFFF88FFFF88FFFF88F2A
:1000C000FFF88FFFF88FFFF88FFF00F0FFFF0F00A2
:1000D000FFFFFFFFFFFFFFFFFFFFFFFFFFFFFFFF30
:1000E000FFFFFFFFFF00F0FF000C40000440000492
:1000F000400004400004400004400004400004406C
:100100000004C000000000801FFCE370066660066B
:1001100066600666600EC73FF80100000000000040
:1001200000000006E0001E60000660000660000699
:1001300060801FF8010000000000000000801FFC2C
:10014000E3700666000EC01FF8037000E67FFE072E
:100150000000000000000000801FFCE37006E600C5
:10016000FCC00F0E60600EC73FF8010000000000E9
:10017000000000800378800FD88139188761FEE77E
:100180007F18800118000000000000000000E07FE0
:10019000FE076000867FFCE7600660600EC73FF8E0
:1001A000010000000000000000801FFCE370060654
:1001B00060F0C67F0E67600EC73FF80100000000C8
:1001C00000000000E07FFE67000EC00138000760FD
:1001D00000066000066000000000000000000080D3
:1001E0001FFCE37006C630F8C13F0E67600EC73FC4
:1001F000F8010000000000000000801FFCE3700612
:10020000E670FE631F0660600EC73FF80100000045
:1002100000B301B0000000000000F00740000481BE
:100220001008800008000111084110001110019110
:10023000130000000000003FF0037EE0077FF0079E
:10024000FFF00EF7B00FFFF00FFF700C0000000082
:10025000F0FF00000220100200088000C00FFFF332
:100260007FFFFFFFFFFFFF000000000000FFFFFD1A
:10027000DFEFFDFFF77FFFFFFFFFFFFFFFFFFFFF48
:10028000FFFF0000000080FF088040044800044099
:1002900004822010022080022CE0022EE7000000E1
:1002A000000000F00FBFF887FFF88FFB7CCFEFFC5A
:1002B000CFFFFCCFFFFCCFF80111100001100001AF
:1002C00010000110000108800008800004400004B4
:1002D0007F0000FFF00FFFF00FFFF00FFFF00FFFA8
:1002E000F0077FF0077FF0033FF003000000022ECD
:1002F000E0022C80022000022000024000044000A6
:10030000048000088000F80F00FCCFFFFCCFFFFC4A
:10031000CFFFFCCFFFFC8FFFF88FFFF80FFFF00F30
:10032000FF00000000000000F0074000048000080B
:1003300080000800011000011000C1101CF1130022
:1003400000000000003FF0037FF0077FF007FFF0A0
:100350000FFFF00FFF700FE7000C0000000080FFA0
:100360000880000440000440000220000220000237
:100370002008C220FE000000000000F00FFFF88FF0
:10038000FFF88FFFFCCFFFFCCFFFFCCFF73CCF0186
:1003900000000000F0074000048000088000080012
:1003A000011000011000C1101DF113000000000039
:1003B000003FF0037FF0077FF007FFF00FFFF00F23
:1003C000FF700FE6000C4B09C00000FFFFFFFFFFAE
:1003D0007FFFE31F8221161B7330C32313FE01002E
:1003E000000000FF0F00FFFFFFFFFFFFFFFFFF8385
:1003F0003FF0037FF0C33FF3FFFFFFFFFFFF00006D
:10040000000000000000000000007CC009E4800F34
:100410003CC00C00000000000000000000000000D4
:1004200000000000000000000000000000000000CC
:100430000000000000000000000000F0FF000000CD
:10044000200007F8C01F70000770000770000770D9
:10045000F0FF000000000000FFFFFFDFFFF8073F94
:10046000E0837FF8877FF8877FF8870F0000000020
:1004700000000000000000000118C0011C800118ED
:10048000800118800118000000000000000000003A
:10049000000000000000000000000000000000005C
:1004A0000000007FF11318811000011000011000FE
:1004B00001088000088000044000047F00008000E4
:1004C0000CE0300FFBF00FFFF00FFFF0077FF0079D
:1004D0007FF0033FF00300000000F0031FC00004A2
:1004E000000000000000000000000000000000000C
:1004F00000000000000000000000000000000000FC
:10050000000000000000000000000000000000FFEC
:10051000FFFF70000770000770000770C03FFC818C
:100520000F700002000000FF0F000000000070F8D4
:10053000877FF8877FF8871FC0037EF08FFFFDFF5E
:10054000FFFF00000000F0F99F8F01188001188064
:100550000118E00110000100000000000000000090
:10056000000000000000000000000000000000008B
:100570000000000000000000000000F22FFEC2207A
:100580000802200002200002400004400004800015
:10059000088000F80F0004C0001CC0F3FCCFFFFC73
:1005A000CFFFFC8FFFF88FFFF80FFFF00FFF000069
:1005B000000800FFE00F0C00000000000000000039
:1005C000000000000000000000000000000000002B
:1005D000000000000000000000000000000000001B
:1005E0000000000000000000000000F007400004D0
:1005F000C0000C8000080001100001100001100173
:1006000001100000000000003FF0033FF0037FF006
:1006100007FEE00FFDD00FFDC00FF9000F00000036
:1006200000000000000000000000000001100003B6
:1006300030000330000790000000000000000000C0
:1006400000000000000000000000000000000000AA
:1006500000600000000000F0FF000000000000004B
:1006600000000000000000000070001FFFF9000003
:1006700000000000FFFFFF079FCFFEFB7FFFFFFF93
:10068000FFFFFFF80F0E000FF80000000000000051
:100690000000F8E03FFFF7FFFFFFFFFFFFFFFF8FC6
:1006A000FFE00FFE0000000000000000000000005E
:1006B0000000000000000000000070001FF00100BA
:1006C00000000080FF0880000C4000044000022071
:1006D000000220000220C0022C8000000000000068
:1006E000F00FFFF08FFFF88F7FFCCBBFFCCDDFFC5E
:1006F000C10F7CC13B0000000000000000000000B2
:1007000000000080000CC0000EE0000E30800244AB
:1007100000000000000000000000000000000000D9
:1007200000000000000000C0000DB8000110000132
:100730001000011000011000010880000880000472
:100740004000047F0000E0000CC00008800008802A
:100750000008C0000460000778E0033FF0030000D9
:1007600000110002200004400004400004200002A8
:100770001080000610000000000000000EF0011FB5
:10078000F0033FF0033FF0031FF0010F7000010082
:10079000000000000000006F7F6FF6820F00811FD5
:1007A000F8811FF0000F600000000000000000FF53
:1007B0000F00000F6000120003B11FFBB11FF770A4
:1007C0000F6FF0011F700EF8FFFF000000908FF018
:1007D000096730FC4220044220088110900006E0A6
:1007E00080F10700000000000F70000618C003BD74
:1007F000DFFBBDDFF77EEF6FFFF91F7F000000001A
:100800000000000228000220000220000220000256
:100810004000044000048000088000F80F00DCC3A2
:100820007EEC4FFFF44FFFF44FFFEC8FFED88FFBB1
:10083000780FCFF003FF0000002004811080000833
:100840008000088000100001200004800030000CAF
:1008500000000000C00B7EE00FFFF00FFFF00FFF65
:10086000E00FFEC00FF8000FC00000000000000005
:10087000000000F0FF000000200007F8C01F70001B
:100880000770000770F0FF88B96B000000000000DF
:10089000FFFFFFDFFFF8073FE0837FF8877FF887E0
:1008A0000F007746940000000000000000000000E8
:1008B0000118C0011C800118800118000000000010
:1008C0000000000000000000000000000000000028
:1008D0000000000000000000000000000000008098
:1008E000FF088000044000044000022000022000B5
:1008F000022088C2281E000000000000F00FFFF850
:100900008FFFF88FFFFCCFFFFCCFFFFCCF773CC100
:100910008100000000000000000000000000000056
:100920000000000000000000000006600000000061
:1009300000000000000000000000000000000000B7
:10094000000000000004407FF11319811000011025
:100950000001100001088000088000044000047FAE
:10096000000080000CE0300FFBF00FFFF00FFFF0F5
:10097000077FF0077FF0033FF00300000000E00373
:100980001EC0000400000000000000000000000085
:100990000000000000000000000000000000000057
:1009A0000000000000000000000000000000000047
:1009B0000000008BB66E8809000000077000077009
:1009C000C03FFC810F700002000000FF0F0074495F
:1009D000917706000070F8877FF8871FC0037EF0CC
:1009E0008FFFFDFFFFFF00000000000000F0FFFF91
:1009F0008F0118800118E0011000010000000000C4
:100A00000000000000000000F0FF000000000000F7
:100A1000000000000000000000000000000000F2E4
:100A2000211EC220080220000220000240000440D3
:100A300000048000088000F80F0004C8801CC03348
:100A4000FCC7FFFCCFFFFC8FFFF88FFFF80FFFF014
:100A50000FFF00000008067FE00FCC000800000038
:100A60000000000000000000000000000000000086
:100A7000000440000C8000000000000000000000A6
:100A8000000000000000000000000000000000F076
:100A90000740000480000880100801311003211075
:100AA00003D11329C1130000000000003FF0037FB1
:100AB000F0077EC007FDA00FF9A00FC14009A900F3
:100AC00008000000000000000000000000012000FD
:100AD0000360000570003D200457F007000000008F
:100AE00000000000000000000000000000000010F6
:100AF0000000000014C00300000000F0FF00000030
:100B00000000000000200000200001A000D12F9470
:100B1000CCE7000000000000FFFFFFFFFF3FFFF0F9
:100B2000277FF0233FF0A30080221404A0000000E0
:100B30000000000000000000C0000FF8800FFCC0A3
:100B40000EFCFF2EF8EBF7BF0000000000000000D5
:100B50000000000000010880021440025400020856
:100B6000E9D2170000000080FF0880000440000464
:100B700040100221000221100222C00220000000C9
:100B800000000000F00FFFF88FFFF88F6EECC6003A
:100B90001CCAA11CC1011CCC010000000000000007
:100BA00000000000000000EFF00EFFE0066EE00D18
:100BB0003EE00FFE0000000000000000000000000A
:100BC00000006EE00600C0022CC0013CC00FFC011A
:100BD000211004811008811008811008810880000C
:100BE000088000044000047F0000C1A00FF4900EB4
:100BF000E5500EE5500EE5D00779F0077FF0033F92
:100C0000F0030000007FF0030FF0011330011330F8
:100C10000113B0010F700000000000000000000090
:100C20004090030250000DD0000DD0000DD00109FE
:100C3000700000000000000000000000073080018C
:100C400000400004400004400004000000000000D8
:100C5000000000FF0F0000F5231FFDED9FFEE99F40
:100C6000CEE99FFEEF7FFEFFFFFFFFFFFFFF0000CB
:100C700000FFFDEF700F9F30011331311331011769
:100C8000E0010C00000000000000000000F00B502C
:100C90000C8DD0000DD1000DD1000F60000C0000B4
:100CA000000000000000000220000221100222408B
:100CB000022800024000044000048000088000F880
:100CC0000F001CC2891CCCC53CC927FCC41FFC8F6B
:100CD000FFF88FFFF80FFFF00FFF000000E00FFE9E
:100CE000E0022EE005BEC007F8000F000000000083
:100CF0000000000000000000C00388C0000CA0013C
:100D000036C00618000F00000000000000000000C0
:100D10000000000B10100B0A100A0A091010050A37
:100D20000A100A0A101010101010101010101010D5
:100D30001010100405060B0A100C030606070B051D
:100D40000605060A0A0A0A0A0A0A0A0A0A05051014
:100D50000B100A100C0C0D0D0C0B0E0D05090C0AD6
:100D60000F0D0E0C0E0D0C0B0D0C100C0C0B1010AF
:100D7000101010100A0A090A0A060A0A04050904D2
:100D80000F0A0A0A0A0609050A090F0909091010BB
:100D90001010101010101010101010101010101053
:100DA0001010101010101010101010101010101043
:100DB0001010101010101010101010101010101033
:100DC0001010101010101010101010101010101023
:100DD0001010101010101010101010101010101013
:100DE0001010101010101010101010101010101003
:100DF00010101010101010101010101010101010F3
:100E000010101010101010101010101010101010E2
:100E10001010100000000000000C00060000001F71
:100E200000318060C060C07FC0600060C031801F42
:100E3000000000000000000000008040802FFC2027
:100E400080008007F8E488248827F821A022982CC5
:100E500088208050808FFE00000000000000004FBE
:100E60007C29442F7C08C20FFEE12027FC21202F83
:100E7000FE20002110260850008FFE000000000018
:100E800000000000000C00060000001F003180611F
:100E90008007803D806180618063803D800000002C
:100EA00000000000000000000006000C0000001F11
:100EB000003180618007803D806180618063803D7A
:100EC000800000000000000000108018A010982092
:100ED0009037FC6140A14021402140214021402227
:100EE0004422442446283C2000000000000000006A
:100EF000000000330000001F003180618007803D4A
:100F0000806180618063803D8000000000000000FF
:100F100000000000000000000000001E0033006020
:100F200000600060006000600033001E00080004E4
:100F3000001C0000000000000006000C0000001E65
:100F4000003300618061807F806000618033001E1B
:100F500000000000000000000001007FFC00000F06
:100F6000E008200FE000047FFE40048448044004B1
:100F70004008421042603E00000000000000207F58
:100F80002049286B245D247FFE08207F2008200F45
:100F900020F0500050AA88950E9604000000000032
:100FA0000000000000180030000000300030003069
:100FB0000030003000300030003000300000000011
:100FC0000000000000000000001D00170000006F7E
:100FD0000071806180618061806180618061806179
:100FE0008000000000000000000000000006000C6F
:100FF0000000001E003300618061806180618061BB
:101000008033001E00000000000000000020403F70
:101010007E28904508900009FC200427E42424271A
:10102000E42424242427E4200420142008000000C1
:10103000000000000006000C00000061806180617B
:1010400080618061806180618063803D80000000FC
:1010500000000000000000000000003300000061FC
:101060008061806180618061806180618063803D9A
:101070008000000000000000001FF010101FF010A2
:10108000101FF00000FFFE11101FF011101FF001E3
:10109000001FF80100FFFE000000000000105010CB
:1010A000481888248421FE7C8490847C8410FC145D
:1010B000509450585050921C92E10E0000000000D5
:1010C00000210820883C5021FC41047D04A104211A
:1010D000FCFC5020502050249228923112260E0001
:1010E00000000000007EFC42847EFC42847EFC40C6
:1010F000044FE4444444445FF44444484448445066
:101100004440144008000000003E7C22443E7C2203
:10111000443E7C2004200427E4242427E4242427BC
:10112000E420042004201420080000000020001304
:10113000FC1004400447E44424442447E444244489
:101140002447E440044004400440144008000000E8
:101150000010100848FF48287E52D06B507E7C0853
:1011600050FF509150957CBF5081508150857E82B8
:101170004000000000010001003FF801001FF001E5
:1011800000FFFE00001FF010101FF010101FF010E5
:10119000101050102000000000010000803FFC08EB
:1011A0002004200440FFFE00001FF0101010101F4C
:1011B000F0101010101FF0101000000000FDFE04D1
:1011C00020484030FC1084FEFC1484108410FC1075
:1011D00084108410FC104850862302000000000098
:1011E000007E0042FE7E1042207E7C2244447CEF42
:1011F00044227C5544FF7C00006A28552695420015
:10120000000000000000507C5045FC755455FCFF68
:101210005485FC7C0045FE7C0045FC7D0445FC4477
:101220008854504BFE0000000009000CC01040170D
:10123000FC2000341052185210911011201120106F
:101240002010401FFE100000000000000000007F82
:10125000FC00180060018001000100010001000194
:101260000001000100010001000500020000000073
:10127000007FFC42045FE442447FFC40044FE448AA
:10128000244FE441045FF451047FFC41047FFC409F
:10129000040000000000000000000000000000004A
:1012A000000000000000000000000000000000003E
:1012B00000000000000000000000000000300030CE
:1012C000003000300030003000300030003000309E
:1012D00000000030000000000000000000000000DE
:1012E000006C006C006C006C00000000000000004E
:1012F00000000000000000000000000000000000EE
:1013000000000000000CC00CC019801980FFE0191B
:101310008033003300FFE033006600660000000009
:101320000000000000000004001F0035806580649C
:101330000074003C000F0007800580658035801F29
:10134000000400000000000000000000003C3066C7
:1013500060666066C066C03D8001BC0366036606C9
:101360006606660C3C000000000000000000000063
:10137000000F001980198019801B000C00360063D3
:1013800060614060C031E01E3000000000000000DD
:101390000000000000C000C000C000C0000000004D
:1013A000000000000000000000000000000000003D
:1013B0000000000000000000000C000800100030D9
:1013C00000200060006000600060006000200030CD
:1013D00000100008000C00000000000000C00040E9
:1013E0000020003000100018001800180018001825
:1013F000001000300020004000C00000000000008D
:101400000010007C001000280028000000000000F0
:1014100000000000000000000000000000000000CC
:1014200000000000000000000000000600060006AA
:10143000007FE0060006000600000000000000003B
:10144000000000000000000000000000000000009C
:10145000000000000000000000000000000000305C
:10146000001000100020000000000000000000003C
:1014700000000000000000000000000000F8000074
:10148000000000000000000000000000000000005C
:10149000000000000000000000000000000000004C
:1014A000000000000000003000000000000000000C
:1014B00000000000000C001C00180018003800306C
:1014C000003000600060006000C000C0000000004C
:1014D0000000000000000000001E00330061806179
:1014E0008061806180618061806180618033001EE5
:1014F0000000000000000000000000000006000ED8
:10150000001600260006000600060006000600067B
:1015100000060006000000000000000000000000BF
:10152000001E00330061800180018003000300067B
:10153000000C00380070007F8000000000000000F8
:1015400000000000001E0033006300030002000ED4
:1015500000030001800180618023001E0000000064
:1015600000000000000000000006000E000E001E3B
:10157000003E0036006600C600FF8006000600063A
:10158000000000000000000000000000003F0030EC
:1015900000200060007E0061000180018001806108
:1015A0008021001E0000000000000000000000007C
:1015B000001E003300218060006E007100618061B8
:1015C000806180618033001E000000000000000088
:1015D00000000000007F8001000300060006000CF0
:1015E000000C000C000C001800180018000000008F
:1015F0000000000000000000001E0061006180612A
:101600008021001E00210061806180618021001E18
:10161000000000000000000000000000001E00317B
:1016200000618061806180618033801D8001806104
:101630000033001E00000000000000000000000059
:10164000000000000000003000000000000000006A
:10165000000000000000003000000000000000005A
:10166000000000000000000000000030000000004A
:10167000000000000000000000000030001000101A
:1016800000200000003FF8244824483FF801007F74
:10169000FC0200DFF090109FF090109FF090109FE0
:1016A000F09010FFFE0000000000000000000000AD
:1016B00000000000007FC00000000000007FC000AC
:1016C0000000000000000000000000000001000118
:1016D000007FFC02001FF01010D0109FF090109FB0
:1016E000F090109FF090109010FFFE00000000009E
:1016F00000000000001E0033006180618001800353
:101700000004000C00180018000000180000000081
:1017100000000000000000000003E01C1830066319
:10172000B66CF3CC63D863D863D842D8C6CCCC6748
:10173000F030071C0C07F00000000000000E001B3A
:10174000001B001B003180318031807FC060C06091
:10175000C0C060C060000000000000000000000089
:10176000007F8060E06060606060C07F806060607B
:10177000606060606060C07F80000000000000006A
:1017800000000000000FC018603030600060006092
:1017900000600060006010303018600FC000000072
:1017A0000000000000000000007F8060C0606060FA
:1017B0003060306030603060306030606060C07FCA
:1017C000800000000000000000000000007FE060DA
:1017D000006000600060007FC0600060006000602A
:1017E0000060007FE000000000000000000000003A
:1017F000007FC0600060006000600060007F80606B
:101800000060006000600060000000000000000058
:10181000000000000007C018703030201060006029
:101820000061F8601860183018183807E0000000F0
:101830000000000000000000006030603060306098
:101840003060307FF0603060306030603060306039
:101850003000000000000000000000000060006098
:101860000060006000600060006000600060006078
:1018700000600060000000000000000000000000A8
:101880000003000300030003000300030003000340
:10189000006300630063003E0000000000000000E1
:1018A000000000000060E061C0638067006C007CA5
:1018B0000076006300618061C060E060700000003D
:1018C0000000000000000000006000600060006098
:1018D0000060006000600060006000600060007FE9
:1018E00080000000000000000000000000701C7874
:1018F0003C783C6C6C6C6C6C6C66CC66CC66CC6674
:10190000CC638C638C00000000000000000000002D
:10191000006030703078306C306C3066306330612D
:10192000B061B060F0607060300000000000000046
:10193000000000000007C0186030306018601860B8
:1019400018601860186018303018600FC000000070
:101950000000000000000000007F8060C060606048
:1019600060606060C07F8060006000600060006058
:10197000000000000000000000000000000FC01880
:101980006030306018601860186018601860183196
:10199000B018E00FB00000000000000000000000E0
:1019A000007FC0606060306030603060607FC06128
:1019B0008060C060E06070603000000000000000E7
:1019C00000000000001F8030C06060600030001C1C
:1019D0000003C000600060606030C01F8000000035
:1019E0000000000000000000007FE0060006000686
:1019F00000060006000600060006000600060006B7
:101A000000000000000000000000000000603060E6
:101A10003060306030603060306030603060306046
:101A20003030601F80000000000000000000000057
:101A300000C060C06060E060C060C0318031803153
:101A4000801B001B000E000E0000000000000000C4
:101A50000000000000C183C18363C663C663C66320
:101A6000C6366C366C366C366C1C381C3800000080
:101A700000000000000000000071C033801B000A5D
:101A8000000E0004000E001B001B00318071C0E03E
:101A9000E0000000000000000000000000E07060B6
:101AA0006030C0198019800F00060006000600068D
:101AB000000600060000000000000000000000001A
:101AC000007FC001800300030006000C000C00181A
:101AD00000300030006000FFC00000000000000087
:101AE00000080009FE28202F4028FCFE8400FC0886
:101AF000842AFC2A844AFC840008483084C30600F7
:101B00000000000000020001007FFE4100222817B3
:101B1000D004801110224847C40120FFFE010001BB
:101B2000000100010000000000080008FE4E2048EF
:101B30004048FCFE8400A408A44AA44AA484A40843
:101B40005010482086C3020000000000000440043A
:101B5000407FFE04403F20243E3F2821243F442470
:101B6000403F0000001FF812481248FFFE0000002E
:101B70000000001FF010101FF010101FF0044004B0
:101B80004044482448145014600440FFFE00000004
:101B900000000000001000087E7F4222441244141E
:101BA00048FFD8004400423F422142215A21443F8D
:101BB0004021400040000000000000000000000044
:101BC0000000001F003180618007803D80618061DE
:101BD0008063803D800000000000000000000000E5
:101BE000006000600060006E0073006180618061D1
:101BF000806180618073006E0000000000000000C2
:101C000000000000000000000000001E0033006023
:101C100000600060006000600033001E00000000F3
:101C20000000000000000000000180018001801D14
:101C30008033806180618061806180618033801D3C
:101C40008000000000000000000000000000000014
:101C50000000001E003300618061807F80600061B1
:101C60008033001E000000000000000000000000A3
:101C7000003C0060006000F80060006000600060F0
:101C800000600060006000600000000000000000D4
:101C900000000000000000000000001D8033806193
:101CA00080618061806180618033801D80018063FC
:101CB000003E000000000000006000600060006F57
:101CC000007180618061806180618061806180617C
:101CD0008000000000000000000000000060000024
:101CE0000000006000600060006000600060006054
:101CF0000060006000000000000000000000000024
:101D00000060000000000060006000600060006093
:101D100000600060006000600060006000C00000C3
:101D20000000000000600060006000638067006EDB
:101D3000007C0078006C0066006300638000000097
:101D40000000000000000000006000600060006013
:101D50000060006000600060006000600060006083
:101D60000000000000000000000000000000000073
:101D70000000006E7073986318631863186318632B
:101D80001863186318000000000000000000000045
:101D9000000000000000006F0071806180618061C0
:101DA000806180618061806180000000000000002F
:101DB00000000000000000000000001E0033006171
:101DC00080618061806180618033001E00000000BE
:101DD0000000000000000000000000000000006E95
:101DE0000073006180618061806180618073006E3A
:101DF00000600060006000000000000000000000C3
:101E00000000001D8033806180618061806180619D
:101E10008033801D8001800180018000000000006F
:101E2000000000000000006C0070006000600060B6
:101E30000060006000600060000000000000000022
:101E400000000000000000000000003E0063006091
:101E50000060001E000300030063003E000000005D
:101E6000000000000000000000200060006000F0A2
:101E70000060006000600060006000600060007052
:101E80000000000000000000000000000000000052
:101E9000000000618061806180618061806180619B
:101EA0008063803D80000000000000000000000012
:101EB00000000000000000C180C1806300630032A8
:101EC00000360014001C0018000000000000000094
:101ED0000000000000000000000000C218C7184702
:101EE0001065306DB02DA028E018C018C0000000AB
:101EF000000000000000000000000000000000C31F
:101F00000066003C003C0018003C003C006600C33A
:101F100000000000000000000000000000000000C1
:101F2000000000C180C3806300630037003E001ED4
:101F3000001E000C000C00180070000000000000E3
:101F400000000000000000FF00020004000800186C
:101F500000300060004000FF0000000000000000B2
:101F60000000000000000020203010200820042085
:101F700004200C20082100220014000C00000000A6
:101F8000000000000000000F0000800100000003BE
:101F9000C03C80010002000380048004800880109F
:101FA00040203C0000000000000000010000800014
:101FB0008001000200040008001000080004000274
:101FC000000100008000800000000000000000040C
:101FD00000023002C03F0001000080004001E00824
:101FE00020100010001000080007E00000000000B2
:101FF00000000010000F8001000200041008F81F0C
:10200000002200440004000400020001F00000006F
:10201000000000000000000000000007C01930218F
:1020200008420442044204440444082808101000F2
:102030002000C000000000000000002080104010C0
:1020400050107827C020402040404048404840532E
:10205000C054706448438400000000000000000089
:10206000000000004000400080010003000500095E
:10207000001100010001000100010000000000004B
:1020800000000000400040008000800100030005C7
:102090000009001100210001000100010001000100
:1020A000000000000000000000000000201FF00100
:1020B0000001000100010001103FF80000000000D5
:1020C000000000000000000000000002000200020A
:1020D000203FF002200220022004200420082008D3
:1020E000201040214040800000000000000000005F
:1020F00000000000101FF800100010001000200069
:10210000201FF000000000000000000000000000A0
:102110000000080004009208880884088008887F6E
:10212000FC08800880088008800900010002000087
:1021300000000000000000000000003FE000200060
:10214000400040008001000300048008401030205F
:102150001000000000000000000008000400120051
:10216000083FE4002000400040008001000380049C
:10217000400820101820080000000000000008009F
:102180000400923FC8000400000010FFF8020002A3
:1021900000040004000800080010002000000000F7
:1021A0000000000000040004000400040006000514
:1021B0000004C00440040004000400040000000007
:1021C0000000000000000000000000000000201FD0
:1021D000F000000000000000087FFC00000000008C
:1021E0000000000000000000000000000000207F50
:1021F000F000200040004000800080010002000448
:102200000008001000200000000000000000000096
:102210000C001200527FEC004000800080010001A1
:102220000002000400080010002000000000000070
:1022300000000000000020001000200420024001E7
:10224000800080016002200400080010006000008F
:10225000000000000000000000000000000000007E
:10226000200FF0002000200020004000483FFC002C
:102270000000000000000000000000000000101F2F
:10228000F80010001000100020002000247FFE0045
:10229000000000000000000000000000000000003E
:1022A000400FE0000000103FF80010001000200078
:1022B000200040008001000600180000000000001F
:1022C0000000000040044004400440044004400476
:1022D0004004400480008001000100020004000866
:1022E0000000000000000000000000000004800466
:1022F000800480048004840888089010A020C040D6
:1023000000000000000000000000000000000020AD
:102310000010001010102010401080110012001446
:102320000018000000000000000000000000000095
:102330000010000804060802100020004000800180
:10234000000200240018000000000000000000004F
:102350000000000000000000000000000000047FFA
:10236000FE0000000000000000000000000000006F
:10237000000000000000047FFE0180010001000158
:1023800000036005300918110C210841000100010B
:102390000001000000000000000100010021083FD2
:1023A000FC210821082108210821083FF821080103
:1023B0000001000100010001000000000002000116
:1023C00080010000083FFC0100010001083FFC0102
:1023D000000100010001047FFE0000000000000079
:1023E0000000007FFC001800600180010001000176
:1023F00000010001000100010001000100050002D0
:10240000000000000001007FFC00000FE008200F2A
:10241000E000047FFE400487C804400440084210E6
:1024200042603E00000000000010401840124012C0
:1024300044225E72E4AF44224422442254224822C1
:10244000422242220223FE000000000000108018F9
:10245000A01098209037FC6140A1402140214021EC
:10246000402140224422442446283C200000000011
:102470000009000CC0104017FC2000341052185204
:1024800010911011201120102010401FFE1000008C
:102490000000000000104018401040204037FC6051
:1024A000C0A0E0216021502248244E2BF42040207F
:1024B00040204000000000000008000C001BFE103F
:1024C00008300827C86448A448244827C82448205E
:1024D0000820082028201000000000000008400C00
:1024E000401BFE104037FC6444A44427FC244422D3
:1024F00040218020802170221E2C0400000000005A
:10250000001040186017FC1040208033F86208A3C8
:10251000F8220823F8220823F8220822082FFE2098
:102520000000000000110019F0122027FC34446460
:1025300044A7FC2488219C2E6023502CA823262C01
:102540002420A020400000000017FC188013F8226F
:102550000833F86208A7FE2944252824F821F0232F
:102560001024A0284021B02E0C0000000001000122
:1025700000028004400830101C3FF84100010001B7
:10258000101FF80100010001047FFE0000000000A0
:1025900000082008207FFC082008200FE008200FFA
:1025A000E008200820FFFE08400C201810301840DA
:1025B000100000000000000FE0082008200820089C
:1025C000200820082008200820082210221022209D
:1025D0001E40000000000000000100010021042155
:1025E00004210421043FFC210401002104210421D1
:1025F0000421043FFC20040000000000000002034E
:10260000823C02042204227FA20C220C22162215F4
:102610002225A2452284020412040A0404000000B8
:1026200000002000207E20002000FCFF2410241049
:1026300024242422244F44FA444084011402080034
:102640000000000000072078200820FF2008FE7FFF
:102650002249227F2249227F2208227F2208420F1C
:1026600042F08A01040000000008800C80088810F5
:102670008C109830B050E090C011801280148010FF
:102680008410841084107C0000000000000000080A
:10269000180610022010041FFE10841FFC10841F57
:1026A000FC108400827FFF0080008000800000001A
:1026B0000000003FE0042004200440044004F80A25
:1026C000500A100920112010C0212042188C0E3011
:1026D00004000000001FF01010101010101FF00078
:1026E00000FFFE080008001FF00810001000100195
:1026F0001000A000400000000000007FFC008001EE
:102700008003200D18190C610401001FF010101037
:102710001010101FF0101000000000000000001F3B
:10272000FC108413E41084108417F4100413E412D2
:1027300024122413E4222420044014800800000002
:1027400000000007007800087C08447F4408441813
:10275000441C442A442B444A44887C08440800080A
:1027600000000000003E7C224422443E7C00001F0A
:10277000F011101FF011101FF001007FFC0100018B
:1027800000010001000000000000007FFC40044048
:10279000044FE4482448244824482448244FE44073
:1027A00004400440047FFC0000000000007FFC4265
:1027B0000442045FF442044FE442045FE4422442D2
:1027C00024422442A4424440047FFC400400000010
:1027D00000001001F83F0001007FFE09200920FFE2
:1027E000FE092009207FFC0100010001003FFC00E0
:1027F0000000000000080008FC7E840884FF94416B
:1028000088228014FE7EA408A40898FF9808A408D3
:10281000A608C408800000000008000FFC10002F6C
:10282000F848080FF808080FF8040007F80C101211
:102830006021800660181E60040000000002000194
:10284000003FFE200440081FF0010011001100119C
:10285000F0110029002500430081FC000000000069
:10286000000000000602047F04220422FF2204125A
:1028700004144414240824080414041384213C4040
:1028800008000000001408950855085608FF7E222D
:102890000814087F4808283F28082808080F0878E7
:1028A0002820100000000000007FFC010021101112
:1028B0001809100D2009400100FFFE010001000170
:1028C00000010001000100010000000000112019BA
:1028D00030114829F0791015287F7C1504FFFE106F
:1028E00080148812501262219A26064000000000CF
:1028F00000010000803FFE222022202FFC22202306
:10290000E0200027F82210212020C04130460E98F8
:10291000040000000000007FFE04200420042004C6
:1029200020FFFE042004200420082008201020207E
:102930002040200000000000007EFC020402043E53
:10294000FC208020803EFC0204224412240A14123F
:102950001CE2E4424414140808000000000040FC9B
:1029600060048805047FFE4124402041FCFD24458D
:102970002405FC05280424043E2BC410000000009C
:10298000000F00F808110C49902A2024440806FF83
:102990008808141C261A04298849108860098008B0
:1029A00000000000001100190023FC420095F819F6
:1029B0000811F8310851F8910011F8129014901094
:1029C0006011981606000000002100210021003748
:1029D000FEA940A940A248234822D02460246028B0
:1029E000903088230E2C042000000000002040209E
:1029F0004027FC3040ABF8A040AFFE200023F82277
:102A00000823F8220823F8220822282210000000B8
:102A100000200023F82110FCA0204020A02B5830DB
:102A20004663F8A040204027FE20402040A04040C0
:102A3000400000000013FC12941294FBFC104013A1
:102A4000FC184037FE511093FC104017FE10401048
:102A50004050402040000000001020083008207F37
:102A600020147E124421C422446228142808100C29
:102A700010122820CEC304000000000000082049E6
:102A8000302A201C20FF7E1C442B4448C40828FF09
:102A900028121034100C28324EC0840000000000B0
:102AA00000082008207F7E08443EA82A283E101CEB
:102AB000282AC67FFC010011F0110011007FFC00E4
:102AC0000000000000020001000100FFFE082008D5
:102AD00020082004400440028001000280046018A5
:102AE0001EE00800000000000000003FFC010001A3
:102AF00000010001007FFE01800280028004800846
:102B00008010822082C07E00000000000000001FB4
:102B1000F010101010101010101FF01010101010E6
:102B200010101010101FF010100000000000000026
:102B300000001000107C10441047FE44107C10452B
:102B400010449044907C10001000100010005000C1
:102B5000200000000000FC7C844484448444FC7C0D
:102B6000844484448444FC7C840084010401040281
:102B700004041400080000000000000FF008100F0B
:102B8000F008100FF00000FFFE0100090009F8092D
:102B9000001500230040FE0000000000000040007F
:102BA000407BFC484048404FFE781048104FFE489C
:102BB000104910789048900010005000200000004C
:102BC00000100013FC1088FE88109010A038BC3450
:102BD000C45548512891101210122814CE1B04100D
:102BE00000000000001FF0002001407FFE03040DE4
:102BF00008310003000100FFFE038005401930E1A9
:102C00000E0104010000000000200023F82010FC49
:102C1000202040275E75446D64A558A5482756209E
:102C2000622140208027FC200000000000000018E6
:102C300060104010401040104012441F7E104010A1
:102C4000401040104013421C427043203E000000E0
:102C50000001000100010801107D2005C0054009A8
:102C600020092011101118210EC1040100050002D5
:102C7000000000000020401040104007FE84445433
:102C800040544017F825082490E4902460286028D8
:102C900098310E260400000000100010003FFE5284
:102CA00048924812487FFE124812481248FFFE0020
:102CB00000288824446222C2220000000000001F75
:102CC000FC1084108410841FFC1084108410841F56
:102CD000FC108410842084208440948088000000AC
:102CE00000010001007FFC02001FF0101010101FF7
:102CF000F010101FF010101FF010101010FFFE0049
:102D00000000000000100010FC10841084FE8418E5
:102D1000FC34843284528450FC90841084108410DB
:102D20008410FC10840000000000001FF800000068
:102D30000000007FFE010001001120111021084158
:102D40000C810401000500020000000000020001E7
:102D5000047FFE06601188124814281FF801003F06
:102D6000FC244428242FF420142014200800000000
:102D70000020403F7E489085080800FF7C08447F83
:102D80004449447F4449547F480840FFC2084208F0
:102D90003E0000000010001000200025FC4820F03C
:102DA00020102020204820FC200420002054205700
:102DB000FE940000000000000001007FFC01003FC5
:102DC000F80100FFFE020004401F8004103FF801DC
:102DD0000809201110650802000000000010801092
:102DE0008021F829084A90F460106020984B4EF832
:102DF0002400205480544054308010000000000013
:102E000000108010F82088290849F0F01013FE20E7
:102E1000484950FCE000D05548564E50448140008F
:102E2000800000000040407E40807E7E845348FE4B
:102E3000284A107F28034604401F8002200FF0011B
:102E400010092013100000000010001000200425BD
:102E5000FE4420F820082010202020FC20402000E4
:102E6000201C20E02447FE0000000000002000336A
:102E7000F8200821F84808FFFE104022484150F091
:102E8000E00150024E3444C0400140008000000088
:102E9000003FF8244824483FF801007FFC02001F4F
:102EA000F010101FF010101FF010101FF01010FF86
:102EB000FE00000000010001083FEC011001207F2E
:102EC000FE0080030007F81C08E40807F804080463
:102ED0000807F804080000000020403040244C425D
:102EE00070FF444246007C7E0042407E4C42707E31
:102EF00040424442464A3C440000000000000001B9
:102F000080010022043FFE200420043FFC20042016
:102F1000043FFC2004200420043FFC2004000000A7
:102F2000000400040007F0082010403FF051101189
:102F30001011101FF010001004100410040FFC00FA
:102F4000000000000004200420FFFE0420042000F4
:102F5000003FF802080208020802080228021002D4
:102F600000020002000000000004200420FFFE0414
:102F700060400031F891086108490809381110E1F2
:102F8000002104210420FC2000000000000440FF78
:102F9000FE044004403FF822081110082001007F81
:102FA000FE038005400930111C610801000000008B
:102FB0000008400840FFFE0840048024FC24A025AF
:102FC00010261004001FF0129012901290FFFE00C5
:102FD00000000000000040787C48404BFE4A447AE4
:102FE0007003C4FA7C220042F07A900A900A920A96
:102FF000922B0E140000000000010001003FFC01B4
:10300000001FF801007FFE030006880C8C3850C8B2
:103010002009100A0E0C0408000000000002000144
:10302000007FFE000000001FF000001FF000000005
:10303000001FF01010101010101FF01010000000F2
:103040000020001BF81048FC4800487C4801F87C30
:103050004800487C484448444A444A7C464442002C
:103060004000000000200018F81088FE8800887DCD
:103070000602007CF800887C884450442044507C40
:10308000884506020400000000400033FC2040FC9C
:103090004001F8788800887BFE000079F8490849EB
:1030A00008490879F8490800000000000041FC3197
:1030B000242124FDFC0124792401FC790401747984
:1030C000544954497449547A044A140408000000CD
:1030D00000404020401840104000400040F04010A8
:1030E000A010A010A01090111015081A08120604C4
:1030F0000400000000400027F8310821080108F111
:103100000817E81108110811081108110A150A1901
:103110000A1104000000000000400021F0311021DD
:103120001001100110E20E25F8210821082090203E
:103130009028603090230E0C040000000040002313
:10314000FC3040204003F8E088208827FE20002142
:10315000F821082108290831F821080000000000A2
:103160000043FC2244324423F40244E3F4220422C8
:10317000F4229422942AF4329424040404081410AF
:103180000800000000010001003FFC01000100FFF9
:10319000FE024012501A4812442446444288400815
:1031A000401140208000000000080009FC08447E17
:1031B0004408440854FE8809FC48844E84488448E6
:1031C000FC4884A8009FFE00000000000013FE12CF
:1031D00022942055FC1020FFFC292429FC292429B5
:1031E000FC48204BFE5C20882000200020000000CE
:1031F0000000402240124013F804400040F7FC1148
:1032000020112012241224141C1000280047FE0054
:10321000000000094C756D696E616E636500094CB4
:10322000756D696E616E636500094C756D696E61DF
:103230006E636500094C756D696E616E63650009AA
:103240004C756D696E616E636500094C756D696ED4
:10325000616E636500094C756D696E616E63650032
:10326000094C756D696E616E636500075069637422
:10327000757265000750696374757265000750695F
:103280006374757265000750696374757265000731
:10329000506963747572650007506963747572656F
:1032A000000750696374757265000750696374752F
:1032B00072650005436F6C6F720005436F6C6F722F
:1032C0000005436F6C6F720005436F6C6F720005F1
:1032D000436F6C6F720005436F6C6F720005436F34
:1032E0006C6F720005436F6C6F72000C4F5344207B
:1032F00053657474696E6773000C4F5344205365B3
:103300007474696E6773000C4F5344205365747472
:10331000696E6773000C4F53442053657474696E73
:103320006773000C4F53442053657474696E677360
:10333000000C4F53442053657474696E6773000C1E
:103340004F53442053657474696E6773000C4F5378
:10335000442053657474696E677300055365747512
:1033600070000553657475700005536574757000C1
:1033700005536574757000055365747570000553C9
:103380006574757000055365747570000553657438
:10339000757000FF3213FF321EFF3229FF3234FFF7
:1033A000323FFF324AFF3255FF3260FF326BFF324D
:1033B00074FF327DFF3286FF328FFF3298FF32A1D9
:1033C000FF32AAFF32B3FF32B3FF32C1FF32C8FF70
:1033D00032CFFF32D6FF32DDFF32E4FF32EBFF3275
:1033E000F9FF3307FF3315FF3323FF3331FF333F3B
:1033F000FF334DFF335BFF3362FF3369FF335BFF06
:103400003377FF337EFF3385FF338C0A427269675F
:1034100068746E657373000A4272696768746E65DA
:103420007373000A4272696768746E657373000A89
:103430004272696768746E657373000A42726967E5
:1034400068746E657373000A4272696768746E65AA
:103450007373000A4272696768746E657373000A59
:103460004272696768746E65737300FF340BFF34D2
:1034700017FF3423FF342FFF343BFF3447FF34530F
:10348000FF345F08436F6E74726173740008436F9A
:103490006E74726173740008436F6E74726173743A
:1034A0000008436F6E74726173740008436F6E742A
:1034B000726173740008436F6E74726173740008F4
:1034C000436F6E74726173740008436F6E7472613F
:1034D000737400FF3483FF348DFF3497FF34A1FFF2
:1034E00034ABFF34B5FF34BFFF34C90A5361747580
:1034F000726174696F6E000A5361747572617469E8
:103500006F6E000A53617475726174696F6E000AA0
:1035100053617475726174696F6E000A53617475DA
:10352000726174696F6E000A5361747572617469B7
:103530006F6E000A53617475726174696F6E000A70
:1035400053617475726174696F6E00FF34EBFF3400
:10355000F7FF3503FF350FFF351BFF3527FF3533E9
:10356000FF353F0454696E74000454696E7400049E
:1035700054696E74000454696E74000454696E7466
:10358000000454696E74000454696E740004546934
:103590006E7400FF3563FF3569FF356FFF3575FFCA
:1035A000357BFF3581FF3587FF358D03444352005E
:1035B0000344435200034443520003444352000374
:1035C0004443520003444352000344435200034423
:1035D000435200FF35ABFF35B0FF35B5FF35BAFFBD
:1035E00035BFFF35C4FF35C9FF35CE05506861735F
:1035F000650005506861736500055068617365007A
:103600000550686173650005506861736500055079
:1036100068617365000550686173650005506861F5
:10362000736500FF35EBFF35F2FF35EBFF3600FF2A
:1036300035F2FF35F2FF3615FF361C05436C6F631C
:103640006B0005436C6F636B0005436C6F636B002D
:1036500005436C6F636B0005436C6F636B00054340
:103660006C6F636B0005436C6F636B0005436C6F9D
:10367000636B00FF363BFF3642FF3649FF3650FF93
:103680003657FF365EFF3665FF366C0B482E2050EE
:103690006F736974696F6E000B482E20506F7369E9
:1036A00074696F6E000B482E20506F736974696FD8
:1036B0006E000B482E20506F736974696F6E000B9B
:1036C000482E20506F736974696F6E000B482E206E
:1036D000506F736974696F6E000B482E20506F73C2
:1036E0006974696F6E000B482E20506F736974699E
:1036F0006F6E00FF368BFF3698FF36A5FF36B2FFA0
:1037000036BFFF36CCFF36D9FF36E60B562E20509B
:103710006F736974696F6E000B562E20506F73695A
:1037200074696F6E000B562E20506F736974696F49
:103730006E000B562E20506F736974696F6E000B0C
:10374000562E20506F736974696F6E000B562E20D1
:10375000506F736974696F6E000B562E20506F7333
:103760006974696F6E000B562E20506F736974690F
:103770006F6E00FF370BFF3718FF3725FF3732FF1B
:10378000373FFF374CFF3759FF376611436F6C6F78
:10379000722054656D7065726174757265001143B5
:1037A0006F6C6F722054656D7065726174757265AF
:1037B0000011436F6C6F722054656D706572617497
:1037C0007572650011436F6C6F722054656D706582
:1037D0007261747572650011436F6C6F722054656D
:1037E0006D70657261747572650011436F6C6F72F4
:1037F0002054656D70657261747572650011436F58
:103800006C6F722054656D706572617475726500BD
:1038100011436F6C6F722054656D706572617475C1
:10382000726500FF378BFF379EFF37B1FF37C4FF4C
:1038300037D7FF37EAFF37FDFF38100B5573657236
:1038400020446566696E65000B557365722044659A
:1038500066696E65000B5573657220446566696E16
:1038600065000B5573657220446566696E65000BD3
:103870005573657220446566696E65000B55736506
:103880007220446566696E65000B5573657220444D
:103890006566696E65000B557365722044656669DF
:1038A0006E6500FF383BFF3848FF3855FF3862FF30
:1038B000386FFF387CFF3889FF3896063131353054
:1038C000304B0005393330304B0005383230304B47
:1038D0000005373530304B0005363530304B0005AC
:1038E000353030304B000473524742000453524786
:1038F0004200FF38E6FF38E6FF38E6FF38E6FF38DB
:10390000E6FF38ECFF38E6FF38E6FF38DFFF38DF48
:10391000FF38DFFF38DFFF38DFFF38DFFF38DFFF3A
:1039200038DFFF38D8FF38D8FF38D8FF38D8FF380D
:10393000D8FF38D8FF38D8FF38D8FF38D1FF38D172
:10394000FF38D1FF38D1FF38D1FF38D1FF38D1FF50
:1039500038D1FF38CAFF38CAFF38CAFF38CAFF3823
:10396000CAFF38CAFF38CAFF38CAFF38C3FF38C396
:10397000FF38C3FF38C3FF38C3FF38C3FF38C3FF66
:1039800038C3FF38BBFF38BBFF38BBFF38BBFF383D
:10399000BBFF38BBFF38BBFF38BBFF38E6FF38E65C
:1039A000FF38E6FF38E6FF38E6FF38ECFF38E6FF81
:1039B00038E6FF383BFF3848FF3855FF3862FF389C
:1039C0006FFF387CFF3889FF389603526564000327
:1039D000526564000352656400035265640003523B
:1039E0006564000352656400035265640003526518
:1039F0006400FF39CAFF39CFFF39D4FF39D9FF3905
:103A0000DEFF39E3FF39E8FF39ED05477265656E82
:103A10000005477265656E0005477265656E0005B5
:103A2000477265656E0005477265656E00054772F1
:103A300065656E0005477265656E000547726565D0
:103A40006E00FF3A0AFF3A11FF3A18FF3A1FFF3A99
:103A500026FF3A2DFF3A34FF3A3B04426C7565006D
:103A600004426C75650004426C75650004426C7517
:103A7000650004426C75650004426C756500044283
:103A80006C75650004426C756500FF3A5AFF3A6038
:103A9000FF3A66FF3A6CFF3A72FF3A78FF3A7EFFD0
:103AA0003A840A486F72697A6F6E74616C000A48D2
:103AB0006F72697A6F6E74616C000A486F72697A0E
:103AC0006F6E74616C000A486F72697A6F6E746110
:103AD0006C000A486F72697A6F6E74616C000A48F4
:103AE0006F72697A6F6E74616C000A486F72697ADE
:103AF0006F6E74616C000A486F72697A6F6E7461E0
:103B00006C00FF3AA2FF3AAEFF3ABAFF3AC6FF3A5C
:103B1000D2FF3ADEFF3AEAFF3AF608566572746958
:103B200063616C0008566572746963616C000856C5
:103B30006572746963616C000856657274696B61C3
:103B40006C0008566572746963616C000856657292
:103B5000746963616C0008566572746963616C0016
:103B600008566572746963616C00FF3B1AFF3B2461
:103B7000FF3B2EFF3B38FF3B42FF3B4CFF3B56FFDA
:103B80003B600C5472616E73706172656E63790094
:103B90000C5472616E73706172656E7465000C54C2
:103BA00072616E73706172656E6365000C54726150
:103BB0006E73706172656E6379000C5472616E731E
:103BC000706172656E6379000C5472616E7370611E
:103BD00072656E6379000C5472616E737061726508
:103BE0006E6379000C5472616E73706172656E63FE
:103BF0007900FF3B82FF3B90FF3B9EFF3BACFF3BCE
:103C0000BAFF3BC8FF3BD6FF3BE40C4F5344205464
:103C1000696D65204F7574000C4F53442054696DD5
:103C200065204F7574000C4F53442054696D652016
:103C30004F7574000C4F53442054696D65204F75C7
:103C400074000C4F53442054696D65204F75740007
:103C50000C4F53442054696D65204F7574000C4F10
:103C600053442054696D65204F7574000C4F5344C4
:103C70002054696D65204F757400FF3C0AFF3C18A5
:103C8000FF3C26FF3C34FF3C42FF3C50FF3C5EFFC4
:103C90003C6C084C616E6775616765000649646934
:103CA0006F6D6100064C616E677565000753707239
:103CB0006163686500064C696E677561000649645A
:103CC000696F6D6100047E91838502E9E7FF3C9294
:103CD000FF3C9CFF3CA4FF3CACFF3CB5FF3CBDFF60
:103CE0003CC5FF3CCA05496E7075740007456E748B
:103CF000726164610006456E747212650745696EF3
:103D000067616E670008496E67726573736F0007BD
:103D1000456E7472616461000442786F8402EC8DB8
:103D2000FF3CE5FF3CECFF3CF5FF3CFCFF3D05FFA5
:103D30003D0FFF3D18FF3D1D05526573657400087A
:103D40005265696E6963696F000D5212696E69741C
:103D500069616C69736572000C5A757218636B73D4
:103D600065747A656E000552657365740005526569
:103D7000706F7200054392706F6302A5DEFF3D38DD
:103D8000FF3D3FFF3D49FF3D58FF3D66FF3D6DFF55
:103D90003D74FF3D7A07456E676C6973680007459F
:103DA0007370611A6F6C084672616E1061697307F7
:103DB0004465757473636800084974616C69616E69
:103DC0006F0009506F72747567750A7307507963D5
:103DD00063858895041718198BFF3D95FF3D9EFF5D
:103DE0003DA6FF3DAFFF3DB8FF3DC2FF3DCCFF3DCF
:103DF000D40356474100FF3DF1FF3DF1FF3DF1FF88
:103E00003DF1FF3DF1FF3DF1FF3DF1FF3DF1034489
:103E1000564900FF3E0EFF3E0EFF3E0EFF3E0EFFD8
:103E20003E0EFF3E0EFF3E0EFF3E0E0448444D493F
:103E300000FF3E2BFF3E2BFF3E2BFF3E2BFF3E2B7A
:103E4000FF3E2BFF3E2BFF3E2B05564944454F00BE
:103E5000FF3E49FF3E49FF3E49FF3E49FF3E49FFC5
:103E60003E49FF3E49FF3E49035965730002531323
:103E7000034F756900024A61000253130353696DD1
:103E800000028A6101C1FF3E68FF3E6DFF3E70FF88
:103E90003E75FF3E79FF3E7CFF3E81FF3E84024E31
:103EA0006F00024E6F00034E6F6E00044E65696E28
:103EB00000024E6F00034E1B6F034865860199FF99
:103EC0003E9EFF3E9EFF3EA6FF3EABFF3E9EFF3E58
:103ED000B5FF3EB9FF3EBD0F4175746F2041646A66
:103EE0007573746D656E740012416A757374652024
:103EF0006175746F6D147469636F00135212676C8F
:103F0000616765206175746F6D61746971756500B5
:103F1000124175746F6D2E2045696E7374656C6CFB
:103F2000756E6700165265676F6C617A696F6E65B2
:103F3000206175746F6D61746963610012416A7507
:103F4000737465204175746F6D047469636F000F3D
:103F5000418C866F70659E798E88706F8C85610448
:103F6000E192EBBCFF3ED7FF3EE8FF3EFBFF3F1078
:103F7000FF3F24FF3F3CFF3F4FFF3F5F0B506C650F
:103F80006173652057616974000B506C65617365DE
:103F90002057616974000B506C656173652057612F
:103FA0006974000B506C656173652057616974001A
:103FB0000B506C656173652057616974000B506C20
:103FC000656173652057616974000B506C6561739E
:103FD000652057616974000B506C656173652057EB
:103FE00061697400FF3F7CFF3F89FF3F96FF3FA35D
:103FF000FF3FB0FF3FBDFF3FCAFF3FD70A564741D3
:1040000028442D5355422900FF3FFCFF3FFCFF3F52
:10401000FCFF3FFCFF3FFCFF3FFCFF3FFCFF3FFC82
:104020000C4469676974616C2844564929000E4E36
:10403000756D1272697175652844564929000D44E1
:1040400069676974616C652844564929000D8B883D
:104050009D706F8A6F9528445649290007BBA42894
:104060004456492900FF4020FF4020FF402EFF40DA
:1040700020FF403EFF4020FF404DFF405C0C536955
:10408000676E616C20496E70757400084154454E2E
:1040900043490B4E0741434854554E47000A41548B
:1040A00054454E5A494F4E4500074154454E1F0452
:1040B0004F084248824D4148824502CCB3FF407DC3
:1040C000FF408BFF407DFF4094FF409DFF40A9FFD4
:1040D00040B1FF40BA024F6E0008416374697661D7
:1040E000646F00064163746976120345696E0008C7
:1040F000417474697661746F00064C696761646F1E
:10410000000442858E2E01BDFF40D5FF40D9FF40FF
:10411000E3FF40EAFF40EFFF40F9FF4101FF4106A6
:10412000034F6666000B446573616374697661646E
:104130006F000A44127361637469761265034175F6
:1041400073000B446973617474697661746F00095C
:104150004465736C696761646F00054283858E2EC8
:1041600001B9FF4120FF4125FF4132FF413DFF41A1
:1041700042FF414FFF415AFF4160044D7574650095
:104180000853696C656E63696F0008536F757264DC
:10419000696E65000E5374756D6D736368616C7440
:1041A000756E67000A53696C656E7A696F736F008C
:1041B0000953696C656E636961720009A16591209C
:1041C000918C79856102B1B2FF417AFF4180FF4154
:1041D0008AFF4194FF41A4FF41B0FF41BBFF41C5AD
:1041E0000B4F76657220447269766572000B4F76CC
:1041F000657220447269766572000B4F7665722095
:10420000447269766572000B4F766572204472695C
:10421000766572000B4F766572204472697665721E
:10422000000B4F76657220447269766572000B4F01
:1042300076657220447269766572000B4F766572FE
:104240002044726976657200FF41E0FF41EDFF4155
:10425000FAFF4207FF4214FF4221FF422EFF423B7A
:1042600003444652000344465200034446520003AE
:10427000444652000344465200034446520003445D
:104280004652000344465200FF4260FF4265FF422F
:104290006AFF426FFF4274FF4279FF427EFF428312
:1042A0000D4D6F6E69746F722053657475700015D3
:1042B000436F6E6669677572616369096E204D6F41
:1042C0006E69746F720016436F6E6669677572610E
:1042D00074696F6E204D6F6E6974657572000D4D57
:1042E0006F6E69746F722D5365747570000D536530
:1042F000747570204D6F6E69746F720017436F6E26
:10430000666967757261101B6F20446F204D6F6E78
:1043100069746F72001248616386706F95856120C1
:104320004D6F8988866F706105C2D89CE8DEFF42B8
:10433000A0FF42AFFF42C6FF42DEFF42EDFF42FC5C
:10434000FF4315FF43280445786974000553616CE9
:10435000697200075175697474657200074265657A
:104360006E64656E00084368697564657265000473
:104370005361697200054283786F8402F28EFF43B5
:1043800046FF434CFF4353FF435CFF4365FF436FCE
:10439000FF4375FF437B044261636B000541747208
:1043A0001473065265746F757200065A757218633D
:1043B0006B08496E64696574726F0008416E7465BC
:1043C00072696F720005486191618402F09DFF433C
:1043D00096FF439CFF43A2FF43AAFF43B1FF43BBA9
:1043E000FF43C5FF43CB024F4B00020203FF43E6EE
:1043F000FF43E6FF43E6FF43E6FF43E6FF43E6FFF6
:1044000043E6FF43EA044E65787400095369677513
:1044100069656E7465000753756976616E74000690
:1044200057656974657200064176616E74690008AB
:1044300053656775696E746500058A618E656503ED
:10444000050607FF4405FF440BFF4416FF441FFF0A
:104450004427FF442FFF4439FF443F0541756469F9
:104460006F0005027564696F0005419A84886F02C8
:10447000B2D00B5374616E642D616C6F6E65000A6F
:1044800053096C6F20617564696F00084175746F22
:104490006E6F6D65000C456967656E73740F6E64B1
:1044A000696700084175746F6E6F6D6F0008417524
:1044B00074096E6F6D6F000A418C866F896F9389E6
:1044C000839504F4B28F95FF4472FF447FFF448BC1
:1044D000FF4495FF44A3FF44ADFF44B7FF44C20827
:1044E0004F726967696E616C00084F726967696E27
:1044F000616C00084F726967696E616C00084F72E9
:104500006967696E616C00094F726967696E616CF9
:104510006500084F726967696E616C000C4F7088A6
:10452000868889618E89839502F5F6FF44DFFF4412
:10453000E9FF44F3FF44E9FF4507FF44E9FF451C59
:10454000FF4528045761726D000843616C69656E10
:104550007465000643686175646500045761726D97
:10456000000543616C646F00065175656E746500EB
:104570000654658D8E83950201E2FF4543FF454950
:10458000FF4553FF455BFF4561FF4568FF4570FFF1
:10459000457704436F6F6C00044672136F064672D2
:1045A0006F69646500044B616C7400064672656453
:1045B000646F0004467269610008586F8E6F8489C9
:1045C00083950200E2FF4592FF4598FF459DFF4518
:1045D000A5FF45ABFF45B3FF45B9FF45C2044155B3
:1045E000544F00044142544F0002E192FF45DDFF69
:1045F00045DDFF45DDFF45DDFF45DDFF45DDFF45D1
:10460000E3FF45E90D536D617274436F6E7472611F
:1046100073740015436F6E74726173746520696EF4
:1046200074656C6967656E74650015436F6E7472AE
:104630006173746520696E74656C6C6967656E740E
:10464000000F496E74656C2E204B6F6E747261732F
:10465000740013436F6E74726173746F20696E74AB
:1046600075697469766F0015418C866F93618688D1
:1046700098656385889520856F892E2E2E0005AA62
:10468000DFA7CAAE175265736F6C7574696F6E20C1
:104690004E6F74696669636174696F6E00194E6F5D
:1046A0007469666963616369096E20646520726577
:1046B000736F6C752E2E2E00194E6F7469666963C8
:1046C0006174696F6E206465207212736F6C752E51
:1046D0002E2E00184D69747465696C756E67207AAA
:1046E0007572204175666C1D73756E6700144E6F90
:1046F000746966696361207269736F6C757A696F3A
:104700006E650012417669736F206465205265738F
:104710006F6C75101B6F16A98C65846F938E6589FD
:104720008865206F20706191702E2E2E00058F0BF2
:104730000C0D0E0B496E666F726D6174696F6E00C1
:104740000B496E666F726D616369096E04496E662E
:104750006F000A496E666F726D61101B6F0A828965
:104760009D6F7093619B889902FCFF06564F4C55D4
:104770004D450007564F4C554D454E000A4C41558E
:1047800054535403524B45000980504F4D4B4F43F7
:10479000547F02B2A9FF476BFF4773FF476BFF4788
:1047A0007CFF476BFF476BFF4788FF479201200064
:1047B0001943414E4E4F5420444953504C415920C7
:1047C0005448495320564944454F001B4E4F2053EF
:1047D000452050554544452056495355414C495A6A
:1047E000415220455354450015494D504F535349AC
:1047F000424C45204427414646494348455200140F
:1048000046414C534348455220564944454F4D4F2D
:104810004455532C0018494D504F53534942494C6D
:10482000452056495355414C495A5A415245001961
:104830004E044F200620504F53531356454C2056DC
:10484000495355414C495A4152001A484520A98ABA
:10485000414554437E204F544FA150419782547F8D
:1048600020A2544F540A7EDFC2D8C9E5D0C8AF2C6D
:10487000154D4F44452C204348414E474520434F5A
:104880004D5055544552000E4D4F444F2044452045
:10489000560744454F2E00164345204D4F444520B2
:1048A000564944064F2E2043484F4953495215421A
:1048B000494C4453434849524D414E5A4549474556
:1048C000204155460016515545535441204D4F4403
:1048D000414C49540120564944454F2C001345533F
:1048E0005445204D4F444F20444520561344454FD6
:1048F0002C1442828A454F5045A3824D2E20829728
:104900004D45488254450BEAA8D3E0C2D8EC8DE867
:10491000DE8010444953504C415920494E50555463
:1049200020544F001A53454C454343494F4E4520B0
:10493000454E20454C204F5244454E41444F520075
:10494000144C27454E5452064520442741464649BB
:104950004348414745000E31323830583130323407
:10496000403630485A001543414D42494152452096
:10497000494D504F5354415A494F4E4500134D4FE6
:1049800044494649515545205245534F4C551F0403
:104990004F125041975045A545482082458A824391
:1049A00090A4457E10444953504C415920494E50E3
:1049B000555420544F0015312032383020582031C2
:1049C00020303234204020363020487A00185649B2
:1049D00044454F205355203132383058313032342D
:1049E00040203630485A0018454352042050415266
:1049F0004120313238305831303234403630485A24
:104A0000001048413132383058313032344036307D
:104A1000808B0A554D534348414C54454E00FF4747
:104A2000B0FF47CBFF47E8FF47FFFF4815FF482F80
:104A3000FF484AFF4865FF4870FF4887FF4897FFD7
:104A400048AEFF48C5FF48DDFF48F1FF4906FF4972
:104A500012FF4924FF4940FF4956FF4966FF497D3F
:104A6000FF4991FF4956FF4956FF4956FF49B6FF96
:104A70004A12FF49CDFF49E7FF4A01FF47AD1754EE
:104A8000484953204953203835485A204F564552FB
:104A900044524956452C0019534F425245455850EF
:104AA0004C4F52414349094E204120383520485A45
:104AB0002E00105355524348415247452038352067
:104AC000485A2C001744494553204953542038353F
:104AD000485A204F5645525343414E2C00134F56CF
:104AE0004552445249564520444120383520485AC1
:104AF0002C0017534F42524558504C4F52411F04FF
:104B00004F204120383520485A2C0010A0414354F2
:104B10004F544120383520808B2048450ACEC1387B
:104B200035485AEFEE922C174348414E47452043F3
:104B30004F4D505554455220444953504C41590013
:104B40001A53454C454343494F4E4520454E204559
:104B50004C204F5244454E41444F52001043484F61
:104B600049534952204C27454E54520645164D4F45
:104B70004E49544F522D45494E47414E4753534994
:104B8000474E414C0012494D504F5354415245201D
:104B9000494E47524553534F00184D4F44494649DB
:104BA000434152205245534F4C551F044F20504112
:104BB0005241139050824D4548824D412E2082979C
:104BC0004D45488254450BEAA8D3E0C2D8EC8DE8A5
:104BD000DE8017494E50555420544F203132383022
:104BE0005831303234403630485A000E3132383085
:104BF0005831303234403630485A000B4427414651
:104C00004649434841474500124155462031323814
:104C1000305831303234403630485A1353434845C7
:104C2000524D4F20434F4D5055544552205355003F
:104C30000E313238305831303234403630485A0A2A
:104C40005041975045A54548824511484120313291
:104C500038305831303234403630808B06034E4481
:104C600045524E00FF4A7EFF4A97FF4AB2FF4AC4B0
:104C7000FF4ADDFF4AF2FF4B0BFF4B1CFF4B27FFA8
:104C80004B40FF4B5CFF4B6DFF4B85FF4B99FF4B40
:104C9000B2FF4BC6FF4BD2FF4BEBFF4BFBFF4C0869
:104CA000FF4C1BFF4C30FF4C3FFF4BEBFF47ADFF72
:104CB00047ADFF4BEBFF4C5CFF4BEBFF47ADFF4CB1
:104CC0004AFF47AD194D4F4E49544F5220434F4E66
:104CD00054524F4C5320554E4C4F434B4544000DBE
:104CE000434F4E54524F4C45532044454C001543BE
:104CF0004F4D4D414E444553204455204D4F4E4954
:104D00005445555200144D4F4E49544F5245494E4B
:104D10005354454C4C554E47454E000D434F4E5451
:104D2000524F4C4C492044454C0014436F6E7472F2
:104D30006F6C6F7320646F206D6F6E69746F72009B
:104D40000F4B896F8D858820936F8988866F70617E
:104D500006E3F9FAFBE6AB154D4F4E49544F52208E
:104D6000444553424C4F51554541444F53000E4426
:104D700006564552524F55494C4C0645530009457D
:104D80004E5453504552525400114D4F4E49544FBA
:104D9000522053424C4F4343415449000D646573C4
:104DA000626C6F71756561646F73000E70619192D2
:104DB0008E6F8588706F8C618983012000174D4F3D
:104DC0004E49544F5220434F4E54524F4C53204C57
:104DD0004F434B45440006E3F9FAFBABA6124D4F97
:104DE0004E49544F5220424C4F51554541444F5328
:104DF000000C564552524F55494C4C0645530847F6
:104E00004553504552525400104D4F4E49544F5245
:104E100020424C4F4343415449000A626C6F717504
:104E20006561646F73000D9161928E6F8588706FFC
:104E30008C618983FF4CC4FF4CDFFF4CEEFF4D05B6
:104E4000FF4D1BFF4D2AFF4D40FF4D50FF47ADFF6B
:104E50004D57FF4D6EFF4D7EFF4D89FF4D9CFF4D21
:104E6000ABFF47ADFF4DBDFF4CDFFF4CEEFF4D05E7
:104E7000FF4D1BFF4D2AFF4D40FF4DD6FF47ADFFB5
:104E80004DDDFF4DF1FF4DFEFF4E08FF4E1AFF4E68
:104E900026FF47AD13454E544552494E4720534CCB
:104EA000454550204D4F4445001641434345534F1F
:104EB000204155544F444553434F4E455849094EA0
:104EC000165041535341474520454E204D4F4445D0
:104ED000205645494C4C45001A5343484C554D4DBE
:104EE00045524245545249454220414B5449564946
:104EF0004552540016494E534552494D454E544F64
:104F0000204D4F444F20534C4545500016414345DA
:104F100053534F20414F2054454D504F52495A4111
:104F2000444F52001890455045584F8A2042205017
:104F300045A3824D204FA3828A4148827E06F18D8F
:104F4000D7D6C8AFFF4E94FF4EA9FF4EC0FF4ED834
:104F5000FF4EF4FF4F0CFF4F24FF4F3D0F4E6F20CD
:104F60005369676E616C20496E70757400174E4FFF
:104F70002048415920454E54524144412044452047
:104F8000560744454F0012504153204427454E5484
:104F900052064520564944064F184B45494E205667
:104FA0004944454F45494E47414E47535349474E63
:104FB000414C00154E455353554E20494E475245DE
:104FC00053534F20564944454F00184E454E4855BF
:104FD0004D4120454E5452414441204445205613F2
:104FE00044454F00104845542042828A454F438231
:104FF000804841A44105BFE5D0EC8DFF4F5CFF4FD9
:105000006DFF4F86FF4F99FF4FB3FF4FCAFF4FE42D
:10501000FF4FF516434845434B204341424C452042
:10502000434F4E4E454354494F4E0015434F4E5447
:10503000524F4C4152204C4120434F4E4558490954
:105040004E155606524946494552204C4120434F81
:105050004E4E4558494F4E0F4B4142454C564552D6
:1050600042494E44554E471A5645524946494341D6
:10507000524520494C20434F4C4C4547414D454EED
:10508000544F001B56455249464943415220412046
:10509000434F4E4558044F20444F204341424F1543
:1050A00090504F4245507F544520904F8A4BA4A6C4
:1050B000A04548824506C7C6D3DDB8960944454C8D
:1050C000204341424C450009504152204319424C73
:1050D00045000A0C42455250520C46454E000844C9
:1050E000454C204341564F00064B41A145A47EFF4D
:1050F0005013FF502BFF5041FF5057FF5067FF5098
:1051000083FF509FFF50B5FF47ADFF50BCFF50C716
:10511000FF50D2FF50DEFF47ADFF50E8FF47AD091B
:105120004444432F4349204F4E00104444432F43EF
:105130004920454E43454E4449444F000D444443A5
:105140002F434920414C4C554D060A4444432F43BC
:10515000492045494E000D4444432F4349204C49C2
:105160004741444F000A4444432F434920424BA443
:10517000094444432F434920BD09FF511FFF512AD1
:10518000FF513CFF514AFF511FFF5156FF5165FF30
:1051900051700A4444432F4349204F4646000E4471
:1051A00044432F4349204150414741444F000D445F
:1051B00044432F434920065445494E54000A444471
:1051C000432F43492041555300104444432F434942
:1051D000204445534C494741444F000B4444432F1E
:1051E00043492042A74BA4094444432F434920B9D3
:1051F00008FF5192FF519EFF51AEFF51BDFF5192EA
:10520000FF51C9FF51DBFF51E712555345203132A1
:1052100038305831303234403630485A000C4F5014
:1052200054494D49434520434F4E001531323830E3
:1052300020582031303234403630485A20504F55B3
:1052400052000F4245535445532045524745424E64
:10525000495300165554494C495A4520313238308B
:105260005831303234403630485A00114F90548211
:105270004D41A47F48A781205045A3824D1187D27C
:1052800020313238305831303234403630485A0FBD
:10529000464F52204245535420524553554C5400DA
:1052A0000E313238305831303234403630485A00BE
:1052B0000D44455320520653554C54415453000B52
:1052C000434F4E5349474C4941544F000E504152B1
:1052D0004120554D204D454C484F52000784ED91DB
:1052E000C386BAC5084F5054494D4155580009521C
:1052F0004553554C5441444F00FF5209FF521DFF86
:10530000522BFF5242FF52A0FF5253FF526BFF52EB
:105310007DFF528FFF52A0FF52B0FF52A0FF52BF3D
:10532000FF52CCFF52A0FF52DCFF47ADFF47ADFF5D
:1053300052E4FF47ADFF47ADFF52EEFF47ADFF47D9
:10534000AD16735247422056616C75652057696CE3
:105350006C204368616E67650016456C2076616C51
:105360006F7220735247422063616D6269617214EB
:10537000184C612076616C6575722073524742202B
:1053800064657669656E64726100137352474220EA
:10539000576572742057697264204175662E144DEA
:1053A0006F6469666963612076616C6F72652073F2
:1053B000524742001456616C6F722053524742208C
:1053C000697214206D75646172000D97896198652A
:1053D00089886520735247420C7352474220E2127B
:1053E000FDA8FEF31A08746F20363530304B0006E6
:1053F00036353030204B00073620353030204B001A
:105400000E47650F6E6465727420363530304B0080
:10541000076120363530304B000A706172612036EA
:105420003530304B001388919365898886639920C5
:10543000846F2036353030204BFF5341FF5359FFE6
:105440005370FF538AFF539EFF53B4FF53CAFF5359
:10545000D8FF53E5FF53EFFF53F7FF5400FF5410FD
:10546000FF5419FF5425FF53EF0A444E502073791F
:105470007374656D000B4E4F564154454B203637C3
:1054800033001056302E303120323030382D303548
:105490002D3133000B4F666669636520576F726B61
:1054A000001254726162616A6F20656E206F6669D6
:1054B00063696E61000E5472617661696C20627579
:1054C00072656175000A4218726F61726265697473
:1054D00000075566666963696F0016547261626100
:1054E0006C686F2064652045736372697409726922
:1054F0006F000E4F9D8863896199207061926F865D
:1055000061048B7F81890D496D61676520566965EE
:1055100077696E67000A56657220696D6167656E0E
:105520000012416666696368616765206427696D7A
:1055300061676573000B42696C64616E7A656967C7
:1055400065001256697375616C697A2E20696D6DFC
:105550006167696E65001156697375616C697A617E
:105560007220496D6167656D000D90706F63932EB9
:105570002082916F92702E04909397980D456E74CF
:1055800065727461696E6D656E74000F456E74723C
:105590006574656E696D69656E746F000E44697639
:1055A000657274697373656D656E74000C556E7405
:1055B000657268616C74756E67000F496E74726114
:1055C0007474656E696D656E746F000E456E7472ED
:1055D0006574656E696D656E746F000F5061918CB6
:1055E0008E65856186658E8789839502A3B7074599
:1055F000636F6E6F6D79000641686F72726F00089D
:1056000006636F6E6F6D69650009537061726D6F2F
:1056100064757300155269737061726D696F2065EE
:105620006E657267657469636F000845636F6E6FBE
:105630006D6961001550658F889320A88965709EFB
:105640006F63926570652E2E2E0004CFD9C8AF0807
:105650005374616E6461726400085374616E6461B6
:10566000726400085374616E64617264000853745C
:10567000616E6461726400085374616E6461726487
:1056800000085374616E6461726400085374616E43
:105690006461726400085374616E6461726400FF37
:1056A0005494FF5506FF557CFF55EEFF564FFF54AF
:1056B000A1FF5515FF558BFF55F7FF5659FF54B500
:1056C000FF5521FF559CFF55FFFF5663FF54C5FF53
:1056D0005535FF55ACFF5609FF566DFF54D1FF55A8
:1056E00042FF55BAFF5614FF5677FF54DAFF55565E
:1056F000FF55CBFF562AFF5681FF54F2FF5569FF35
:1057000055DBFF5634FF568BFF5501FF5577FF558C
:10571000EBFF564AFF56950B427269676874204D3D
:105720006F6465000F20536D617274496D61676528
:10573000204F66660013536D617274496D61676531
:1057400020456E68616E636564000D536D6172740F
:10575000496D616765204F6E000E536D617274492B
:105760006D616765204F666600FF5724FF5735FF60
:10577000574AFF5759114D6F6E69746F722031206F
:10578000436F6E74726F6C00114D6F6E69746F723F
:10579000203220436F6E74726F6C00FF5775FF5795
:1057A000880D427574746F6E2053656C6563740068
:1057B000FF57A1107777772E646E707379732E631D
:1057C0006F2E6B7200FF57B30D416E616C6F6720D7
:1057D00031204D6F6465000D416E616C6F67203242
:1057E000204D6F646500FF57C8FF57D7253364000D
:1057F0006E25647825644025642E2564487A007BF4
:1058000000D000000000E00700F81F00FF071FF8AD
:10581000E0FFFFFF00000078E0010F0010041EDF32
:10582000E07918C61004FFFF1F00E0FF0000F8C574
:105830001000FF07E0071FF800F8F0FF18C600840B
:1058400010841080100418C61EDFE0FF0000F8C5A9
:105850001000FF07E0071FF800F8F0FF18C60084EB
:10586000108410801004FFFF1F00E0FF1004FFFFF2
:105870001F000000100418C61EDF00000B0101000D
:10588000CA3001CA3002CA300B010203CA3000CE4E
:105890001004CA300B010405CA3401CE1006CA3404
:1058A0000B010502CE1003CE1004CE100B0107052C
:1058B000CE1006CE1007CE100B010808CE1009CE70
:1058C000100ACE100B010A07CA340BCE100CCE10F2
:1058D0000B010B0DCE100ECE100FCE100B010D10C4
:1058E000CE1011CE1012CE100B010E13CE1014CE0E
:1058F0001015CE100B010405CA3801CE2006CA3897
:105900000B010502CE2003CE2004CE2007466163A2
:10591000746F727900204175746F202B204D656E75
:1059200075203A2051756974206275726E20696E17
:10593000206D6F64652E000359455300024E4F00E1
:10594000024F4B00055265736574000854442D5294
:10595000657365740000040700050700060700076B
:10596000070C07030008070709010C0901110901C9
:10597000070A010C0A01110A01070B010C0B0111A6
:105980000B01070C010C0C01110C01070D010C0D92
:1059900001110D01070E010C0E01110E01070F017F
:1059A0000C0F01110F010710010C1001111001075C
:1059B00011010C110111110100120714120300133F
:1059C000070014070015070A4175746F204C6576AF
:1059D000656C00064275726E696E000A426C616306
:1059E0006B204C766C2E00064272696768742E003C
:1059F000034944580006436F6E74722E00044761D9
:105A0000696E00064F666673657400047352474200
:105A1000000435303030000436353030000437357E
:105A20003030000438323030000439333030000573
:105A300031313530300005416464722E0002575216
:105A40000003504F54000445786974000148000178
:105A50005200014700014200013D00074E54363814
:105A600036373300144C504C2D4C4D3137304D45AA
:105A700030332D544C4C312F3400044844435000F3
:105A8000025E35E86480F8E933E83360110460F0C1
:105A9000ED33EC337009E8FCE9FDEAFEEBFF22048C
:105AA00060DED3EB9FEA9EE99DE8C2E78CF0C2F787
:105AB00095F0400CE8CCF8E9CDF9EACEFAEBCFFB53
:105AC000125E0085D0F05804700320D5B3E804704E
:105AD000075002B2D5025E3F92D5EC0460F7E4CCE9
