:0E0000000C9464000C9400000C9400000C940E
:10000E0000000C9400000C9400000C9400000C9462
:10001E0000000C9400000C9400000C9400000C9452
:10002E0000000C9400000C9400000C9400000C9442
:10003E0000000C9400000C9400000C9400000C9432
:10004E0000000C9400000C9400000C9400000C9422
:10005E0000000C9400000C9400000C9400000C9412
:10006E0000000C9400000C9400000C9400000C9402
:10007E0000000C9400000C9400000C9400007F3FD4
:10008E001F8FC7E3F1F8FCFEFCF8F1E3C78F1F3FAB
:10009E00FF005A46322828282832465A4632282847
:1000AE00282832460000130000058C0012001305AC
:1000BE00A00002000400B2000000F894EE27ECBB92
:1000CE00F1E0F5BFE5BFE0936C00F8E1F1BDE1BDF5
:1000DE008DE0A2E0BB27ED938A95E9F780E090E1F1
:1000EE00A0E0B1E0ED930197E9F7E4EBF0E0859144
:1000FE009591009761F0A591B59105901590BF016E
:10010E00F00105900D920197E1F7FB01F0CF8BBF47
:10011E00EFEFEDBFE0E1EEBFC0E0D5E00C9497004D
:10012E00E0E0EABBEBBBE7BBE8BBEFEFE4BBE0E034
:10013E00E5BBE1BBE2BBE2B9E3B9E0936100E0935A
:10014E006200E0936400E0936500E0BFE3BFE2BFAE
:10015E00E1BFEFBDEEBDEDBDECBDE7BDE6BDEBBD58
:10016E00EABDE9BDE8BDE0937900E0937800E5BD16
:10017E00E4BDE3BDE0938B00E0938A00E093890039
:10018E00E0938800E0938100E0938000E093870085
:10019E00E0938600E0938500E0938400E093830073
:1001AE00E0938200E7BFE0937D00E0936A00EABF30
:1001BE00E9BFEAB9E0939A00E0E8E8B9E0E0E0BD13
:1001CE00E6B9EDB9E093740016D0ED5EFA4FA0815A
:1001DE00A13070F010D0E050FB4FE081E5BB0BD0AA
:1001EE00ED5EFA4FA081B0E00E940501539401C06C
:1001FE005524EACFFFCFE52DF0E00895109639F0A3
:10020E0080EA9FE00197F1F7A8951197C9F7089535
:00000001FF
