:0C0000000C944F000C9400000C940000C5
:10000C000C9400000C9400000C9400000C94000064
:10001C000C9400000C9400000C9400000C94000054
:10002C000C9400000C9400000C9400000C94000044
:10003C000C9400000C9400000C9400000C94000034
:10004C000C9400000C9400000C9470000C940000B4
:10005C000C9400000C9400000C9400000C94000014
:10006C000C9400000C9400000C9400000C94000004
:10007C000C9400000C9400000C9400000C940000F4
:10008C001027E80364000A000100001000011000B2
:10009C000100F894EE27ECBBF1E0F5BFE5BFE0936F
:1000AC006C00F8E1F1BDE1BD8DE0A2E0BB27ED9362
:1000BC008A95E9F780E090E1A0E0B1E0ED9301973B
:1000CC00E9F78BBFEFEFEDBFE0E1EEBFC0E0D5E0AD
:1000DC000C94B8001A930A9304B115B1009300055F
:1000EC0010930105099119911895AA935D9BFECF68
:1000FC00E881ECB921960895AA931A931981512E8F
:10010C0012951F701A3010F0195C01C0105DA12FF0
:10011C00ECDFE52DEF701E2F1A3010F0195C01C0CA
:10012C00105DA12FE2DF188122960895E7B1E07EE1
:10013C00E7B9E0E0E7B9369A08951A9310910005F3
:10014C000E941A01A0910005D7DFA0E2CEDF4394F4
:10015C00E0E1E41529F4ADE0C8DFAAE0C6DF4424F1
:10016C00199108950E941E01EABBE0E0EBBBE7BBCE
:10017C00E8BBEFEFE4BBE0E0E5BBE1BBE2BBE2B91F
:10018C00E3B9E0936100E0936200E0936400E093D4
:10019C006500E0BFE3BFE2BFE1BFEFBDEEBDEDBD6B
:1001AC00ECBDE7BDE6BDEBBDEABDE9BDE8BDE09346
:1001BC007900E0937800E5BDE4BDE3BDE0938B00EE
:1001CC00E0938A00E0938900E0938800E09381003B
:1001DC00E0938000E0938700E0938600E093850035
:1001EC00E0938400E0938300E0938200E7BFE09308
:1001FC007D00E0936A00EABFE9BF0E941E01E09314
:10020C009A00E0E8E8B9E0E0E7B9EFE8E6B9E0E049
:10021C00EDB9E09374007894EFEFE5BB87DF8DDFE9
:10022C000E941A01FBCFFFCFAEE1B0E00C942C0181
:10023C00E0E0EBB9E8E1EAB9E6E0E0939500E0E054
:10024C00E0939000E7E6E9B9E0E00895109639F004
:10025C0080EA9FE00197F1F7A8951197C9F70895E7
:00000001FF
